{
  "contractName": "KittyContract",
  "abi": [
    {
      "anonymous": false,
      "inputs": [
        {
          "indexed": true,
          "internalType": "address",
          "name": "owner",
          "type": "address"
        },
        {
          "indexed": true,
          "internalType": "address",
          "name": "approved",
          "type": "address"
        },
        {
          "indexed": true,
          "internalType": "uint256",
          "name": "tokenId",
          "type": "uint256"
        }
      ],
      "name": "Approval",
      "type": "event"
    },
    {
      "anonymous": false,
      "inputs": [
        {
          "indexed": true,
          "internalType": "address",
          "name": "owner",
          "type": "address"
        },
        {
          "indexed": true,
          "internalType": "address",
          "name": "operator",
          "type": "address"
        },
        {
          "indexed": false,
          "internalType": "bool",
          "name": "approved",
          "type": "bool"
        }
      ],
      "name": "ApprovalForAll",
      "type": "event"
    },
    {
      "anonymous": false,
      "inputs": [
        {
          "indexed": false,
          "internalType": "address",
          "name": "owner",
          "type": "address"
        },
        {
          "indexed": false,
          "internalType": "uint256",
          "name": "kittenId",
          "type": "uint256"
        },
        {
          "indexed": false,
          "internalType": "uint256",
          "name": "mumId",
          "type": "uint256"
        },
        {
          "indexed": false,
          "internalType": "uint256",
          "name": "dadId",
          "type": "uint256"
        },
        {
          "indexed": false,
          "internalType": "uint256",
          "name": "genes",
          "type": "uint256"
        }
      ],
      "name": "Birth",
      "type": "event"
    },
    {
      "anonymous": false,
      "inputs": [
        {
          "indexed": true,
          "internalType": "address",
          "name": "previousOwner",
          "type": "address"
        },
        {
          "indexed": true,
          "internalType": "address",
          "name": "newOwner",
          "type": "address"
        }
      ],
      "name": "OwnershipTransferred",
      "type": "event"
    },
    {
      "anonymous": false,
      "inputs": [
        {
          "indexed": false,
          "internalType": "address",
          "name": "account",
          "type": "address"
        }
      ],
      "name": "Paused",
      "type": "event"
    },
    {
      "anonymous": false,
      "inputs": [
        {
          "indexed": true,
          "internalType": "address",
          "name": "from",
          "type": "address"
        },
        {
          "indexed": true,
          "internalType": "address",
          "name": "to",
          "type": "address"
        },
        {
          "indexed": true,
          "internalType": "uint256",
          "name": "tokenId",
          "type": "uint256"
        }
      ],
      "name": "Transfer",
      "type": "event"
    },
    {
      "anonymous": false,
      "inputs": [
        {
          "indexed": false,
          "internalType": "address",
          "name": "account",
          "type": "address"
        }
      ],
      "name": "Unpaused",
      "type": "event"
    },
    {
      "inputs": [],
      "name": "owner",
      "outputs": [
        {
          "internalType": "address",
          "name": "",
          "type": "address"
        }
      ],
      "stateMutability": "view",
      "type": "function",
      "constant": true
    },
    {
      "inputs": [],
      "name": "paused",
      "outputs": [
        {
          "internalType": "bool",
          "name": "",
          "type": "bool"
        }
      ],
      "stateMutability": "view",
      "type": "function",
      "constant": true
    },
    {
      "inputs": [],
      "name": "renounceOwnership",
      "outputs": [],
      "stateMutability": "nonpayable",
      "type": "function"
    },
    {
      "inputs": [
        {
          "internalType": "address",
          "name": "newOwner",
          "type": "address"
        }
      ],
      "name": "transferOwnership",
      "outputs": [],
      "stateMutability": "nonpayable",
      "type": "function"
    },
    {
      "inputs": [],
      "name": "pause",
      "outputs": [],
      "stateMutability": "nonpayable",
      "type": "function"
    },
    {
      "inputs": [],
      "name": "unpause",
      "outputs": [],
      "stateMutability": "nonpayable",
      "type": "function"
    },
    {
      "inputs": [
        {
          "internalType": "bytes4",
          "name": "interfaceId",
          "type": "bytes4"
        }
      ],
      "name": "supportsInterface",
      "outputs": [
        {
          "internalType": "bool",
          "name": "",
          "type": "bool"
        }
      ],
      "stateMutability": "pure",
      "type": "function",
      "constant": true
    },
    {
      "inputs": [
        {
          "internalType": "uint256",
          "name": "_dadId",
          "type": "uint256"
        },
        {
          "internalType": "uint256",
          "name": "_mumId",
          "type": "uint256"
        }
      ],
      "name": "breed",
      "outputs": [],
      "stateMutability": "nonpayable",
      "type": "function"
    },
    {
      "inputs": [
        {
          "internalType": "address",
          "name": "owner",
          "type": "address"
        }
      ],
      "name": "balanceOf",
      "outputs": [
        {
          "internalType": "uint256",
          "name": "balance",
          "type": "uint256"
        }
      ],
      "stateMutability": "view",
      "type": "function",
      "constant": true
    },
    {
      "inputs": [],
      "name": "totalSupply",
      "outputs": [
        {
          "internalType": "uint256",
          "name": "total",
          "type": "uint256"
        }
      ],
      "stateMutability": "view",
      "type": "function",
      "constant": true
    },
    {
      "inputs": [],
      "name": "name",
      "outputs": [
        {
          "internalType": "string",
          "name": "tokenName",
          "type": "string"
        }
      ],
      "stateMutability": "pure",
      "type": "function",
      "constant": true
    },
    {
      "inputs": [],
      "name": "symbol",
      "outputs": [
        {
          "internalType": "string",
          "name": "tokenSymbol",
          "type": "string"
        }
      ],
      "stateMutability": "pure",
      "type": "function",
      "constant": true
    },
    {
      "inputs": [
        {
          "internalType": "uint256",
          "name": "tokenId",
          "type": "uint256"
        }
      ],
      "name": "ownerOf",
      "outputs": [
        {
          "internalType": "address",
          "name": "owner",
          "type": "address"
        }
      ],
      "stateMutability": "view",
      "type": "function",
      "constant": true
    },
    {
      "inputs": [
        {
          "internalType": "address",
          "name": "to",
          "type": "address"
        },
        {
          "internalType": "uint256",
          "name": "tokenId",
          "type": "uint256"
        }
      ],
      "name": "transfer",
      "outputs": [],
      "stateMutability": "payable",
      "type": "function",
      "payable": true
    },
    {
      "inputs": [
        {
          "internalType": "uint256",
          "name": "genes",
          "type": "uint256"
        }
      ],
      "name": "createKittyGen0",
      "outputs": [
        {
          "internalType": "uint256",
          "name": "",
          "type": "uint256"
        }
      ],
      "stateMutability": "payable",
      "type": "function",
      "payable": true
    },
    {
      "inputs": [
        {
          "internalType": "uint256",
          "name": "kittyId",
          "type": "uint256"
        }
      ],
      "name": "getKitty",
      "outputs": [
        {
          "internalType": "uint256",
          "name": "",
          "type": "uint256"
        },
        {
          "internalType": "uint64",
          "name": "",
          "type": "uint64"
        },
        {
          "internalType": "uint32",
          "name": "",
          "type": "uint32"
        },
        {
          "internalType": "uint32",
          "name": "",
          "type": "uint32"
        },
        {
          "internalType": "uint16",
          "name": "",
          "type": "uint16"
        }
      ],
      "stateMutability": "view",
      "type": "function",
      "constant": true
    },
    {
      "inputs": [
        {
          "internalType": "address",
          "name": "_approved",
          "type": "address"
        },
        {
          "internalType": "uint256",
          "name": "_tokenId",
          "type": "uint256"
        }
      ],
      "name": "approve",
      "outputs": [],
      "stateMutability": "nonpayable",
      "type": "function"
    },
    {
      "inputs": [
        {
          "internalType": "address",
          "name": "_approved",
          "type": "address"
        },
        {
          "internalType": "uint256",
          "name": "_tokenId",
          "type": "uint256"
        },
        {
          "internalType": "address",
          "name": "from",
          "type": "address"
        }
      ],
      "name": "approve",
      "outputs": [],
      "stateMutability": "nonpayable",
      "type": "function"
    },
    {
      "inputs": [
        {
          "internalType": "uint256",
          "name": "_tokenId",
          "type": "uint256"
        }
      ],
      "name": "getApproved",
      "outputs": [
        {
          "internalType": "address",
          "name": "",
          "type": "address"
        }
      ],
      "stateMutability": "view",
      "type": "function",
      "constant": true
    },
    {
      "inputs": [
        {
          "internalType": "address",
          "name": "_operator",
          "type": "address"
        },
        {
          "internalType": "bool",
          "name": "_approved",
          "type": "bool"
        }
      ],
      "name": "setApprovalForAll",
      "outputs": [],
      "stateMutability": "nonpayable",
      "type": "function"
    },
    {
      "inputs": [
        {
          "internalType": "address",
          "name": "_owner",
          "type": "address"
        },
        {
          "internalType": "address",
          "name": "_operator",
          "type": "address"
        }
      ],
      "name": "isApprovedForAll",
      "outputs": [
        {
          "internalType": "bool",
          "name": "",
          "type": "bool"
        }
      ],
      "stateMutability": "view",
      "type": "function",
      "constant": true
    },
    {
      "inputs": [
        {
          "internalType": "address",
          "name": "_from",
          "type": "address"
        },
        {
          "internalType": "address",
          "name": "_to",
          "type": "address"
        },
        {
          "internalType": "uint256",
          "name": "_tokenId",
          "type": "uint256"
        }
      ],
      "name": "transferFrom",
      "outputs": [],
      "stateMutability": "nonpayable",
      "type": "function"
    },
    {
      "inputs": [
        {
          "internalType": "address",
          "name": "_from",
          "type": "address"
        },
        {
          "internalType": "address",
          "name": "_to",
          "type": "address"
        },
        {
          "internalType": "uint256",
          "name": "_tokenId",
          "type": "uint256"
        }
      ],
      "name": "safeTransferFrom",
      "outputs": [],
      "stateMutability": "nonpayable",
      "type": "function"
    },
    {
      "inputs": [
        {
          "internalType": "address",
          "name": "_from",
          "type": "address"
        },
        {
          "internalType": "address",
          "name": "_to",
          "type": "address"
        },
        {
          "internalType": "uint256",
          "name": "_tokenId",
          "type": "uint256"
        },
        {
          "internalType": "bytes",
          "name": "data",
          "type": "bytes"
        }
      ],
      "name": "safeTransferFrom",
      "outputs": [],
      "stateMutability": "nonpayable",
      "type": "function"
    }
  ],
  "bytecode": "0x60806040523480156200001157600080fd5b5062000032620000266200005260201b60201c565b6200005a60201b60201c565b60008060146101000a81548160ff0219169083151502179055506200011e565b600033905090565b60008060009054906101000a900473ffffffffffffffffffffffffffffffffffffffff169050816000806101000a81548173ffffffffffffffffffffffffffffffffffffffff021916908373ffffffffffffffffffffffffffffffffffffffff1602179055508173ffffffffffffffffffffffffffffffffffffffff168173ffffffffffffffffffffffffffffffffffffffff167f8be0079c531659141344cd1fd0a4f28419497f9722a3daafe3b4186f6b6457e060405160405180910390a35050565b61349f806200012e6000396000f3fe60806040526004361061014b5760003560e01c8063715018a6116100b6578063b88d4fde1161006f578063b88d4fde14610449578063d5a776ca14610472578063d9ecad7b146104a2578063e985e9c5146104cb578063e98b7f4d14610508578063f2fde38b146105495761014b565b8063715018a6146103805780638456cb59146103975780638da5cb5b146103ae57806395d89b41146103d9578063a22cb46514610404578063a9059cbb1461042d5761014b565b806323b872dd1161010857806323b872dd146102725780633f4ba83a1461029b57806342842e0e146102b25780635c975abb146102db5780636352211e1461030657806370a08231146103435761014b565b806301ffc9a71461015057806306fdde031461018d578063081812fc146101b8578063095ea7b3146101f55780631271f09a1461021e57806318160ddd14610247575b600080fd5b34801561015c57600080fd5b5061017760048036038101906101729190612a74565b610572565b6040516101849190612da6565b60405180910390f35b34801561019957600080fd5b506101a26105dc565b6040516101af9190612dc1565b60405180910390f35b3480156101c457600080fd5b506101df60048036038101906101da9190612ac6565b610619565b6040516101ec9190612cec565b60405180910390f35b34801561020157600080fd5b5061021c600480360381019061021791906129e9565b610786565b005b34801561022a57600080fd5b5061024560048036038101906102409190612a25565b6108c8565b005b34801561025357600080fd5b5061025c610a0b565b6040516102699190612ec3565b60405180910390f35b34801561027e57600080fd5b50610299600480360381019061029491906128de565b610a60565b005b3480156102a757600080fd5b506102b0610c60565b005b3480156102be57600080fd5b506102d960048036038101906102d491906128de565b610d2d565b005b3480156102e757600080fd5b506102f0610f63565b6040516102fd9190612da6565b60405180910390f35b34801561031257600080fd5b5061032d60048036038101906103289190612ac6565b610f79565b60405161033a9190612cec565b60405180910390f35b34801561034f57600080fd5b5061036a60048036038101906103659190612879565b610ffe565b6040516103779190612ec3565b60405180910390f35b34801561038c57600080fd5b5061039561108f565b005b3480156103a357600080fd5b506103ac611117565b005b3480156103ba57600080fd5b506103c36111e5565b6040516103d09190612cec565b60405180910390f35b3480156103e557600080fd5b506103ee61120e565b6040516103fb9190612dc1565b60405180910390f35b34801561041057600080fd5b5061042b600480360381019061042691906129ad565b61124b565b005b610447600480360381019061044291906129e9565b6113c9565b005b34801561045557600080fd5b50610470600480360381019061046b919061292d565b611501565b005b61048c60048036038101906104879190612ac6565b611748565b6040516104999190612ec3565b60405180910390f35b3480156104ae57600080fd5b506104c960048036038101906104c49190612aef565b611824565b005b3480156104d757600080fd5b506104f260048036038101906104ed91906128a2565b611bc7565b6040516104ff9190612da6565b60405180910390f35b34801561051457600080fd5b5061052f600480360381019061052a9190612ac6565b611ca3565b604051610540959493929190612ede565b60405180910390f35b34801561055557600080fd5b50610570600480360381019061056b9190612879565b611ec4565b005b60007f01ffc9a7000000000000000000000000000000000000000000000000000000007bffffffffffffffffffffffffffffffffffffffffffffffffffffffff1916827bffffffffffffffffffffffffffffffffffffffffffffffffffffffff1916149050919050565b60606040518060400160405280601281526020017f4361726c6f73204b6974747920546f6b656e0000000000000000000000000000815250905090565b6000610623610f63565b15610663576040517f08c379a000000000000000000000000000000000000000000000000000000000815260040161065a90612e23565b60405180910390fd5b3373ffffffffffffffffffffffffffffffffffffffff166002600084815260200190815260200160002060009054906101000a900473ffffffffffffffffffffffffffffffffffffffff1673ffffffffffffffffffffffffffffffffffffffff1614610704576040517f08c379a00000000000000000000000000000000000000000000000000000000081526004016106fb90612e43565b60405180910390fd5b600580549050821061074b576040517f08c379a000000000000000000000000000000000000000000000000000000000815260040161074290612e83565b60405180910390fd5b6003600083815260200190815260200160002060009054906101000a900473ffffffffffffffffffffffffffffffffffffffff169050919050565b61078e610f63565b156107ce576040517f08c379a00000000000000000000000000000000000000000000000000000000081526004016107c590612e23565b60405180910390fd5b6107d83382611fbc565b610817576040517f08c379a000000000000000000000000000000000000000000000000000000000815260040161080e90612ea3565b60405180910390fd5b816003600083815260200190815260200160002060006101000a81548173ffffffffffffffffffffffffffffffffffffffff021916908373ffffffffffffffffffffffffffffffffffffffff160217905550808273ffffffffffffffffffffffffffffffffffffffff163373ffffffffffffffffffffffffffffffffffffffff167f8c5be1e5ebec7d5bd14f71427d1e84f3dd0314c0f7b2291e5b200ac8c7c3b92560405160405180910390a45050565b6108d0610f63565b15610910576040517f08c379a000000000000000000000000000000000000000000000000000000000815260040161090790612e23565b60405180910390fd5b61091a8183611fbc565b610959576040517f08c379a000000000000000000000000000000000000000000000000000000000815260040161095090612ea3565b60405180910390fd5b826003600084815260200190815260200160002060006101000a81548173ffffffffffffffffffffffffffffffffffffffff021916908373ffffffffffffffffffffffffffffffffffffffff160217905550818373ffffffffffffffffffffffffffffffffffffffff163373ffffffffffffffffffffffffffffffffffffffff167f8c5be1e5ebec7d5bd14f71427d1e84f3dd0314c0f7b2291e5b200ac8c7c3b92560405160405180910390a4505050565b6000610a15610f63565b15610a55576040517f08c379a0000000000000000000000000000000000000000000000000000000008152600401610a4c90612e23565b60405180910390fd5b600580549050905090565b610a68610f63565b15610aa8576040517f08c379a0000000000000000000000000000000000000000000000000000000008152600401610a9f90612e23565b60405180910390fd5b600073ffffffffffffffffffffffffffffffffffffffff168273ffffffffffffffffffffffffffffffffffffffff161415610ae257600080fd5b610aec3382611fbc565b80610b5557503373ffffffffffffffffffffffffffffffffffffffff166003600083815260200190815260200160002060009054906101000a900473ffffffffffffffffffffffffffffffffffffffff1673ffffffffffffffffffffffffffffffffffffffff16145b80610bed575060011515600460008573ffffffffffffffffffffffffffffffffffffffff1673ffffffffffffffffffffffffffffffffffffffff16815260200190815260200160002060003373ffffffffffffffffffffffffffffffffffffffff1673ffffffffffffffffffffffffffffffffffffffff16815260200190815260200160002060009054906101000a900460ff161515145b610bf657600080fd5b610c008382611fbc565b610c0957600080fd5b6005805490508110610c50576040517f08c379a0000000000000000000000000000000000000000000000000000000008152600401610c4790612e83565b60405180910390fd5b610c5b838383612028565b505050565b610c686121ef565b73ffffffffffffffffffffffffffffffffffffffff16610c866111e5565b73ffffffffffffffffffffffffffffffffffffffff1614610cdc576040517f08c379a0000000000000000000000000000000000000000000000000000000008152600401610cd390612e63565b60405180910390fd5b610ce4610f63565b610d23576040517f08c379a0000000000000000000000000000000000000000000000000000000008152600401610d1a90612de3565b60405180910390fd5b610d2b6121f7565b565b610d35610f63565b15610d75576040517f08c379a0000000000000000000000000000000000000000000000000000000008152600401610d6c90612e23565b60405180910390fd5b610d7f3382611fbc565b80610de857503373ffffffffffffffffffffffffffffffffffffffff166003600083815260200190815260200160002060009054906101000a900473ffffffffffffffffffffffffffffffffffffffff1673ffffffffffffffffffffffffffffffffffffffff16145b80610e80575060011515600460008573ffffffffffffffffffffffffffffffffffffffff1673ffffffffffffffffffffffffffffffffffffffff16815260200190815260200160002060003373ffffffffffffffffffffffffffffffffffffffff1673ffffffffffffffffffffffffffffffffffffffff16815260200190815260200160002060009054906101000a900460ff161515145b610e8957600080fd5b610e938382611fbc565b610e9c57600080fd5b600073ffffffffffffffffffffffffffffffffffffffff168273ffffffffffffffffffffffffffffffffffffffff161415610ed657600080fd5b6005805490508110610f1d576040517f08c379a0000000000000000000000000000000000000000000000000000000008152600401610f1490612e83565b60405180910390fd5b610f5e8383836040518060400160405280600181526020017f3000000000000000000000000000000000000000000000000000000000000000815250612298565b505050565b60008060149054906101000a900460ff16905090565b6000610f83610f63565b15610fc3576040517f08c379a0000000000000000000000000000000000000000000000000000000008152600401610fba90612e23565b60405180910390fd5b6002600083815260200190815260200160002060009054906101000a900473ffffffffffffffffffffffffffffffffffffffff169050919050565b6000611008610f63565b15611048576040517f08c379a000000000000000000000000000000000000000000000000000000000815260040161103f90612e23565b60405180910390fd5b600160008373ffffffffffffffffffffffffffffffffffffffff1673ffffffffffffffffffffffffffffffffffffffff168152602001908152602001600020549050919050565b6110976121ef565b73ffffffffffffffffffffffffffffffffffffffff166110b56111e5565b73ffffffffffffffffffffffffffffffffffffffff161461110b576040517f08c379a000000000000000000000000000000000000000000000000000000000815260040161110290612e63565b60405180910390fd5b61111560006122be565b565b61111f6121ef565b73ffffffffffffffffffffffffffffffffffffffff1661113d6111e5565b73ffffffffffffffffffffffffffffffffffffffff1614611193576040517f08c379a000000000000000000000000000000000000000000000000000000000815260040161118a90612e63565b60405180910390fd5b61119b610f63565b156111db576040517f08c379a00000000000000000000000000000000000000000000000000000000081526004016111d290612e23565b60405180910390fd5b6111e3612382565b565b60008060009054906101000a900473ffffffffffffffffffffffffffffffffffffffff16905090565b60606040518060400160405280600381526020017f434b540000000000000000000000000000000000000000000000000000000000815250905090565b611253610f63565b15611293576040517f08c379a000000000000000000000000000000000000000000000000000000000815260040161128a90612e23565b60405180910390fd5b3373ffffffffffffffffffffffffffffffffffffffff168273ffffffffffffffffffffffffffffffffffffffff1614156112cc57600080fd5b80600460003373ffffffffffffffffffffffffffffffffffffffff1673ffffffffffffffffffffffffffffffffffffffff16815260200190815260200160002060008473ffffffffffffffffffffffffffffffffffffffff1673ffffffffffffffffffffffffffffffffffffffff16815260200190815260200160002060006101000a81548160ff0219169083151502179055508173ffffffffffffffffffffffffffffffffffffffff163373ffffffffffffffffffffffffffffffffffffffff167f17307eab39ab6107e8899845ad3d59bd9653f200f220920489ca2b5937696c31836040516113bd9190612da6565b60405180910390a35050565b6113d1610f63565b15611411576040517f08c379a000000000000000000000000000000000000000000000000000000000815260040161140890612e23565b60405180910390fd5b600073ffffffffffffffffffffffffffffffffffffffff168273ffffffffffffffffffffffffffffffffffffffff16141561144b57600080fd5b3073ffffffffffffffffffffffffffffffffffffffff168273ffffffffffffffffffffffffffffffffffffffff16141561148457600080fd5b61148e3382611fbc565b61149757600080fd5b6114a2338383612028565b808273ffffffffffffffffffffffffffffffffffffffff163373ffffffffffffffffffffffffffffffffffffffff167fddf252ad1be2c89b69c2b068fc378daa952ba7f163c4a11628f55a4df523b3ef60405160405180910390a45050565b611509610f63565b15611549576040517f08c379a000000000000000000000000000000000000000000000000000000000815260040161154090612e23565b60405180910390fd5b6115533384611fbc565b806115bc57503373ffffffffffffffffffffffffffffffffffffffff166003600085815260200190815260200160002060009054906101000a900473ffffffffffffffffffffffffffffffffffffffff1673ffffffffffffffffffffffffffffffffffffffff16145b80611654575060011515600460008773ffffffffffffffffffffffffffffffffffffffff1673ffffffffffffffffffffffffffffffffffffffff16815260200190815260200160002060003373ffffffffffffffffffffffffffffffffffffffff1673ffffffffffffffffffffffffffffffffffffffff16815260200190815260200160002060009054906101000a900460ff161515145b61165d57600080fd5b6116678584611fbc565b61167057600080fd5b600073ffffffffffffffffffffffffffffffffffffffff168473ffffffffffffffffffffffffffffffffffffffff1614156116aa57600080fd5b60058054905083106116f1576040517f08c379a00000000000000000000000000000000000000000000000000000000081526004016116e890612e83565b60405180910390fd5b61174185858585858080601f016020809104026020016040519081016040528093929190818152602001838380828437600081840152601f19601f82011690508083019250505050505050612298565b5050505050565b60006117526121ef565b73ffffffffffffffffffffffffffffffffffffffff166117706111e5565b73ffffffffffffffffffffffffffffffffffffffff16146117c6576040517f08c379a00000000000000000000000000000000000000000000000000000000081526004016117bd90612e63565b60405180910390fd5b6117ce610f63565b1561180e576040517f08c379a000000000000000000000000000000000000000000000000000000000815260040161180590612e23565b60405180910390fd5b61181d60008060008533612425565b9050919050565b61182c610f63565b1561186c576040517f08c379a000000000000000000000000000000000000000000000000000000000815260040161186390612e23565b60405180910390fd5b60058054905082108015611884575060058054905081105b61188d57600080fd5b3373ffffffffffffffffffffffffffffffffffffffff166002600084815260200190815260200160002060009054906101000a900473ffffffffffffffffffffffffffffffffffffffff1673ffffffffffffffffffffffffffffffffffffffff1614801561195957503373ffffffffffffffffffffffffffffffffffffffff166002600083815260200190815260200160002060009054906101000a900473ffffffffffffffffffffffffffffffffffffffff1673ffffffffffffffffffffffffffffffffffffffff16145b61196257600080fd5b60006005838154811061199e577f4e487b7100000000000000000000000000000000000000000000000000000000600052603260045260246000fd5b90600052602060002090600202016000015490506000600583815481106119ee577f4e487b7100000000000000000000000000000000000000000000000000000000600052603260045260246000fd5b9060005260206000209060020201600001549050600060058481548110611a3e577f4e487b7100000000000000000000000000000000000000000000000000000000600052603260045260246000fd5b906000526020600020906002020160010160109054906101000a900461ffff1661ffff1660058681548110611a9c577f4e487b7100000000000000000000000000000000000000000000000000000000600052603260045260246000fd5b906000526020600020906002020160010160109054906101000a900461ffff1661ffff1610611b3657600160058681548110611b01577f4e487b7100000000000000000000000000000000000000000000000000000000600052603260045260246000fd5b906000526020600020906002020160010160109054906101000a900461ffff16611b2b9190612f69565b61ffff169050611ba3565b600160058581548110611b72577f4e487b7100000000000000000000000000000000000000000000000000000000600052603260045260246000fd5b906000526020600020906002020160010160109054906101000a900461ffff16611b9c9190612f69565b61ffff1690505b6000611baf84846125b2565b9050611bbe8587848433612425565b50505050505050565b6000611bd1610f63565b15611c11576040517f08c379a0000000000000000000000000000000000000000000000000000000008152600401611c0890612e23565b60405180910390fd5b600460008473ffffffffffffffffffffffffffffffffffffffff1673ffffffffffffffffffffffffffffffffffffffff16815260200190815260200160002060008373ffffffffffffffffffffffffffffffffffffffff1673ffffffffffffffffffffffffffffffffffffffff16815260200190815260200160002060009054906101000a900460ff16905092915050565b6000806000806000611cb3610f63565b15611cf3576040517f08c379a0000000000000000000000000000000000000000000000000000000008152600401611cea90612e23565b60405180910390fd5b60058681548110611d2d577f4e487b7100000000000000000000000000000000000000000000000000000000600052603260045260246000fd5b90600052602060002090600202016000015460058781548110611d79577f4e487b7100000000000000000000000000000000000000000000000000000000600052603260045260246000fd5b906000526020600020906002020160010160009054906101000a900467ffffffffffffffff1660058881548110611dd9577f4e487b7100000000000000000000000000000000000000000000000000000000600052603260045260246000fd5b906000526020600020906002020160010160089054906101000a900463ffffffff1660058981548110611e35577f4e487b7100000000000000000000000000000000000000000000000000000000600052603260045260246000fd5b9060005260206000209060020201600101600c9054906101000a900463ffffffff1660058a81548110611e91577f4e487b7100000000000000000000000000000000000000000000000000000000600052603260045260246000fd5b906000526020600020906002020160010160109054906101000a900461ffff169450945094509450945091939590929450565b611ecc6121ef565b73ffffffffffffffffffffffffffffffffffffffff16611eea6111e5565b73ffffffffffffffffffffffffffffffffffffffff1614611f40576040517f08c379a0000000000000000000000000000000000000000000000000000000008152600401611f3790612e63565b60405180910390fd5b600073ffffffffffffffffffffffffffffffffffffffff168173ffffffffffffffffffffffffffffffffffffffff161415611fb0576040517f08c379a0000000000000000000000000000000000000000000000000000000008152600401611fa790612e03565b60405180910390fd5b611fb9816122be565b50565b60008273ffffffffffffffffffffffffffffffffffffffff166002600084815260200190815260200160002060009054906101000a900473ffffffffffffffffffffffffffffffffffffffff1673ffffffffffffffffffffffffffffffffffffffff1614905092915050565b600160008373ffffffffffffffffffffffffffffffffffffffff1673ffffffffffffffffffffffffffffffffffffffff1681526020019081526020016000206000815480929190612078906131b9565b9190505550816002600083815260200190815260200160002060006101000a81548173ffffffffffffffffffffffffffffffffffffffff021916908373ffffffffffffffffffffffffffffffffffffffff160217905550600073ffffffffffffffffffffffffffffffffffffffff168373ffffffffffffffffffffffffffffffffffffffff161461218f57600160008473ffffffffffffffffffffffffffffffffffffffff1673ffffffffffffffffffffffffffffffffffffffff16815260200190815260200160002060008154809291906121539061318f565b91905055506003600082815260200190815260200160002060006101000a81549073ffffffffffffffffffffffffffffffffffffffff02191690555b808273ffffffffffffffffffffffffffffffffffffffff168473ffffffffffffffffffffffffffffffffffffffff167fddf252ad1be2c89b69c2b068fc378daa952ba7f163c4a11628f55a4df523b3ef60405160405180910390a4505050565b600033905090565b6121ff610f63565b61223e576040517f08c379a000000000000000000000000000000000000000000000000000000000815260040161223590612de3565b60405180910390fd5b60008060146101000a81548160ff0219169083151502179055507f5db9ee0a495bf2e6ff9c91a7834c1ba4fdd244a5e8aa4e537bd38aeae4b073aa6122816121ef565b60405161228e9190612cec565b60405180910390a1565b6122a3848484612028565b6122af84848484612693565b6122b857600080fd5b50505050565b60008060009054906101000a900473ffffffffffffffffffffffffffffffffffffffff169050816000806101000a81548173ffffffffffffffffffffffffffffffffffffffff021916908373ffffffffffffffffffffffffffffffffffffffff1602179055508173ffffffffffffffffffffffffffffffffffffffff168173ffffffffffffffffffffffffffffffffffffffff167f8be0079c531659141344cd1fd0a4f28419497f9722a3daafe3b4186f6b6457e060405160405180910390a35050565b61238a610f63565b156123ca576040517f08c379a00000000000000000000000000000000000000000000000000000000081526004016123c190612e23565b60405180910390fd5b6001600060146101000a81548160ff0219169083151502179055507f62e78cea01bee320cd4e420270b5ea74000d11b0c9f74754ebdbfc544b05a25861240e6121ef565b60405161241b9190612cec565b60405180910390a1565b6000806040518060a001604052808581526020014267ffffffffffffffff1681526020018863ffffffff1681526020018763ffffffff1681526020018661ffff16815250905060058190806001815401808255809150506001900390600052602060002090600202016000909190919091506000820151816000015560208201518160010160006101000a81548167ffffffffffffffff021916908367ffffffffffffffff16021790555060408201518160010160086101000a81548163ffffffff021916908363ffffffff160217905550606082015181600101600c6101000a81548163ffffffff021916908363ffffffff16021790555060808201518160010160106101000a81548161ffff021916908361ffff1602179055505050600060016005805490506125579190613082565b90507f0a5311bd2a6608f08a180df2ee7c5946819a649b204b554bb8e39825b2c50ad584828a8a89604051612590959493929190612d53565b60405180910390a16125a460008583612028565b809250505095945050505050565b600080662386f26fc1000090506000655af3107a40009050600080600190505b600881116126865760006002826125e99190613202565b1415612624578284886125fc9190613202565b6126069190612ff7565b6064836126139190613028565b61261d9190612fa1565b9150612655565b8284876126319190613202565b61263b9190612ff7565b6064836126489190613028565b6126529190612fa1565b91505b6064846126629190612ff7565b93506064836126719190612ff7565b9250808061267e906131b9565b9150506125d2565b8194505050505092915050565b600061269e846127ad565b6126ab57600190506127a5565b60008473ffffffffffffffffffffffffffffffffffffffff1663150b7a02338887876040518563ffffffff1660e01b81526004016126ec9493929190612d07565b602060405180830381600087803b15801561270657600080fd5b505af115801561271a573d6000803e3d6000fd5b505050506040513d601f19601f8201168201806040525081019061273e9190612a9d565b90507f150b7a023d4804d13e8c85fb27262cb750cf6ba9f9dd3bb30d90f482ceeb4b1f7bffffffffffffffffffffffffffffffffffffffffffffffffffffffff1916817bffffffffffffffffffffffffffffffffffffffffffffffffffffffff1916149150505b949350505050565b600080823b905060008163ffffffff1611915050919050565b6000813590506127d58161340d565b92915050565b6000813590506127ea81613424565b92915050565b6000813590506127ff8161343b565b92915050565b6000815190506128148161343b565b92915050565b60008083601f84011261282c57600080fd5b8235905067ffffffffffffffff81111561284557600080fd5b60208301915083600182028301111561285d57600080fd5b9250929050565b60008135905061287381613452565b92915050565b60006020828403121561288b57600080fd5b6000612899848285016127c6565b91505092915050565b600080604083850312156128b557600080fd5b60006128c3858286016127c6565b92505060206128d4858286016127c6565b9150509250929050565b6000806000606084860312156128f357600080fd5b6000612901868287016127c6565b9350506020612912868287016127c6565b925050604061292386828701612864565b9150509250925092565b60008060008060006080868803121561294557600080fd5b6000612953888289016127c6565b9550506020612964888289016127c6565b945050604061297588828901612864565b935050606086013567ffffffffffffffff81111561299257600080fd5b61299e8882890161281a565b92509250509295509295909350565b600080604083850312156129c057600080fd5b60006129ce858286016127c6565b92505060206129df858286016127db565b9150509250929050565b600080604083850312156129fc57600080fd5b6000612a0a858286016127c6565b9250506020612a1b85828601612864565b9150509250929050565b600080600060608486031215612a3a57600080fd5b6000612a48868287016127c6565b9350506020612a5986828701612864565b9250506040612a6a868287016127c6565b9150509250925092565b600060208284031215612a8657600080fd5b6000612a94848285016127f0565b91505092915050565b600060208284031215612aaf57600080fd5b6000612abd84828501612805565b91505092915050565b600060208284031215612ad857600080fd5b6000612ae684828501612864565b91505092915050565b60008060408385031215612b0257600080fd5b6000612b1085828601612864565b9250506020612b2185828601612864565b9150509250929050565b612b34816130b6565b82525050565b612b43816130c8565b82525050565b6000612b5482612f31565b612b5e8185612f47565b9350612b6e81856020860161315c565b612b7781613291565b840191505092915050565b6000612b8d82612f3c565b612b978185612f58565b9350612ba781856020860161315c565b612bb081613291565b840191505092915050565b6000612bc8601483612f58565b9150612bd3826132a2565b602082019050919050565b6000612beb602683612f58565b9150612bf6826132cb565b604082019050919050565b6000612c0e601083612f58565b9150612c198261331a565b602082019050919050565b6000612c31602483612f58565b9150612c3c82613343565b604082019050919050565b6000612c54602083612f58565b9150612c5f82613392565b602082019050919050565b6000612c77601a83612f58565b9150612c82826133bb565b602082019050919050565b6000612c9a601b83612f58565b9150612ca5826133e4565b602082019050919050565b612cb981613100565b82525050565b612cc88161312e565b82525050565b612cd781613138565b82525050565b612ce681613148565b82525050565b6000602082019050612d016000830184612b2b565b92915050565b6000608082019050612d1c6000830187612b2b565b612d296020830186612b2b565b612d366040830185612cbf565b8181036060830152612d488184612b49565b905095945050505050565b600060a082019050612d686000830188612b2b565b612d756020830187612cbf565b612d826040830186612cbf565b612d8f6060830185612cbf565b612d9c6080830184612cbf565b9695505050505050565b6000602082019050612dbb6000830184612b3a565b92915050565b60006020820190508181036000830152612ddb8184612b82565b905092915050565b60006020820190508181036000830152612dfc81612bbb565b9050919050565b60006020820190508181036000830152612e1c81612bde565b9050919050565b60006020820190508181036000830152612e3c81612c01565b9050919050565b60006020820190508181036000830152612e5c81612c24565b9050919050565b60006020820190508181036000830152612e7c81612c47565b9050919050565b60006020820190508181036000830152612e9c81612c6a565b9050919050565b60006020820190508181036000830152612ebc81612c8d565b9050919050565b6000602082019050612ed86000830184612cbf565b92915050565b600060a082019050612ef36000830188612cbf565b612f006020830187612cdd565b612f0d6040830186612cce565b612f1a6060830185612cce565b612f276080830184612cb0565b9695505050505050565b600081519050919050565b600081519050919050565b600082825260208201905092915050565b600082825260208201905092915050565b6000612f7482613100565b9150612f7f83613100565b92508261ffff03821115612f9657612f95613233565b5b828201905092915050565b6000612fac8261312e565b9150612fb78361312e565b9250827fffffffffffffffffffffffffffffffffffffffffffffffffffffffffffffffff03821115612fec57612feb613233565b5b828201905092915050565b60006130028261312e565b915061300d8361312e565b92508261301d5761301c613262565b5b828204905092915050565b60006130338261312e565b915061303e8361312e565b9250817fffffffffffffffffffffffffffffffffffffffffffffffffffffffffffffffff048311821515161561307757613076613233565b5b828202905092915050565b600061308d8261312e565b91506130988361312e565b9250828210156130ab576130aa613233565b5b828203905092915050565b60006130c18261310e565b9050919050565b60008115159050919050565b60007fffffffff0000000000000000000000000000000000000000000000000000000082169050919050565b600061ffff82169050919050565b600073ffffffffffffffffffffffffffffffffffffffff82169050919050565b6000819050919050565b600063ffffffff82169050919050565b600067ffffffffffffffff82169050919050565b60005b8381101561317a57808201518184015260208101905061315f565b83811115613189576000848401525b50505050565b600061319a8261312e565b915060008214156131ae576131ad613233565b5b600182039050919050565b60006131c48261312e565b91507fffffffffffffffffffffffffffffffffffffffffffffffffffffffffffffffff8214156131f7576131f6613233565b5b600182019050919050565b600061320d8261312e565b91506132188361312e565b92508261322857613227613262565b5b828206905092915050565b7f4e487b7100000000000000000000000000000000000000000000000000000000600052601160045260246000fd5b7f4e487b7100000000000000000000000000000000000000000000000000000000600052601260045260246000fd5b6000601f19601f8301169050919050565b7f5061757361626c653a206e6f7420706175736564000000000000000000000000600082015250565b7f4f776e61626c653a206e6577206f776e657220697320746865207a65726f206160008201527f6464726573730000000000000000000000000000000000000000000000000000602082015250565b7f5061757361626c653a2070617573656400000000000000000000000000000000600082015250565b7f596f7520617265206e6f7420746865206f776e6572206f662074686520746f6b60008201527f656e496400000000000000000000000000000000000000000000000000000000602082015250565b7f4f776e61626c653a2063616c6c6572206973206e6f7420746865206f776e6572600082015250565b7f74686520746f6b656e494420646f6573206e6f74206578697374000000000000600082015250565b7f6d73672e73656e646572206973206e6f7420746865206f776e65720000000000600082015250565b613416816130b6565b811461342157600080fd5b50565b61342d816130c8565b811461343857600080fd5b50565b613444816130d4565b811461344f57600080fd5b50565b61345b8161312e565b811461346657600080fd5b5056fea26469706673582212206b6850bb8fa9121a232ae2aa68651ea84e934af9f24671903dda625c5072a7b764736f6c63430008040033",
  "immutableReferences": {},
  "source": "//SPDX-License-Identifier: MIT\r\npragma solidity ^0.8.4;\r\nimport \"../node_modules/@openzeppelin/contracts/token/ERC721/IERC721Receiver.sol\";\r\nimport \"../node_modules/@openzeppelin/contracts/token/ERC721/IERC721.sol\";\r\nimport \"../node_modules/@openzeppelin/contracts/utils/math/SafeMath.sol\";\r\nimport \"../node_modules/@openzeppelin/contracts/access/Ownable.sol\";\r\nimport \"../node_modules/@openzeppelin/contracts/security/Pausable.sol\";\r\n\r\n\r\ncontract KittyContract is IERC721,Ownable, Pausable {\r\n    using SafeMath for uint256;\r\n    \r\n    event Birth(\r\n        address owner, \r\n        uint256 kittenId, \r\n        uint256 mumId, \r\n        uint256 dadId, \r\n        uint256 genes\r\n    );\r\n \r\n    mapping (address => uint256) private ownershipTokenCount;\r\n    mapping (uint256 => address) private ownershipTokenID;\r\n    mapping (uint256 => address) private kittyIndexToApproved;\r\n    mapping (address => mapping(address => bool)) private _operatorApprovals; \r\n\r\n    \r\n    string  constant  private tName = 'Carlos Kitty Token';\r\n    string  constant private tSymbol = 'CKT';\r\n    bytes4 internal constant MAGIC_ERC721_RECEIVED = bytes4(keccak256(\"onERC721Received(address,address,uint256,bytes)\")); // from IERC721 interface\r\n\r\n    struct Kitty {\r\n        uint256 genes;\r\n        uint64 birthTime;\r\n        uint32 mumId;\r\n        uint32 dadId;\r\n        uint16 generation;\r\n    }\r\n    Kitty[] kitties;\r\n\r\n    function pause() external  onlyOwner whenNotPaused {\r\n        _pause();\r\n    }\r\n\r\n    function unpause() external   onlyOwner whenPaused {\r\n        _unpause();\r\n    }\r\n\r\n    function supportsInterface(bytes4 interfaceId) external pure override  returns(bool){ // FOR ERC765\r\n        return interfaceId == type(IERC165).interfaceId;\r\n    }\r\n\r\n    function breed(uint256 _dadId, uint256 _mumId) public whenNotPaused  {\r\n        require(_dadId < kitties.length &&_mumId < kitties.length);\r\n        require(ownershipTokenID[_dadId]==  msg.sender && ownershipTokenID[_mumId]== msg.sender); // check ownership \r\n        uint256 dadDna = kitties[_dadId].genes; // you got the DNA \r\n        uint256 mumDna = kitties[_mumId].genes;\r\n        uint256 newGen;  // figure out the generation\r\n        if(kitties[_dadId].generation >= kitties[_mumId].generation){\r\n            newGen = kitties[_dadId].generation + 1;\r\n        }\r\n        else \r\n        {\r\n            newGen = kitties[_mumId].generation + 1;\r\n        }\r\n        uint256 newDna= _mixDna(dadDna, mumDna);\r\n        _createKitty(_mumId, _dadId, newGen,newDna, msg.sender); // create a new cat with te new properties, give it to the msg.sender   \r\n    }\r\n\r\n    function balanceOf(address owner) external view override whenNotPaused returns (uint256 balance){\r\n        return ownershipTokenCount[owner];\r\n    }\r\n\r\n    function totalSupply() external view whenNotPaused returns (uint256 total) {\r\n        return kitties.length;\r\n    }\r\n\r\n    function name() external pure  returns (string memory tokenName) {\r\n        return tName;\r\n    }\r\n\r\n    function symbol() external pure  returns (string memory tokenSymbol) {\r\n        return tSymbol;\r\n    }\r\n\r\n    function ownerOf(uint256 tokenId) external view override whenNotPaused returns (address owner) {\r\n        return ownershipTokenID[tokenId];\r\n    }\r\n\r\n    function transfer(address to, uint256 tokenId) external  payable whenNotPaused {\r\n        require(to != address(0)); //`to` cannot be the zero address.\r\n        require(to != address(this)); // to` can not be the contract address.\r\n        require(_owns(msg.sender, tokenId));    // tokenId` token must be owned by `msg.sender`\r\n        _transfer(msg.sender, to, tokenId);\r\n        emit Transfer(msg.sender, to, tokenId); // Emits a {Transfer} event.\r\n    }\r\n\r\n    function _transfer(address _from, address _to, uint256 _tokenId) internal {\r\n        ownershipTokenCount[_to]++;\r\n        ownershipTokenID[_tokenId] = _to;       \r\n        if (_from != address(0)) {\r\n            ownershipTokenCount[_from]--;\r\n            delete kittyIndexToApproved[_tokenId];\r\n        }\r\n        emit Transfer(_from, _to, _tokenId);\r\n    }\r\n\r\n    function _owns(address _claimant, uint256 _tokenId) internal view returns (bool) {\r\n      return ownershipTokenID[_tokenId] == _claimant;\r\n    }\r\n\r\n    function _createKitty(\r\n        uint256 _mumId,\r\n        uint256 _dadId,\r\n        uint256 _generation,\r\n        uint256 _genes,\r\n        address _owner\r\n    ) private returns (uint256) {\r\n        Kitty memory _kitty = Kitty({\r\n            genes: _genes,\r\n            birthTime: uint64(block.timestamp),\r\n            mumId: uint32(_mumId),\r\n            dadId: uint32(_dadId),\r\n            generation: uint16(_generation)\r\n        });\r\n        kitties.push(_kitty);\r\n        uint256 newKittenId = kitties.length - 1;\r\n        emit Birth(_owner, newKittenId, _mumId, _dadId, _genes);\r\n        _transfer(address(0), _owner, newKittenId);\r\n        return newKittenId;\r\n    }\r\n\r\n    function createKittyGen0(uint256 genes) onlyOwner  public payable whenNotPaused returns (uint256) { \r\n        return _createKitty(0, 0, 0, genes, msg.sender);\r\n    }\r\n\r\n    function getKitty(uint256 kittyId) public view whenNotPaused returns(uint256, uint64, uint32, uint32, uint16){\r\n             return (kitties[kittyId].genes, kitties[kittyId].birthTime, kitties[kittyId].mumId,\r\n             kitties[kittyId].dadId, kitties[kittyId].generation); \r\n    }\r\n\r\n    function approve(address _approved, uint256 _tokenId) external override whenNotPaused{\r\n        require(_owns(msg.sender, _tokenId),\"msg.sender is not the owner\");\r\n        kittyIndexToApproved[_tokenId] = _approved;\r\n        emit Approval(msg.sender, _approved, _tokenId);\r\n    }\r\n\r\n    function approve(address _approved, uint256 _tokenId, address from) external whenNotPaused {\r\n        require(_owns(from, _tokenId),\"msg.sender is not the owner\");\r\n        kittyIndexToApproved[_tokenId] = _approved;\r\n        emit Approval(msg.sender, _approved, _tokenId);\r\n    }\r\n    \r\n    function getApproved(uint256 _tokenId) external view override whenNotPaused  returns (address) {\r\n        require(ownershipTokenID[_tokenId]== msg.sender, \"You are not the owner of the tokenId\");\r\n        require(_tokenId < kitties.length, \"the tokenID does not exist\");    \r\n        return kittyIndexToApproved[_tokenId];\r\n    }\r\n    \r\n    function setApprovalForAll(address _operator, bool _approved) external override whenNotPaused {\r\n        require(_operator != msg.sender);\r\n        _operatorApprovals[msg.sender][_operator] = _approved;\r\n        emit ApprovalForAll(msg.sender, _operator,_approved);\r\n    }\r\n    \r\n    function isApprovedForAll(address _owner, address _operator) external view override whenNotPaused returns (bool) {\r\n         return _operatorApprovals[_owner][_operator];\r\n    }\r\n\r\n    function transferFrom(address _from, address _to, uint256 _tokenId) external override whenNotPaused {\r\n        require(_to != address(0)); \r\n        //require(_to != address(this)); \r\n        require(_owns(msg.sender, _tokenId) || kittyIndexToApproved[_tokenId] == msg.sender || _operatorApprovals[_from][msg.sender] == true);\r\n        //Throws unless `msg.sender` is the current owner or is the approved address for this NFT or  is an authorized operator\r\n        require(_owns(_from, _tokenId)); //Throws if `_from` is not the current owner\r\n        require(_tokenId < kitties.length, \"the tokenID does not exist\"); \r\n        _transfer(_from,  _to,  _tokenId);\r\n    }\r\n\r\n    function safeTransferFrom(address _from, address _to, uint256 _tokenId, bytes calldata data) external override whenNotPaused{\r\n        require(_owns(msg.sender, _tokenId) || kittyIndexToApproved[_tokenId] == msg.sender || _operatorApprovals[_from][msg.sender] == true);\r\n        require(_owns(_from, _tokenId));\r\n        require(_to != address(0));\r\n        require(_tokenId < kitties.length, \"the tokenID does not exist\");\r\n        _SafeTransferFrom(_from, _to, _tokenId, data);\r\n    }\r\n\r\n    function safeTransferFrom(address _from, address _to, uint256 _tokenId) external override whenNotPaused{\r\n        require(_owns(msg.sender, _tokenId) || kittyIndexToApproved[_tokenId] == msg.sender || _operatorApprovals[_from][msg.sender] == true);\r\n        require(_owns(_from, _tokenId));\r\n        require(_to != address(0));\r\n        require(_tokenId < kitties.length, \"the tokenID does not exist\");\r\n        _SafeTransferFrom(_from, _to, _tokenId, '0');\r\n    }\r\n\r\n    function _SafeTransferFrom(address _from, address _to, uint256 _tokenId, bytes memory _data) internal {\r\n        _transfer(_from, _to, _tokenId);\r\n        require(_checkERC721Support(_from, _to, _tokenId, _data));\r\n    }\r\n\r\n    function _checkERC721Support(address _from, address _to, uint256 _tokenId, bytes memory _data) internal returns(bool){\r\n        if(!_isContract(_to)){ // if the address is not a contract is easy otherwise you need to know if this contract can manipulate ERC721 tokens\r\n            return true;    \r\n        }\r\n        bytes4 returnData = IERC721Receiver(_to).onERC721Received(msg.sender, _from, _tokenId, _data); // call onERC721Received() function(in ERC721 you must include this function) on IERC721Receiver contract\r\n        return returnData == MAGIC_ERC721_RECEIVED;\r\n    }\r\n\r\n    function _isContract(address _to) internal view returns (bool){\r\n        uint32 size; \r\n        assembly { // only to talk directly.  machine code \r\n            size := extcodesize(_to) // gets the size \r\n        }\r\n        return size > 0; // for a contract must be > 0 \r\n    }\r\n\r\n    function _mixDna(uint256 _dadDna, uint256 _mumDna) internal pure returns (uint256){\r\n        uint256 mod= 10000000000000000;\r\n        uint256 div= 100000000000000;\r\n        uint256 newDna= 0;\r\n        uint i;\r\n\r\n        for (i=1; i<=8; i++){\r\n            if(i%2==0) {// _dadDna wins \r\n            newDna = (newDna*100)+((_dadDna%mod)/div);\r\n            }\r\n            else { // _mumDna wins\r\n            newDna = (newDna*100)+((_mumDna%mod)/div);\r\n            }\r\n            mod = mod/100;\r\n            div = div/100;\r\n        }\r\n        return newDna;\r\n    }\r\n        \r\n}   \r\n",
  "sourcePath": "E:/Importante/Programas creados imagenes iso etc/Programas blockchain/Ethereum Truffle/Kitties_project/contracts/KittyContract.sol",
  "compiler": {
    "name": "solc",
    "version": "0.8.4+commit.c7e474f2.Emscripten.clang"
  },
  "schemaVersion": "3.3.4",
  "updatedAt": "2021-08-24T20:37:20.400Z",
  "networkType": "ethereum",
  "devdoc": {
    "kind": "dev",
    "methods": {
      "balanceOf(address)": {
        "details": "Returns the number of tokens in ``owner``'s account."
      },
      "owner()": {
        "details": "Returns the address of the current owner."
      },
      "ownerOf(uint256)": {
        "details": "Returns the owner of the `tokenId` token. Requirements: - `tokenId` must exist."
      },
      "paused()": {
        "details": "Returns true if the contract is paused, and false otherwise."
      },
      "renounceOwnership()": {
        "details": "Leaves the contract without owner. It will not be possible to call `onlyOwner` functions anymore. Can only be called by the current owner. NOTE: Renouncing ownership will leave the contract without an owner, thereby removing any functionality that is only available to the owner."
      },
      "supportsInterface(bytes4)": {
        "details": "Returns true if this contract implements the interface defined by `interfaceId`. See the corresponding https://eips.ethereum.org/EIPS/eip-165#how-interfaces-are-identified[EIP section] to learn more about how these ids are created. This function call must use less than 30 000 gas."
      },
      "transferOwnership(address)": {
        "details": "Transfers ownership of the contract to a new account (`newOwner`). Can only be called by the current owner."
      }
    },
    "version": 1
  },
  "userdoc": {
    "kind": "user",
    "methods": {},
    "version": 1
  }
}