{
  "contractName": "KittyContract",
  "abi": [
    {
      "anonymous": false,
      "inputs": [
        {
          "indexed": true,
          "internalType": "address",
          "name": "owner",
          "type": "address"
        },
        {
          "indexed": true,
          "internalType": "address",
          "name": "approved",
          "type": "address"
        },
        {
          "indexed": true,
          "internalType": "uint256",
          "name": "tokenId",
          "type": "uint256"
        }
      ],
      "name": "Approval",
      "type": "event"
    },
    {
      "anonymous": false,
      "inputs": [
        {
          "indexed": false,
          "internalType": "address",
          "name": "owner",
          "type": "address"
        },
        {
          "indexed": false,
          "internalType": "uint256",
          "name": "kittenId",
          "type": "uint256"
        },
        {
          "indexed": false,
          "internalType": "uint256",
          "name": "mumId",
          "type": "uint256"
        },
        {
          "indexed": false,
          "internalType": "uint256",
          "name": "dadId",
          "type": "uint256"
        },
        {
          "indexed": false,
          "internalType": "uint256",
          "name": "genes",
          "type": "uint256"
        }
      ],
      "name": "Birth",
      "type": "event"
    },
    {
      "anonymous": false,
      "inputs": [
        {
          "indexed": true,
          "internalType": "address",
          "name": "from",
          "type": "address"
        },
        {
          "indexed": true,
          "internalType": "address",
          "name": "to",
          "type": "address"
        },
        {
          "indexed": true,
          "internalType": "uint256",
          "name": "tokenId",
          "type": "uint256"
        }
      ],
      "name": "Transfer",
      "type": "event"
    },
    {
      "inputs": [],
      "name": "close",
      "outputs": [],
      "stateMutability": "nonpayable",
      "type": "function"
    },
    {
      "inputs": [
        {
          "internalType": "address",
          "name": "owner",
          "type": "address"
        }
      ],
      "name": "balanceOf",
      "outputs": [
        {
          "internalType": "uint256",
          "name": "balance",
          "type": "uint256"
        }
      ],
      "stateMutability": "view",
      "type": "function",
      "constant": true
    },
    {
      "inputs": [],
      "name": "totalSupply",
      "outputs": [
        {
          "internalType": "uint256",
          "name": "total",
          "type": "uint256"
        }
      ],
      "stateMutability": "view",
      "type": "function",
      "constant": true
    },
    {
      "inputs": [],
      "name": "name",
      "outputs": [
        {
          "internalType": "string",
          "name": "tokenName",
          "type": "string"
        }
      ],
      "stateMutability": "view",
      "type": "function",
      "constant": true
    },
    {
      "inputs": [],
      "name": "symbol",
      "outputs": [
        {
          "internalType": "string",
          "name": "tokenSymbol",
          "type": "string"
        }
      ],
      "stateMutability": "view",
      "type": "function",
      "constant": true
    },
    {
      "inputs": [
        {
          "internalType": "uint256",
          "name": "tokenId",
          "type": "uint256"
        }
      ],
      "name": "ownerOf",
      "outputs": [
        {
          "internalType": "address",
          "name": "owner",
          "type": "address"
        }
      ],
      "stateMutability": "view",
      "type": "function",
      "constant": true
    },
    {
      "inputs": [
        {
          "internalType": "address",
          "name": "to",
          "type": "address"
        },
        {
          "internalType": "uint256",
          "name": "tokenId",
          "type": "uint256"
        }
      ],
      "name": "transfer",
      "outputs": [],
      "stateMutability": "payable",
      "type": "function",
      "payable": true
    },
    {
      "inputs": [
        {
          "internalType": "uint256",
          "name": "genes",
          "type": "uint256"
        }
      ],
      "name": "createKittyGen0",
      "outputs": [
        {
          "internalType": "uint256",
          "name": "",
          "type": "uint256"
        }
      ],
      "stateMutability": "payable",
      "type": "function",
      "payable": true
    },
    {
      "inputs": [
        {
          "internalType": "uint256",
          "name": "kittyId",
          "type": "uint256"
        }
      ],
      "name": "getKitty",
      "outputs": [
        {
          "internalType": "uint256",
          "name": "",
          "type": "uint256"
        },
        {
          "internalType": "uint64",
          "name": "",
          "type": "uint64"
        },
        {
          "internalType": "uint32",
          "name": "",
          "type": "uint32"
        },
        {
          "internalType": "uint32",
          "name": "",
          "type": "uint32"
        },
        {
          "internalType": "uint16",
          "name": "",
          "type": "uint16"
        }
      ],
      "stateMutability": "view",
      "type": "function",
      "constant": true
    }
  ],
  "bytecode": "0x608060405234801561001057600080fd5b50336000806101000a81548173ffffffffffffffffffffffffffffffffffffffff021916908373ffffffffffffffffffffffffffffffffffffffff160217905550610ece806100606000396000f3fe6080604052600436106100865760003560e01c806370a082311161005957806370a082311461013557806395d89b4114610172578063a9059cbb1461019d578063d5a776ca146101b9578063e98b7f4d146101e957610086565b806306fdde031461008b57806318160ddd146100b657806343d726d6146100e15780636352211e146100f8575b600080fd5b34801561009757600080fd5b506100a061022a565b6040516100ad9190610c36565b60405180910390f35b3480156100c257600080fd5b506100cb610267565b6040516100d89190610c58565b60405180910390f35b3480156100ed57600080fd5b506100f6610274565b005b34801561010457600080fd5b5061011f600480360381019061011a9190610b1b565b610305565b60405161012c9190610bc8565b60405180910390f35b34801561014157600080fd5b5061015c60048036038101906101579190610ab6565b610342565b6040516101699190610c58565b60405180910390f35b34801561017e57600080fd5b5061018761038b565b6040516101949190610c36565b60405180910390f35b6101b760048036038101906101b29190610adf565b6103c8565b005b6101d360048036038101906101ce9190610b1b565b6104b8565b6040516101e09190610c58565b60405180910390f35b3480156101f557600080fd5b50610210600480360381019061020b9190610b1b565b610529565b604051610221959493929190610c73565b60405180910390f35b60606040518060400160405280601281526020017f4361726c6f73204b6974747920546f6b656e0000000000000000000000000000815250905090565b6000600480549050905090565b60008054906101000a900473ffffffffffffffffffffffffffffffffffffffff1673ffffffffffffffffffffffffffffffffffffffff163373ffffffffffffffffffffffffffffffffffffffff16146102cc57600080fd5b60008054906101000a900473ffffffffffffffffffffffffffffffffffffffff1673ffffffffffffffffffffffffffffffffffffffff16ff5b60006003600083815260200190815260200160002060009054906101000a900473ffffffffffffffffffffffffffffffffffffffff169050919050565b6000600260008373ffffffffffffffffffffffffffffffffffffffff1673ffffffffffffffffffffffffffffffffffffffff168152602001908152602001600020549050919050565b60606040518060400160405280600381526020017f434b540000000000000000000000000000000000000000000000000000000000815250905090565b600073ffffffffffffffffffffffffffffffffffffffff168273ffffffffffffffffffffffffffffffffffffffff16141561040257600080fd5b3073ffffffffffffffffffffffffffffffffffffffff168273ffffffffffffffffffffffffffffffffffffffff16141561043b57600080fd5b6104453382610702565b61044e57600080fd5b61045933838361076e565b808273ffffffffffffffffffffffffffffffffffffffff163373ffffffffffffffffffffffffffffffffffffffff167fddf252ad1be2c89b69c2b068fc378daa952ba7f163c4a11628f55a4df523b3ef60405160405180910390a45050565b60008060009054906101000a900473ffffffffffffffffffffffffffffffffffffffff1673ffffffffffffffffffffffffffffffffffffffff163373ffffffffffffffffffffffffffffffffffffffff161461051357600080fd5b610522600080600085336108ff565b9050919050565b60008060008060006004868154811061056b577f4e487b7100000000000000000000000000000000000000000000000000000000600052603260045260246000fd5b906000526020600020906002020160000154600487815481106105b7577f4e487b7100000000000000000000000000000000000000000000000000000000600052603260045260246000fd5b906000526020600020906002020160010160009054906101000a900467ffffffffffffffff1660048881548110610617577f4e487b7100000000000000000000000000000000000000000000000000000000600052603260045260246000fd5b906000526020600020906002020160010160089054906101000a900463ffffffff1660048981548110610673577f4e487b7100000000000000000000000000000000000000000000000000000000600052603260045260246000fd5b9060005260206000209060020201600101600c9054906101000a900463ffffffff1660048a815481106106cf577f4e487b7100000000000000000000000000000000000000000000000000000000600052603260045260246000fd5b906000526020600020906002020160010160109054906101000a900461ffff169450945094509450945091939590929450565b60008273ffffffffffffffffffffffffffffffffffffffff166003600084815260200190815260200160002060009054906101000a900473ffffffffffffffffffffffffffffffffffffffff1673ffffffffffffffffffffffffffffffffffffffff1614905092915050565b600260008373ffffffffffffffffffffffffffffffffffffffff1673ffffffffffffffffffffffffffffffffffffffff16815260200190815260200160002060008154809291906107be90610de1565b9190505550816003600083815260200190815260200160002060006101000a81548173ffffffffffffffffffffffffffffffffffffffff021916908373ffffffffffffffffffffffffffffffffffffffff160217905550600073ffffffffffffffffffffffffffffffffffffffff168373ffffffffffffffffffffffffffffffffffffffff161461089f57600260008473ffffffffffffffffffffffffffffffffffffffff1673ffffffffffffffffffffffffffffffffffffffff168152602001908152602001600020600081548092919061089990610db7565b91905055505b808273ffffffffffffffffffffffffffffffffffffffff168473ffffffffffffffffffffffffffffffffffffffff167fddf252ad1be2c89b69c2b068fc378daa952ba7f163c4a11628f55a4df523b3ef60405160405180910390a4505050565b6000806040518060a001604052808581526020014267ffffffffffffffff1681526020018863ffffffff1681526020018763ffffffff1681526020018661ffff16815250905060048190806001815401808255809150506001900390600052602060002090600202016000909190919091506000820151816000015560208201518160010160006101000a81548167ffffffffffffffff021916908367ffffffffffffffff16021790555060408201518160010160086101000a81548163ffffffff021916908363ffffffff160217905550606082015181600101600c6101000a81548163ffffffff021916908363ffffffff16021790555060808201518160010160106101000a81548161ffff021916908361ffff160217905550505060006001600480549050610a319190610ce2565b90507f0a5311bd2a6608f08a180df2ee7c5946819a649b204b554bb8e39825b2c50ad584828a8a89604051610a6a959493929190610be3565b60405180910390a1610a7e6000858361076e565b809250505095945050505050565b600081359050610a9b81610e6a565b92915050565b600081359050610ab081610e81565b92915050565b600060208284031215610ac857600080fd5b6000610ad684828501610a8c565b91505092915050565b60008060408385031215610af257600080fd5b6000610b0085828601610a8c565b9250506020610b1185828601610aa1565b9150509250929050565b600060208284031215610b2d57600080fd5b6000610b3b84828501610aa1565b91505092915050565b610b4d81610d16565b82525050565b6000610b5e82610cc6565b610b688185610cd1565b9350610b78818560208601610d84565b610b8181610e59565b840191505092915050565b610b9581610d28565b82525050565b610ba481610d56565b82525050565b610bb381610d60565b82525050565b610bc281610d70565b82525050565b6000602082019050610bdd6000830184610b44565b92915050565b600060a082019050610bf86000830188610b44565b610c056020830187610b9b565b610c126040830186610b9b565b610c1f6060830185610b9b565b610c2c6080830184610b9b565b9695505050505050565b60006020820190508181036000830152610c508184610b53565b905092915050565b6000602082019050610c6d6000830184610b9b565b92915050565b600060a082019050610c886000830188610b9b565b610c956020830187610bb9565b610ca26040830186610baa565b610caf6060830185610baa565b610cbc6080830184610b8c565b9695505050505050565b600081519050919050565b600082825260208201905092915050565b6000610ced82610d56565b9150610cf883610d56565b925082821015610d0b57610d0a610e2a565b5b828203905092915050565b6000610d2182610d36565b9050919050565b600061ffff82169050919050565b600073ffffffffffffffffffffffffffffffffffffffff82169050919050565b6000819050919050565b600063ffffffff82169050919050565b600067ffffffffffffffff82169050919050565b60005b83811015610da2578082015181840152602081019050610d87565b83811115610db1576000848401525b50505050565b6000610dc282610d56565b91506000821415610dd657610dd5610e2a565b5b600182039050919050565b6000610dec82610d56565b91507fffffffffffffffffffffffffffffffffffffffffffffffffffffffffffffffff821415610e1f57610e1e610e2a565b5b600182019050919050565b7f4e487b7100000000000000000000000000000000000000000000000000000000600052601160045260246000fd5b6000601f19601f8301169050919050565b610e7381610d16565b8114610e7e57600080fd5b50565b610e8a81610d56565b8114610e9557600080fd5b5056fea264697066735822122004b4643e60a25c94f6464cab41e3d5ad9c0a69d4d12709fb49bcbbeb28a740ca64736f6c63430008040033",
  "immutableReferences": {},
  "source": "//SPDX-License-Identifier: MIT\r\npragma solidity ^0.8.4;\r\nimport \"./IERC721.sol\";\r\nimport \"./Ownable.sol\";\r\n//import \"../node_modules/@openzeppelin/contracts/token/ERC721/IERC721.sol\";\r\nimport \"../node_modules/@openzeppelin/contracts/utils/math/SafeMath.sol\";\r\n\r\ncontract KittyContract is IERC721,Ownable {\r\n    using SafeMath for uint256;\r\n\r\n    event Birth(\r\n        address owner, \r\n        uint256 kittenId, \r\n        uint256 mumId, \r\n        uint256 dadId, \r\n        uint256 genes\r\n    );\r\n    mapping (uint256 => uint256[]) private catFullGenes;\r\n    mapping (address => uint256) private ownershipTokenCount;\r\n    mapping (uint256 => address) private ownershipTokenID;\r\n\r\n    string  constant  private tName = 'Carlos Kitty Token';\r\n    string  constant private tSymbol = 'CKT';\r\n\r\n    struct Kitty {\r\n        uint256 genes;\r\n        uint64 birthTime;\r\n        uint32 mumId;\r\n        uint32 dadId;\r\n        uint16 generation;\r\n    }\r\n    Kitty[] kitties;\r\n\r\n    function close() public onlyOwner { \r\n        selfdestruct(owner);  \r\n    }\r\n\r\n    function balanceOf(address owner) external view override returns (uint256 balance){\r\n        return ownershipTokenCount[owner];\r\n    }\r\n\r\n    function totalSupply() external view override returns (uint256 total) {\r\n        return kitties.length;\r\n    }\r\n\r\n    function name() external view override returns (string memory tokenName) {\r\n        return tName;\r\n    }\r\n\r\n    function symbol() external view override returns (string memory tokenSymbol) {\r\n        return tSymbol;\r\n    }\r\n\r\n    function ownerOf(uint256 tokenId) external view override returns (address owner) {\r\n        return ownershipTokenID[tokenId];\r\n    }\r\n\r\n    function transfer(address to, uint256 tokenId) external override  payable {\r\n        require(to != address(0)); //`to` cannot be the zero address.\r\n        require(to != address(this)); // to` can not be the contract address.\r\n        require(_owns(msg.sender, tokenId));    // tokenId` token must be owned by `msg.sender`\r\n        _transfer(msg.sender, to, tokenId);\r\n        emit Transfer(msg.sender, to, tokenId); // Emits a {Transfer} event.\r\n    }\r\n\r\n    function _transfer(address _from, address _to, uint256 _tokenId) internal {\r\n        ownershipTokenCount[_to]++;\r\n        ownershipTokenID[_tokenId] = _to;       \r\n        if (_from != address(0)) {\r\n            ownershipTokenCount[_from]--;\r\n        }\r\n        emit Transfer(_from, _to, _tokenId);\r\n    }\r\n\r\n    function _owns(address _claimant, uint256 _tokenId) internal view returns (bool) {\r\n      return ownershipTokenID[_tokenId] == _claimant;\r\n    }\r\n\r\n    function _createKitty(\r\n        uint256 _mumId,\r\n        uint256 _dadId,\r\n        uint256 _generation,\r\n        uint256 _genes,\r\n        address _owner\r\n    ) private returns (uint256) {\r\n        Kitty memory _kitty = Kitty({\r\n            genes: _genes,\r\n            birthTime: uint64(block.timestamp),\r\n            mumId: uint32(_mumId),\r\n            dadId: uint32(_dadId),\r\n            generation: uint16(_generation)\r\n        });\r\n        kitties.push(_kitty);\r\n        uint256 newKittenId = kitties.length - 1;\r\n        emit Birth(_owner, newKittenId, _mumId, _dadId, _genes);\r\n        _transfer(address(0), _owner, newKittenId);\r\n        return newKittenId;\r\n    }\r\n\r\n    function createKittyGen0(uint256 genes) onlyOwner  public payable returns (uint256) { \r\n        return _createKitty(0, 0, 0, genes, msg.sender);\r\n    }\r\n\r\n    function getKitty(uint256 kittyId) public view returns(uint256, uint64, uint32, uint32, uint16){\r\n             return (kitties[kittyId].genes, kitties[kittyId].birthTime, kitties[kittyId].mumId,\r\n             kitties[kittyId].dadId, kitties[kittyId].generation); \r\n    }\r\n}\r\n",
  "sourcePath": "E:/Importante/Programas creados imagenes iso etc/Programas blockchain/Ethereum Truffle/Kitties_project/contracts/KittyContract.sol",
  "compiler": {
    "name": "solc",
    "version": "0.8.4+commit.c7e474f2.Emscripten.clang"
  },
  "schemaVersion": "3.3.4",
  "updatedAt": "2021-05-22T23:13:12.086Z",
  "networkType": "ethereum",
  "devdoc": {
    "kind": "dev",
    "methods": {
      "balanceOf(address)": {
        "details": "Returns the number of tokens in ``owner``'s account."
      },
      "ownerOf(uint256)": {
        "details": "Returns the owner of the `tokenId` token. Requirements: - `tokenId` must exist."
      }
    },
    "version": 1
  },
  "userdoc": {
    "kind": "user",
    "methods": {},
    "version": 1
  }
}