{
  "contractName": "kittyContract",
  "abi": [
    {
      "inputs": [],
      "stateMutability": "nonpayable",
      "type": "constructor"
    },
    {
      "anonymous": false,
      "inputs": [
        {
          "indexed": true,
          "internalType": "address",
          "name": "owner",
          "type": "address"
        },
        {
          "indexed": true,
          "internalType": "address",
          "name": "approved",
          "type": "address"
        },
        {
          "indexed": true,
          "internalType": "uint256",
          "name": "tokenId",
          "type": "uint256"
        }
      ],
      "name": "Approval",
      "type": "event"
    },
    {
      "anonymous": false,
      "inputs": [
        {
          "indexed": true,
          "internalType": "address",
          "name": "from",
          "type": "address"
        },
        {
          "indexed": true,
          "internalType": "address",
          "name": "to",
          "type": "address"
        },
        {
          "indexed": true,
          "internalType": "uint256",
          "name": "tokenId",
          "type": "uint256"
        }
      ],
      "name": "Transfer",
      "type": "event"
    },
    {
      "inputs": [
        {
          "internalType": "address",
          "name": "owner",
          "type": "address"
        }
      ],
      "name": "balanceOf",
      "outputs": [
        {
          "internalType": "uint256",
          "name": "balance",
          "type": "uint256"
        }
      ],
      "stateMutability": "view",
      "type": "function",
      "constant": true
    },
    {
      "inputs": [],
      "name": "totalSupply",
      "outputs": [
        {
          "internalType": "uint256",
          "name": "total",
          "type": "uint256"
        }
      ],
      "stateMutability": "view",
      "type": "function",
      "constant": true
    },
    {
      "inputs": [],
      "name": "name",
      "outputs": [
        {
          "internalType": "string",
          "name": "tokenName",
          "type": "string"
        }
      ],
      "stateMutability": "view",
      "type": "function",
      "constant": true
    },
    {
      "inputs": [],
      "name": "symbol",
      "outputs": [
        {
          "internalType": "string",
          "name": "tokenSymbol",
          "type": "string"
        }
      ],
      "stateMutability": "view",
      "type": "function",
      "constant": true
    },
    {
      "inputs": [
        {
          "internalType": "uint256",
          "name": "tokenId",
          "type": "uint256"
        }
      ],
      "name": "ownerOf",
      "outputs": [
        {
          "internalType": "address",
          "name": "owner",
          "type": "address"
        }
      ],
      "stateMutability": "view",
      "type": "function",
      "constant": true
    },
    {
      "inputs": [
        {
          "internalType": "address",
          "name": "to",
          "type": "address"
        },
        {
          "internalType": "uint256",
          "name": "tokenId",
          "type": "uint256"
        }
      ],
      "name": "transfer",
      "outputs": [],
      "stateMutability": "payable",
      "type": "function",
      "payable": true
    }
  ],
  "bytecode": "0x608060405234801561001057600080fd5b506000803373ffffffffffffffffffffffffffffffffffffffff1673ffffffffffffffffffffffffffffffffffffffff168152602001908152602001600020600081548092919061006090610117565b919050555033600160006001815260200190815260200160002060006101000a81548173ffffffffffffffffffffffffffffffffffffffff021916908373ffffffffffffffffffffffffffffffffffffffff160217905550600061045790506000604051806020016040528083815250905060028190806001815401808255809150506001900390600052602060002001600090919091909150600082015181600001555050505061018f565b6000819050919050565b60006101228261010d565b91507fffffffffffffffffffffffffffffffffffffffffffffffffffffffffffffffff82141561015557610154610160565b5b600182019050919050565b7f4e487b7100000000000000000000000000000000000000000000000000000000600052601160045260246000fd5b6107ec8061019e6000396000f3fe6080604052600436106100555760003560e01c806306fdde031461005a57806318160ddd146100855780636352211e146100b057806370a08231146100ed57806395d89b411461012a578063a9059cbb14610155575b600080fd5b34801561006657600080fd5b5061006f610171565b60405161007c91906105f6565b60405180910390f35b34801561009157600080fd5b5061009a6101ae565b6040516100a79190610618565b60405180910390f35b3480156100bc57600080fd5b506100d760048036038101906100d2919061055b565b6101bb565b6040516100e491906105db565b60405180910390f35b3480156100f957600080fd5b50610114600480360381019061010f91906104f6565b6101f8565b6040516101219190610618565b60405180910390f35b34801561013657600080fd5b5061013f610240565b60405161014c91906105f6565b60405180910390f35b61016f600480360381019061016a919061051f565b61027d565b005b60606040518060400160405280600b81526020017f4b6974747920546f6b656e000000000000000000000000000000000000000000815250905090565b6000600280549050905090565b60006001600083815260200190815260200160002060009054906101000a900473ffffffffffffffffffffffffffffffffffffffff169050919050565b60008060008373ffffffffffffffffffffffffffffffffffffffff1673ffffffffffffffffffffffffffffffffffffffff168152602001908152602001600020549050919050565b60606040518060400160405280600381526020017f4b54430000000000000000000000000000000000000000000000000000000000815250905090565b600073ffffffffffffffffffffffffffffffffffffffff168273ffffffffffffffffffffffffffffffffffffffff1614156102b757600080fd5b3073ffffffffffffffffffffffffffffffffffffffff168273ffffffffffffffffffffffffffffffffffffffff1614156102f057600080fd5b6102fa3382610460565b61030357600080fd5b60016000803373ffffffffffffffffffffffffffffffffffffffff1673ffffffffffffffffffffffffffffffffffffffff168152602001908152602001600020600082825461035291906106a5565b92505081905550816001600083815260200190815260200160002060006101000a81548173ffffffffffffffffffffffffffffffffffffffff021916908373ffffffffffffffffffffffffffffffffffffffff16021790555060016000808473ffffffffffffffffffffffffffffffffffffffff1673ffffffffffffffffffffffffffffffffffffffff16815260200190815260200160002060008282546103fa919061064f565b92505081905550808273ffffffffffffffffffffffffffffffffffffffff163373ffffffffffffffffffffffffffffffffffffffff167fddf252ad1be2c89b69c2b068fc378daa952ba7f163c4a11628f55a4df523b3ef60405160405180910390a45050565b60008273ffffffffffffffffffffffffffffffffffffffff166001600084815260200190815260200160002060009054906101000a900473ffffffffffffffffffffffffffffffffffffffff1673ffffffffffffffffffffffffffffffffffffffff1614905092915050565b6000813590506104db81610788565b92915050565b6000813590506104f08161079f565b92915050565b60006020828403121561050857600080fd5b6000610516848285016104cc565b91505092915050565b6000806040838503121561053257600080fd5b6000610540858286016104cc565b9250506020610551858286016104e1565b9150509250929050565b60006020828403121561056d57600080fd5b600061057b848285016104e1565b91505092915050565b61058d816106d9565b82525050565b600061059e82610633565b6105a8818561063e565b93506105b8818560208601610715565b6105c181610777565b840191505092915050565b6105d58161070b565b82525050565b60006020820190506105f06000830184610584565b92915050565b600060208201905081810360008301526106108184610593565b905092915050565b600060208201905061062d60008301846105cc565b92915050565b600081519050919050565b600082825260208201905092915050565b600061065a8261070b565b91506106658361070b565b9250827fffffffffffffffffffffffffffffffffffffffffffffffffffffffffffffffff0382111561069a57610699610748565b5b828201905092915050565b60006106b08261070b565b91506106bb8361070b565b9250828210156106ce576106cd610748565b5b828203905092915050565b60006106e4826106eb565b9050919050565b600073ffffffffffffffffffffffffffffffffffffffff82169050919050565b6000819050919050565b60005b83811015610733578082015181840152602081019050610718565b83811115610742576000848401525b50505050565b7f4e487b7100000000000000000000000000000000000000000000000000000000600052601160045260246000fd5b6000601f19601f8301169050919050565b610791816106d9565b811461079c57600080fd5b50565b6107a88161070b565b81146107b357600080fd5b5056fea2646970667358221220f7a18a9b7d82e82871538aff757d22fbea0217362baa6d48122e08681948c6ef64736f6c63430008040033",
  "immutableReferences": {},
  "source": "//SPDX-License-Identifier: MIT\r\n//pragma solidity >=0.4.22 <0.9.0\r\npragma solidity ^0.8.4;\r\nimport \"./IERC721.sol\";\r\n//import \"../node_modules/@openzeppelin/contracts/token/ERC721/IERC721.sol\";\r\nimport \"../node_modules/@openzeppelin/contracts/utils/math/SafeMath.sol\";\r\n\r\ncontract kittyContract is IERC721 {\r\n    using SafeMath for uint256;\r\n\r\n    constructor(){ // assign the first kitty to the person who deploy the contract \r\n        ownershipTokenCount[msg.sender] ++;\r\n        ownershipTokenID[1] = msg.sender;\r\n        uint256 firstDNA = 1111;\r\n        Kitty memory _kitty = Kitty({\r\n            DNA: firstDNA\r\n            });\r\n        kitties.push(_kitty);\r\n    }\r\n\r\n    mapping (address => uint256) private ownershipTokenCount;\r\n    mapping (uint256 => address) private ownershipTokenID;\r\n\r\n    string  constant  tName = 'Kitty Token';\r\n    string  constant tSymbol = 'KTC';\r\n\r\n    struct Kitty {\r\n        uint256 DNA;// DNA frontend\r\n    }\r\n    Kitty[] kitties;\r\n\r\n    function balanceOf(address owner) external view override returns (uint256 balance){\r\n        return ownershipTokenCount[owner];\r\n    }\r\n\r\n    function totalSupply() external view override returns (uint256 total) {\r\n        return kitties.length;\r\n    }\r\n\r\n    function name() external view override returns (string memory tokenName) {\r\n        return tName;\r\n    }\r\n\r\n    function symbol() external view override returns (string memory tokenSymbol) {\r\n        return tSymbol;\r\n    }\r\n\r\n    function ownerOf(uint256 tokenId) external view override returns (address owner) {\r\n        return ownershipTokenID[tokenId];\r\n    }\r\n\r\n    function transfer(address to, uint256 tokenId) external override  payable {\r\n        require(to != address(0)); //`to` cannot be the zero address.\r\n        require(to != address(this)); // to` can not be the contract address.\r\n        require(owns(msg.sender, tokenId));    // tokenId` token must be owned by `msg.sender`\r\n        ownershipTokenCount[msg.sender] -= 1;\r\n        ownershipTokenID[tokenId] = to;\r\n        ownershipTokenCount[to] += 1;\r\n        emit Transfer(msg.sender, to, tokenId); // Emits a {Transfer} event.\r\n    }\r\n\r\n    function owns(address claimant, uint256 tokenId) internal view returns (bool) {\r\n      return ownershipTokenID[tokenId] == claimant;\r\n    }\r\n\r\n}",
  "sourcePath": "E:/Importante/Programas creados imagenes iso etc/Programas blockchain/Ethereum Truffle/Kitties_project/contracts/KittyContract.sol",
  "compiler": {
    "name": "solc",
    "version": "0.8.4+commit.c7e474f2.Emscripten.clang"
  },
  "schemaVersion": "3.3.4",
  "updatedAt": "2021-05-22T00:46:30.369Z",
  "networkType": "ethereum",
  "devdoc": {
    "kind": "dev",
    "methods": {
      "balanceOf(address)": {
        "details": "Returns the number of tokens in ``owner``'s account."
      },
      "ownerOf(uint256)": {
        "details": "Returns the owner of the `tokenId` token. Requirements: - `tokenId` must exist."
      }
    },
    "version": 1
  },
  "userdoc": {
    "kind": "user",
    "methods": {},
    "version": 1
  }
}