{
  "contractName": "KittyContract",
  "abi": [
    {
      "anonymous": false,
      "inputs": [
        {
          "indexed": true,
          "internalType": "address",
          "name": "owner",
          "type": "address"
        },
        {
          "indexed": true,
          "internalType": "address",
          "name": "approved",
          "type": "address"
        },
        {
          "indexed": true,
          "internalType": "uint256",
          "name": "tokenId",
          "type": "uint256"
        }
      ],
      "name": "Approval",
      "type": "event"
    },
    {
      "anonymous": false,
      "inputs": [
        {
          "indexed": true,
          "internalType": "address",
          "name": "owner",
          "type": "address"
        },
        {
          "indexed": true,
          "internalType": "address",
          "name": "operator",
          "type": "address"
        },
        {
          "indexed": false,
          "internalType": "bool",
          "name": "approved",
          "type": "bool"
        }
      ],
      "name": "ApprovalForAll",
      "type": "event"
    },
    {
      "anonymous": false,
      "inputs": [
        {
          "indexed": false,
          "internalType": "address",
          "name": "owner",
          "type": "address"
        },
        {
          "indexed": false,
          "internalType": "uint256",
          "name": "kittenId",
          "type": "uint256"
        },
        {
          "indexed": false,
          "internalType": "uint256",
          "name": "mumId",
          "type": "uint256"
        },
        {
          "indexed": false,
          "internalType": "uint256",
          "name": "dadId",
          "type": "uint256"
        },
        {
          "indexed": false,
          "internalType": "uint256",
          "name": "genes",
          "type": "uint256"
        }
      ],
      "name": "Birth",
      "type": "event"
    },
    {
      "anonymous": false,
      "inputs": [
        {
          "indexed": true,
          "internalType": "address",
          "name": "from",
          "type": "address"
        },
        {
          "indexed": true,
          "internalType": "address",
          "name": "to",
          "type": "address"
        },
        {
          "indexed": true,
          "internalType": "uint256",
          "name": "tokenId",
          "type": "uint256"
        }
      ],
      "name": "Transfer",
      "type": "event"
    },
    {
      "inputs": [],
      "name": "close",
      "outputs": [],
      "stateMutability": "nonpayable",
      "type": "function"
    },
    {
      "inputs": [
        {
          "internalType": "uint256",
          "name": "_dadId",
          "type": "uint256"
        },
        {
          "internalType": "uint256",
          "name": "_mumId",
          "type": "uint256"
        }
      ],
      "name": "breed",
      "outputs": [],
      "stateMutability": "nonpayable",
      "type": "function"
    },
    {
      "inputs": [
        {
          "internalType": "address",
          "name": "owner",
          "type": "address"
        }
      ],
      "name": "balanceOf",
      "outputs": [
        {
          "internalType": "uint256",
          "name": "balance",
          "type": "uint256"
        }
      ],
      "stateMutability": "view",
      "type": "function",
      "constant": true
    },
    {
      "inputs": [],
      "name": "totalSupply",
      "outputs": [
        {
          "internalType": "uint256",
          "name": "total",
          "type": "uint256"
        }
      ],
      "stateMutability": "view",
      "type": "function",
      "constant": true
    },
    {
      "inputs": [],
      "name": "name",
      "outputs": [
        {
          "internalType": "string",
          "name": "tokenName",
          "type": "string"
        }
      ],
      "stateMutability": "pure",
      "type": "function",
      "constant": true
    },
    {
      "inputs": [],
      "name": "symbol",
      "outputs": [
        {
          "internalType": "string",
          "name": "tokenSymbol",
          "type": "string"
        }
      ],
      "stateMutability": "pure",
      "type": "function",
      "constant": true
    },
    {
      "inputs": [
        {
          "internalType": "uint256",
          "name": "tokenId",
          "type": "uint256"
        }
      ],
      "name": "ownerOf",
      "outputs": [
        {
          "internalType": "address",
          "name": "owner",
          "type": "address"
        }
      ],
      "stateMutability": "view",
      "type": "function",
      "constant": true
    },
    {
      "inputs": [
        {
          "internalType": "address",
          "name": "to",
          "type": "address"
        },
        {
          "internalType": "uint256",
          "name": "tokenId",
          "type": "uint256"
        }
      ],
      "name": "transfer",
      "outputs": [],
      "stateMutability": "payable",
      "type": "function",
      "payable": true
    },
    {
      "inputs": [
        {
          "internalType": "uint256",
          "name": "genes",
          "type": "uint256"
        }
      ],
      "name": "createKittyGen0",
      "outputs": [
        {
          "internalType": "uint256",
          "name": "",
          "type": "uint256"
        }
      ],
      "stateMutability": "payable",
      "type": "function",
      "payable": true
    },
    {
      "inputs": [
        {
          "internalType": "uint256",
          "name": "kittyId",
          "type": "uint256"
        }
      ],
      "name": "getKitty",
      "outputs": [
        {
          "internalType": "uint256",
          "name": "",
          "type": "uint256"
        },
        {
          "internalType": "uint64",
          "name": "",
          "type": "uint64"
        },
        {
          "internalType": "uint32",
          "name": "",
          "type": "uint32"
        },
        {
          "internalType": "uint32",
          "name": "",
          "type": "uint32"
        },
        {
          "internalType": "uint16",
          "name": "",
          "type": "uint16"
        }
      ],
      "stateMutability": "view",
      "type": "function",
      "constant": true
    },
    {
      "inputs": [
        {
          "internalType": "address",
          "name": "_approved",
          "type": "address"
        },
        {
          "internalType": "uint256",
          "name": "_tokenId",
          "type": "uint256"
        }
      ],
      "name": "approve",
      "outputs": [],
      "stateMutability": "nonpayable",
      "type": "function"
    },
    {
      "inputs": [
        {
          "internalType": "address",
          "name": "_approved",
          "type": "address"
        },
        {
          "internalType": "uint256",
          "name": "_tokenId",
          "type": "uint256"
        },
        {
          "internalType": "address",
          "name": "from",
          "type": "address"
        }
      ],
      "name": "approve",
      "outputs": [],
      "stateMutability": "nonpayable",
      "type": "function"
    },
    {
      "inputs": [
        {
          "internalType": "uint256",
          "name": "_tokenId",
          "type": "uint256"
        }
      ],
      "name": "getApproved",
      "outputs": [
        {
          "internalType": "address",
          "name": "",
          "type": "address"
        }
      ],
      "stateMutability": "view",
      "type": "function",
      "constant": true
    },
    {
      "inputs": [
        {
          "internalType": "address",
          "name": "_operator",
          "type": "address"
        },
        {
          "internalType": "bool",
          "name": "_approved",
          "type": "bool"
        }
      ],
      "name": "setApprovalForAll",
      "outputs": [],
      "stateMutability": "nonpayable",
      "type": "function"
    },
    {
      "inputs": [
        {
          "internalType": "address",
          "name": "_owner",
          "type": "address"
        },
        {
          "internalType": "address",
          "name": "_operator",
          "type": "address"
        }
      ],
      "name": "isApprovedForAll",
      "outputs": [
        {
          "internalType": "bool",
          "name": "",
          "type": "bool"
        }
      ],
      "stateMutability": "view",
      "type": "function",
      "constant": true
    },
    {
      "inputs": [
        {
          "internalType": "address",
          "name": "_from",
          "type": "address"
        },
        {
          "internalType": "address",
          "name": "_to",
          "type": "address"
        },
        {
          "internalType": "uint256",
          "name": "_tokenId",
          "type": "uint256"
        }
      ],
      "name": "transferFrom",
      "outputs": [],
      "stateMutability": "payable",
      "type": "function",
      "payable": true
    },
    {
      "inputs": [
        {
          "internalType": "address",
          "name": "_from",
          "type": "address"
        },
        {
          "internalType": "address",
          "name": "_to",
          "type": "address"
        },
        {
          "internalType": "uint256",
          "name": "_tokenId",
          "type": "uint256"
        }
      ],
      "name": "safeTransferFrom",
      "outputs": [],
      "stateMutability": "nonpayable",
      "type": "function"
    },
    {
      "inputs": [
        {
          "internalType": "address",
          "name": "_from",
          "type": "address"
        },
        {
          "internalType": "address",
          "name": "_to",
          "type": "address"
        },
        {
          "internalType": "uint256",
          "name": "_tokenId",
          "type": "uint256"
        },
        {
          "internalType": "bytes",
          "name": "data",
          "type": "bytes"
        }
      ],
      "name": "safeTransferFrom",
      "outputs": [],
      "stateMutability": "nonpayable",
      "type": "function"
    }
  ],
  "bytecode": "0x608060405234801561001057600080fd5b50336000806101000a81548173ffffffffffffffffffffffffffffffffffffffff021916908373ffffffffffffffffffffffffffffffffffffffff1602179055506127c1806100606000396000f3fe6080604052600436106101095760003560e01c806370a0823111610095578063b88d4fde11610064578063b88d4fde14610339578063d5a776ca14610362578063d9ecad7b14610392578063e985e9c5146103bb578063e98b7f4d146103f857610109565b806370a082311461028c57806395d89b41146102c9578063a22cb465146102f4578063a9059cbb1461031d57610109565b806318160ddd116100dc57806318160ddd146101c857806323b872dd146101f357806342842e0e1461020f57806343d726d6146102385780636352211e1461024f57610109565b806306fdde031461010e578063081812fc14610139578063095ea7b3146101765780631271f09a1461019f575b600080fd5b34801561011a57600080fd5b50610123610439565b604051610130919061222d565b60405180910390f35b34801561014557600080fd5b50610160600480360381019061015b9190611fbe565b610476565b60405161016d9190612158565b60405180910390f35b34801561018257600080fd5b5061019d60048036038101906101989190611f0a565b61059b565b005b3480156101ab57600080fd5b506101c660048036038101906101c19190611f46565b610695565b005b3480156101d457600080fd5b506101dd610790565b6040516101ea91906122af565b60405180910390f35b61020d60048036038101906102089190611dff565b61079d565b005b34801561021b57600080fd5b5061023660048036038101906102319190611dff565b610955565b005b34801561024457600080fd5b5061024d610b43565b005b34801561025b57600080fd5b5061027660048036038101906102719190611fbe565b610bd4565b6040516102839190612158565b60405180910390f35b34801561029857600080fd5b506102b360048036038101906102ae9190611d9a565b610c11565b6040516102c091906122af565b60405180910390f35b3480156102d557600080fd5b506102de610c5a565b6040516102eb919061222d565b60405180910390f35b34801561030057600080fd5b5061031b60048036038101906103169190611ece565b610c97565b005b61033760048036038101906103329190611f0a565b610dcd565b005b34801561034557600080fd5b50610360600480360381019061035b9190611e4e565b610ebd565b005b61037c60048036038101906103779190611fbe565b6110bc565b60405161038991906122af565b60405180910390f35b34801561039e57600080fd5b506103b960048036038101906103b49190611fe7565b61112d565b005b3480156103c757600080fd5b506103e260048036038101906103dd9190611dc3565b611495565b6040516103ef9190612212565b60405180910390f35b34801561040457600080fd5b5061041f600480360381019061041a9190611fbe565b611529565b6040516104309594939291906122ca565b60405180910390f35b60606040518060400160405280601281526020017f4361726c6f73204b6974747920546f6b656e0000000000000000000000000000815250905090565b60003373ffffffffffffffffffffffffffffffffffffffff166002600084815260200190815260200160002060009054906101000a900473ffffffffffffffffffffffffffffffffffffffff1673ffffffffffffffffffffffffffffffffffffffff1614610519576040517f08c379a00000000000000000000000000000000000000000000000000000000081526004016105109061224f565b60405180910390fd5b6005805490508210610560576040517f08c379a00000000000000000000000000000000000000000000000000000000081526004016105579061226f565b60405180910390fd5b6003600083815260200190815260200160002060009054906101000a900473ffffffffffffffffffffffffffffffffffffffff169050919050565b6105a53382611702565b6105e4576040517f08c379a00000000000000000000000000000000000000000000000000000000081526004016105db9061228f565b60405180910390fd5b816003600083815260200190815260200160002060006101000a81548173ffffffffffffffffffffffffffffffffffffffff021916908373ffffffffffffffffffffffffffffffffffffffff160217905550808273ffffffffffffffffffffffffffffffffffffffff163373ffffffffffffffffffffffffffffffffffffffff167f8c5be1e5ebec7d5bd14f71427d1e84f3dd0314c0f7b2291e5b200ac8c7c3b92560405160405180910390a45050565b61069f8183611702565b6106de576040517f08c379a00000000000000000000000000000000000000000000000000000000081526004016106d59061228f565b60405180910390fd5b826003600084815260200190815260200160002060006101000a81548173ffffffffffffffffffffffffffffffffffffffff021916908373ffffffffffffffffffffffffffffffffffffffff160217905550818373ffffffffffffffffffffffffffffffffffffffff163373ffffffffffffffffffffffffffffffffffffffff167f8c5be1e5ebec7d5bd14f71427d1e84f3dd0314c0f7b2291e5b200ac8c7c3b92560405160405180910390a4505050565b6000600580549050905090565b600073ffffffffffffffffffffffffffffffffffffffff168273ffffffffffffffffffffffffffffffffffffffff1614156107d757600080fd5b6107e13382611702565b8061084a57503373ffffffffffffffffffffffffffffffffffffffff166003600083815260200190815260200160002060009054906101000a900473ffffffffffffffffffffffffffffffffffffffff1673ffffffffffffffffffffffffffffffffffffffff16145b806108e2575060011515600460008573ffffffffffffffffffffffffffffffffffffffff1673ffffffffffffffffffffffffffffffffffffffff16815260200190815260200160002060003373ffffffffffffffffffffffffffffffffffffffff1673ffffffffffffffffffffffffffffffffffffffff16815260200190815260200160002060009054906101000a900460ff161515145b6108eb57600080fd5b6108f58382611702565b6108fe57600080fd5b6005805490508110610945576040517f08c379a000000000000000000000000000000000000000000000000000000000815260040161093c9061226f565b60405180910390fd5b61095083838361176e565b505050565b61095f3382611702565b806109c857503373ffffffffffffffffffffffffffffffffffffffff166003600083815260200190815260200160002060009054906101000a900473ffffffffffffffffffffffffffffffffffffffff1673ffffffffffffffffffffffffffffffffffffffff16145b80610a60575060011515600460008573ffffffffffffffffffffffffffffffffffffffff1673ffffffffffffffffffffffffffffffffffffffff16815260200190815260200160002060003373ffffffffffffffffffffffffffffffffffffffff1673ffffffffffffffffffffffffffffffffffffffff16815260200190815260200160002060009054906101000a900460ff161515145b610a6957600080fd5b610a738382611702565b610a7c57600080fd5b600073ffffffffffffffffffffffffffffffffffffffff168273ffffffffffffffffffffffffffffffffffffffff161415610ab657600080fd5b6005805490508110610afd576040517f08c379a0000000000000000000000000000000000000000000000000000000008152600401610af49061226f565b60405180910390fd5b610b3e8383836040518060400160405280600181526020017f3000000000000000000000000000000000000000000000000000000000000000815250611935565b505050565b60008054906101000a900473ffffffffffffffffffffffffffffffffffffffff1673ffffffffffffffffffffffffffffffffffffffff163373ffffffffffffffffffffffffffffffffffffffff1614610b9b57600080fd5b60008054906101000a900473ffffffffffffffffffffffffffffffffffffffff1673ffffffffffffffffffffffffffffffffffffffff16ff5b60006002600083815260200190815260200160002060009054906101000a900473ffffffffffffffffffffffffffffffffffffffff169050919050565b6000600160008373ffffffffffffffffffffffffffffffffffffffff1673ffffffffffffffffffffffffffffffffffffffff168152602001908152602001600020549050919050565b60606040518060400160405280600381526020017f434b540000000000000000000000000000000000000000000000000000000000815250905090565b3373ffffffffffffffffffffffffffffffffffffffff168273ffffffffffffffffffffffffffffffffffffffff161415610cd057600080fd5b80600460003373ffffffffffffffffffffffffffffffffffffffff1673ffffffffffffffffffffffffffffffffffffffff16815260200190815260200160002060008473ffffffffffffffffffffffffffffffffffffffff1673ffffffffffffffffffffffffffffffffffffffff16815260200190815260200160002060006101000a81548160ff0219169083151502179055508173ffffffffffffffffffffffffffffffffffffffff163373ffffffffffffffffffffffffffffffffffffffff167f17307eab39ab6107e8899845ad3d59bd9653f200f220920489ca2b5937696c3183604051610dc19190612212565b60405180910390a35050565b600073ffffffffffffffffffffffffffffffffffffffff168273ffffffffffffffffffffffffffffffffffffffff161415610e0757600080fd5b3073ffffffffffffffffffffffffffffffffffffffff168273ffffffffffffffffffffffffffffffffffffffff161415610e4057600080fd5b610e4a3382611702565b610e5357600080fd5b610e5e33838361176e565b808273ffffffffffffffffffffffffffffffffffffffff163373ffffffffffffffffffffffffffffffffffffffff167fddf252ad1be2c89b69c2b068fc378daa952ba7f163c4a11628f55a4df523b3ef60405160405180910390a45050565b610ec73384611702565b80610f3057503373ffffffffffffffffffffffffffffffffffffffff166003600085815260200190815260200160002060009054906101000a900473ffffffffffffffffffffffffffffffffffffffff1673ffffffffffffffffffffffffffffffffffffffff16145b80610fc8575060011515600460008773ffffffffffffffffffffffffffffffffffffffff1673ffffffffffffffffffffffffffffffffffffffff16815260200190815260200160002060003373ffffffffffffffffffffffffffffffffffffffff1673ffffffffffffffffffffffffffffffffffffffff16815260200190815260200160002060009054906101000a900460ff161515145b610fd157600080fd5b610fdb8584611702565b610fe457600080fd5b600073ffffffffffffffffffffffffffffffffffffffff168473ffffffffffffffffffffffffffffffffffffffff16141561101e57600080fd5b6005805490508310611065576040517f08c379a000000000000000000000000000000000000000000000000000000000815260040161105c9061226f565b60405180910390fd5b6110b585858585858080601f016020809104026020016040519081016040528093929190818152602001838380828437600081840152601f19601f82011690508083019250505050505050611935565b5050505050565b60008060009054906101000a900473ffffffffffffffffffffffffffffffffffffffff1673ffffffffffffffffffffffffffffffffffffffff163373ffffffffffffffffffffffffffffffffffffffff161461111757600080fd5b6111266000806000853361195b565b9050919050565b60058054905082108015611145575060058054905081105b61114e57600080fd5b3373ffffffffffffffffffffffffffffffffffffffff166002600084815260200190815260200160002060009054906101000a900473ffffffffffffffffffffffffffffffffffffffff1673ffffffffffffffffffffffffffffffffffffffff1614801561121a57503373ffffffffffffffffffffffffffffffffffffffff166002600083815260200190815260200160002060009054906101000a900473ffffffffffffffffffffffffffffffffffffffff1673ffffffffffffffffffffffffffffffffffffffff16145b61122357600080fd5b60006005838154811061125f577f4e487b7100000000000000000000000000000000000000000000000000000000600052603260045260246000fd5b90600052602060002090600202016000015490506000600583815481106112af577f4e487b7100000000000000000000000000000000000000000000000000000000600052603260045260246000fd5b90600052602060002090600202016000015490506000600160058581548110611301577f4e487b7100000000000000000000000000000000000000000000000000000000600052603260045260246000fd5b906000526020600020906002020160010160109054906101000a900461ffff166005878154811061135b577f4e487b7100000000000000000000000000000000000000000000000000000000600052603260045260246000fd5b906000526020600020906002020160010160109054906101000a900461ffff166113859190612355565b61138f9190612355565b61ffff169050600585815481106113cf577f4e487b7100000000000000000000000000000000000000000000000000000000600052603260045260246000fd5b906000526020600020906002020160010160109054906101000a900461ffff1661ffff1681148061145c575060058481548110611435577f4e487b7100000000000000000000000000000000000000000000000000000000600052603260045260246000fd5b906000526020600020906002020160010160109054906101000a900461ffff1661ffff1681145b156114715760018161146e919061238d565b90505b600061147d8484611ae8565b905061148c858784843361195b565b50505050505050565b6000600460008473ffffffffffffffffffffffffffffffffffffffff1673ffffffffffffffffffffffffffffffffffffffff16815260200190815260200160002060008373ffffffffffffffffffffffffffffffffffffffff1673ffffffffffffffffffffffffffffffffffffffff16815260200190815260200160002060009054906101000a900460ff16905092915050565b60008060008060006005868154811061156b577f4e487b7100000000000000000000000000000000000000000000000000000000600052603260045260246000fd5b906000526020600020906002020160000154600587815481106115b7577f4e487b7100000000000000000000000000000000000000000000000000000000600052603260045260246000fd5b906000526020600020906002020160010160009054906101000a900467ffffffffffffffff1660058881548110611617577f4e487b7100000000000000000000000000000000000000000000000000000000600052603260045260246000fd5b906000526020600020906002020160010160089054906101000a900463ffffffff1660058981548110611673577f4e487b7100000000000000000000000000000000000000000000000000000000600052603260045260246000fd5b9060005260206000209060020201600101600c9054906101000a900463ffffffff1660058a815481106116cf577f4e487b7100000000000000000000000000000000000000000000000000000000600052603260045260246000fd5b906000526020600020906002020160010160109054906101000a900461ffff169450945094509450945091939590929450565b60008273ffffffffffffffffffffffffffffffffffffffff166002600084815260200190815260200160002060009054906101000a900473ffffffffffffffffffffffffffffffffffffffff1673ffffffffffffffffffffffffffffffffffffffff1614905092915050565b600160008373ffffffffffffffffffffffffffffffffffffffff1673ffffffffffffffffffffffffffffffffffffffff16815260200190815260200160002060008154809291906117be906125a5565b9190505550816002600083815260200190815260200160002060006101000a81548173ffffffffffffffffffffffffffffffffffffffff021916908373ffffffffffffffffffffffffffffffffffffffff160217905550600073ffffffffffffffffffffffffffffffffffffffff168373ffffffffffffffffffffffffffffffffffffffff16146118d557600160008473ffffffffffffffffffffffffffffffffffffffff1673ffffffffffffffffffffffffffffffffffffffff16815260200190815260200160002060008154809291906118999061257b565b91905055506003600082815260200190815260200160002060006101000a81549073ffffffffffffffffffffffffffffffffffffffff02191690555b808273ffffffffffffffffffffffffffffffffffffffff168473ffffffffffffffffffffffffffffffffffffffff167fddf252ad1be2c89b69c2b068fc378daa952ba7f163c4a11628f55a4df523b3ef60405160405180910390a4505050565b61194084848461176e565b61194c84848484611bc9565b61195557600080fd5b50505050565b6000806040518060a001604052808581526020014267ffffffffffffffff1681526020018863ffffffff1681526020018763ffffffff1681526020018661ffff16815250905060058190806001815401808255809150506001900390600052602060002090600202016000909190919091506000820151816000015560208201518160010160006101000a81548167ffffffffffffffff021916908367ffffffffffffffff16021790555060408201518160010160086101000a81548163ffffffff021916908363ffffffff160217905550606082015181600101600c6101000a81548163ffffffff021916908363ffffffff16021790555060808201518160010160106101000a81548161ffff021916908361ffff160217905550505060006001600580549050611a8d919061246e565b90507f0a5311bd2a6608f08a180df2ee7c5946819a649b204b554bb8e39825b2c50ad584828a8a89604051611ac69594939291906121bf565b60405180910390a1611ada6000858361176e565b809250505095945050505050565b600080662386f26fc1000090506000655af3107a40009050600080600190505b60088111611bbc576000600282611b1f91906125ee565b1415611b5a57828488611b3291906125ee565b611b3c91906123e3565b606483611b499190612414565b611b53919061238d565b9150611b8b565b828487611b6791906125ee565b611b7191906123e3565b606483611b7e9190612414565b611b88919061238d565b91505b606484611b9891906123e3565b9350606483611ba791906123e3565b92508080611bb4906125a5565b915050611b08565b8194505050505092915050565b6000611bd484611ce3565b611be15760019050611cdb565b60008473ffffffffffffffffffffffffffffffffffffffff1663150b7a02338887876040518563ffffffff1660e01b8152600401611c229493929190612173565b602060405180830381600087803b158015611c3c57600080fd5b505af1158015611c50573d6000803e3d6000fd5b505050506040513d601f19601f82011682018060405250810190611c749190611f95565b90507f150b7a023d4804d13e8c85fb27262cb750cf6ba9f9dd3bb30d90f482ceeb4b1f7bffffffffffffffffffffffffffffffffffffffffffffffffffffffff1916817bffffffffffffffffffffffffffffffffffffffffffffffffffffffff1916149150505b949350505050565b600080823b905060008163ffffffff1611915050919050565b600081359050611d0b8161272f565b92915050565b600081359050611d2081612746565b92915050565b600081519050611d358161275d565b92915050565b60008083601f840112611d4d57600080fd5b8235905067ffffffffffffffff811115611d6657600080fd5b602083019150836001820283011115611d7e57600080fd5b9250929050565b600081359050611d9481612774565b92915050565b600060208284031215611dac57600080fd5b6000611dba84828501611cfc565b91505092915050565b60008060408385031215611dd657600080fd5b6000611de485828601611cfc565b9250506020611df585828601611cfc565b9150509250929050565b600080600060608486031215611e1457600080fd5b6000611e2286828701611cfc565b9350506020611e3386828701611cfc565b9250506040611e4486828701611d85565b9150509250925092565b600080600080600060808688031215611e6657600080fd5b6000611e7488828901611cfc565b9550506020611e8588828901611cfc565b9450506040611e9688828901611d85565b935050606086013567ffffffffffffffff811115611eb357600080fd5b611ebf88828901611d3b565b92509250509295509295909350565b60008060408385031215611ee157600080fd5b6000611eef85828601611cfc565b9250506020611f0085828601611d11565b9150509250929050565b60008060408385031215611f1d57600080fd5b6000611f2b85828601611cfc565b9250506020611f3c85828601611d85565b9150509250929050565b600080600060608486031215611f5b57600080fd5b6000611f6986828701611cfc565b9350506020611f7a86828701611d85565b9250506040611f8b86828701611cfc565b9150509250925092565b600060208284031215611fa757600080fd5b6000611fb584828501611d26565b91505092915050565b600060208284031215611fd057600080fd5b6000611fde84828501611d85565b91505092915050565b60008060408385031215611ffa57600080fd5b600061200885828601611d85565b925050602061201985828601611d85565b9150509250929050565b61202c816124a2565b82525050565b61203b816124b4565b82525050565b600061204c8261231d565b6120568185612333565b9350612066818560208601612548565b61206f8161267d565b840191505092915050565b600061208582612328565b61208f8185612344565b935061209f818560208601612548565b6120a88161267d565b840191505092915050565b60006120c0602483612344565b91506120cb8261268e565b604082019050919050565b60006120e3601a83612344565b91506120ee826126dd565b602082019050919050565b6000612106601b83612344565b915061211182612706565b602082019050919050565b612125816124ec565b82525050565b6121348161251a565b82525050565b61214381612524565b82525050565b61215281612534565b82525050565b600060208201905061216d6000830184612023565b92915050565b60006080820190506121886000830187612023565b6121956020830186612023565b6121a2604083018561212b565b81810360608301526121b48184612041565b905095945050505050565b600060a0820190506121d46000830188612023565b6121e1602083018761212b565b6121ee604083018661212b565b6121fb606083018561212b565b612208608083018461212b565b9695505050505050565b60006020820190506122276000830184612032565b92915050565b60006020820190508181036000830152612247818461207a565b905092915050565b60006020820190508181036000830152612268816120b3565b9050919050565b60006020820190508181036000830152612288816120d6565b9050919050565b600060208201905081810360008301526122a8816120f9565b9050919050565b60006020820190506122c4600083018461212b565b92915050565b600060a0820190506122df600083018861212b565b6122ec6020830187612149565b6122f9604083018661213a565b612306606083018561213a565b612313608083018461211c565b9695505050505050565b600081519050919050565b600081519050919050565b600082825260208201905092915050565b600082825260208201905092915050565b6000612360826124ec565b915061236b836124ec565b92508261ffff038211156123825761238161261f565b5b828201905092915050565b60006123988261251a565b91506123a38361251a565b9250827fffffffffffffffffffffffffffffffffffffffffffffffffffffffffffffffff038211156123d8576123d761261f565b5b828201905092915050565b60006123ee8261251a565b91506123f98361251a565b9250826124095761240861264e565b5b828204905092915050565b600061241f8261251a565b915061242a8361251a565b9250817fffffffffffffffffffffffffffffffffffffffffffffffffffffffffffffffff04831182151516156124635761246261261f565b5b828202905092915050565b60006124798261251a565b91506124848361251a565b9250828210156124975761249661261f565b5b828203905092915050565b60006124ad826124fa565b9050919050565b60008115159050919050565b60007fffffffff0000000000000000000000000000000000000000000000000000000082169050919050565b600061ffff82169050919050565b600073ffffffffffffffffffffffffffffffffffffffff82169050919050565b6000819050919050565b600063ffffffff82169050919050565b600067ffffffffffffffff82169050919050565b60005b8381101561256657808201518184015260208101905061254b565b83811115612575576000848401525b50505050565b60006125868261251a565b9150600082141561259a5761259961261f565b5b600182039050919050565b60006125b08261251a565b91507fffffffffffffffffffffffffffffffffffffffffffffffffffffffffffffffff8214156125e3576125e261261f565b5b600182019050919050565b60006125f98261251a565b91506126048361251a565b9250826126145761261361264e565b5b828206905092915050565b7f4e487b7100000000000000000000000000000000000000000000000000000000600052601160045260246000fd5b7f4e487b7100000000000000000000000000000000000000000000000000000000600052601260045260246000fd5b6000601f19601f8301169050919050565b7f596f7520617265206e6f7420746865206f776e6572206f662074686520746f6b60008201527f656e496400000000000000000000000000000000000000000000000000000000602082015250565b7f74686520746f6b656e494420646f6573206e6f74206578697374000000000000600082015250565b7f6d73672e73656e646572206973206e6f7420746865206f776e65720000000000600082015250565b612738816124a2565b811461274357600080fd5b50565b61274f816124b4565b811461275a57600080fd5b50565b612766816124c0565b811461277157600080fd5b50565b61277d8161251a565b811461278857600080fd5b5056fea2646970667358221220aafe7c1246a18aa496422c98da93bc8f7c2b7756c7679faf629c30c00ff882c664736f6c63430008040033",
  "immutableReferences": {},
  "source": "//SPDX-License-Identifier: MIT\r\npragma solidity ^0.8.4;\r\nimport \"./IERC721.sol\";\r\nimport \"./Ownable.sol\";\r\nimport \"./IERC721Receiver.sol\";\r\n//import \"../node_modules/@openzeppelin/contracts/token/ERC721/IERC721.sol\";\r\nimport \"../node_modules/@openzeppelin/contracts/utils/math/SafeMath.sol\";\r\n\r\ncontract KittyContract is IERC721,Ownable {\r\n    using SafeMath for uint256;\r\n\r\n    event Birth(\r\n        address owner, \r\n        uint256 kittenId, \r\n        uint256 mumId, \r\n        uint256 dadId, \r\n        uint256 genes\r\n    );\r\n \r\n    mapping (address => uint256) private ownershipTokenCount;\r\n    mapping (uint256 => address) private ownershipTokenID;\r\n    mapping (uint256 => address) private kittyIndexToApproved;\r\n    mapping (address => mapping(address => bool)) private _operatorApprovals; \r\n\r\n    string  constant  private tName = 'Carlos Kitty Token';\r\n    string  constant private tSymbol = 'CKT';\r\n    bytes4 internal constant MAGIC_ERC721_RECEIVED = bytes4(keccak256(\"onERC721Received(address,address,uint256,bytes)\")); // from IERC721 interface\r\n\r\n    struct Kitty {\r\n        uint256 genes;\r\n        uint64 birthTime;\r\n        uint32 mumId;\r\n        uint32 dadId;\r\n        uint16 generation;\r\n    }\r\n    Kitty[] kitties;\r\n\r\n    function close() public onlyOwner { \r\n        selfdestruct(owner);  \r\n    }\r\n\r\n    /*function supportsInterface(bytes4 _interfaceId) external view returns(bool){ // FOR ERC765\r\n        return (_interfaceId == _INTERFACE_ID_ERC721 || _interfaceId == _INTERFACE_ID_ERC165);\r\n    }*/\r\n\r\n    function breed(uint256 _dadId, uint256 _mumId) public  {\r\n        require(_dadId < kitties.length &&_mumId < kitties.length);\r\n        require(ownershipTokenID[_dadId]==  msg.sender && ownershipTokenID[_mumId]== msg.sender); // check ownership \r\n        uint256 dadDna = kitties[_dadId].genes; // you got the DNA \r\n        uint256 mumDna = kitties[_mumId].genes;\r\n        uint256 newGen = kitties[_dadId].generation + kitties[_mumId].generation + 1;  // figure out the generation\r\n        if (newGen == kitties[_dadId].generation || newGen == kitties[_mumId].generation){\r\n            newGen += 1;\r\n        }\r\n        uint256 newDna= _mixDna(dadDna, mumDna);\r\n        _createKitty(_mumId, _dadId, newGen,newDna, msg.sender); // create a new cat with te new properties, give it to the msg.sender   \r\n    }\r\n\r\n    function balanceOf(address owner) external view override returns (uint256 balance){\r\n        return ownershipTokenCount[owner];\r\n    }\r\n\r\n    function totalSupply() external view override returns (uint256 total) {\r\n        return kitties.length;\r\n    }\r\n\r\n    function name() external pure override returns (string memory tokenName) {\r\n        return tName;\r\n    }\r\n\r\n    function symbol() external pure override returns (string memory tokenSymbol) {\r\n        return tSymbol;\r\n    }\r\n\r\n    function ownerOf(uint256 tokenId) external view override returns (address owner) {\r\n        return ownershipTokenID[tokenId];\r\n    }\r\n\r\n    function transfer(address to, uint256 tokenId) external override  payable {\r\n        require(to != address(0)); //`to` cannot be the zero address.\r\n        require(to != address(this)); // to` can not be the contract address.\r\n        require(_owns(msg.sender, tokenId));    // tokenId` token must be owned by `msg.sender`\r\n        _transfer(msg.sender, to, tokenId);\r\n        emit Transfer(msg.sender, to, tokenId); // Emits a {Transfer} event.\r\n    }\r\n\r\n    function _transfer(address _from, address _to, uint256 _tokenId) internal {\r\n        ownershipTokenCount[_to]++;\r\n        ownershipTokenID[_tokenId] = _to;       \r\n        if (_from != address(0)) {\r\n            ownershipTokenCount[_from]--;\r\n            delete kittyIndexToApproved[_tokenId];\r\n        }\r\n        emit Transfer(_from, _to, _tokenId);\r\n    }\r\n\r\n    function _owns(address _claimant, uint256 _tokenId) internal view returns (bool) {\r\n      return ownershipTokenID[_tokenId] == _claimant;\r\n    }\r\n\r\n    function _createKitty(\r\n        uint256 _mumId,\r\n        uint256 _dadId,\r\n        uint256 _generation,\r\n        uint256 _genes,\r\n        address _owner\r\n    ) private returns (uint256) {\r\n        Kitty memory _kitty = Kitty({\r\n            genes: _genes,\r\n            birthTime: uint64(block.timestamp),\r\n            mumId: uint32(_mumId),\r\n            dadId: uint32(_dadId),\r\n            generation: uint16(_generation)\r\n        });\r\n        kitties.push(_kitty);\r\n        uint256 newKittenId = kitties.length - 1;\r\n        emit Birth(_owner, newKittenId, _mumId, _dadId, _genes);\r\n        _transfer(address(0), _owner, newKittenId);\r\n        return newKittenId;\r\n    }\r\n\r\n    function createKittyGen0(uint256 genes) onlyOwner  public payable returns (uint256) { \r\n        return _createKitty(0, 0, 0, genes, msg.sender);\r\n    }\r\n\r\n    function getKitty(uint256 kittyId) public view returns(uint256, uint64, uint32, uint32, uint16){\r\n             return (kitties[kittyId].genes, kitties[kittyId].birthTime, kitties[kittyId].mumId,\r\n             kitties[kittyId].dadId, kitties[kittyId].generation); \r\n    }\r\n\r\n    function approve(address _approved, uint256 _tokenId) external override{\r\n        require(_owns(msg.sender, _tokenId),\"msg.sender is not the owner\");\r\n        kittyIndexToApproved[_tokenId] = _approved;\r\n        emit Approval(msg.sender, _approved, _tokenId);\r\n    }\r\n\r\n    function approve(address _approved, uint256 _tokenId, address from) external {\r\n        require(_owns(from, _tokenId),\"msg.sender is not the owner\");\r\n        kittyIndexToApproved[_tokenId] = _approved;\r\n        emit Approval(msg.sender, _approved, _tokenId);\r\n    }\r\n    \r\n    function getApproved(uint256 _tokenId) external view override  returns (address) {\r\n        require(ownershipTokenID[_tokenId]== msg.sender, \"You are not the owner of the tokenId\");\r\n        require(_tokenId < kitties.length, \"the tokenID does not exist\");    \r\n        return kittyIndexToApproved[_tokenId];\r\n    }\r\n    \r\n    function setApprovalForAll(address _operator, bool _approved) external override {\r\n        require(_operator != msg.sender);\r\n        _operatorApprovals[msg.sender][_operator] = _approved;\r\n        emit ApprovalForAll(msg.sender, _operator,_approved);\r\n    }\r\n    \r\n    function isApprovedForAll(address _owner, address _operator) external view override returns (bool) {\r\n         return _operatorApprovals[_owner][_operator];\r\n    }\r\n\r\n    function transferFrom(address _from, address _to, uint256 _tokenId) external payable override {\r\n        require(_to != address(0)); \r\n        //require(_to != address(this)); \r\n        require(_owns(msg.sender, _tokenId) || kittyIndexToApproved[_tokenId] == msg.sender || _operatorApprovals[_from][msg.sender] == true);\r\n        //Throws unless `msg.sender` is the current owner or is the approved address for this NFT or  is an authorized operator\r\n        require(_owns(_from, _tokenId)); //Throws if `_from` is not the current owner\r\n        require(_tokenId < kitties.length, \"the tokenID does not exist\"); \r\n        _transfer(_from,  _to,  _tokenId);\r\n    }\r\n\r\n    function safeTransferFrom(address _from, address _to, uint256 _tokenId, bytes calldata data) external override{\r\n        require(_owns(msg.sender, _tokenId) || kittyIndexToApproved[_tokenId] == msg.sender || _operatorApprovals[_from][msg.sender] == true);\r\n        require(_owns(_from, _tokenId));\r\n        require(_to != address(0));\r\n        require(_tokenId < kitties.length, \"the tokenID does not exist\");\r\n        _SafeTransferFrom(_from, _to, _tokenId, data);\r\n    }\r\n\r\n    function safeTransferFrom(address _from, address _to, uint256 _tokenId) external override{\r\n        require(_owns(msg.sender, _tokenId) || kittyIndexToApproved[_tokenId] == msg.sender || _operatorApprovals[_from][msg.sender] == true);\r\n        require(_owns(_from, _tokenId));\r\n        require(_to != address(0));\r\n        require(_tokenId < kitties.length, \"the tokenID does not exist\");\r\n        _SafeTransferFrom(_from, _to, _tokenId, '0');\r\n    }\r\n\r\n    function _SafeTransferFrom(address _from, address _to, uint256 _tokenId, bytes memory _data) internal {\r\n        _transfer(_from, _to, _tokenId);\r\n        require(_checkERC721Support(_from, _to, _tokenId, _data));\r\n    }\r\n\r\n    function _checkERC721Support(address _from, address _to, uint256 _tokenId, bytes memory _data) internal returns(bool){\r\n        if(!_isContract(_to)){ // if the address is not a contract is easy otherwise you need to know if this contract can manipulate ERC721 tokens\r\n            return true;    \r\n        }\r\n        bytes4 returnData = IERC721Receiver(_to).onERC721Received(msg.sender, _from, _tokenId, _data); // call onERC721Received() function(in ERC721 you must include this function) on IERC721Receiver contract\r\n        return returnData == MAGIC_ERC721_RECEIVED;\r\n    }\r\n\r\n    function _isContract(address _to) internal view returns (bool){\r\n        uint32 size; \r\n        assembly { // only to talk directly.  machine code \r\n            size := extcodesize(_to) // gets the size \r\n        }\r\n        return size > 0; // for a contract must be > 0 \r\n    }\r\n\r\n    function _mixDna(uint256 _dadDna, uint256 _mumDna) internal pure returns (uint256){\r\n       /* uint256 firstHalf = _dadDna / 100000000;\r\n        uint256 secondHalf = _mumDna % 100000000; \r\n        uint256 newDna = firstHalf * 100000000;\r\n        newDna = newDna + secondHalf; */\r\n        uint256 mod= 10000000000000000;\r\n        uint256 div= 100000000000000;\r\n        uint256 newDna= 0;\r\n        uint i;\r\n\r\n        for (i=1; i<=8; i++){\r\n            if(i%2==0) {// _dadDna wins \r\n            newDna = (newDna*100)+((_dadDna%mod)/div);\r\n            }\r\n            else { // _mumDna wins\r\n            newDna = (newDna*100)+((_mumDna%mod)/div);\r\n            }\r\n            mod = mod/100;\r\n            div = div/100;\r\n        }\r\n        return newDna;\r\n    }\r\n        \r\n}   \r\n",
  "sourcePath": "E:/Importante/Programas creados imagenes iso etc/Programas blockchain/Ethereum Truffle/Kitties_project/contracts/KittyContract.sol",
  "compiler": {
    "name": "solc",
    "version": "0.8.4+commit.c7e474f2.Emscripten.clang"
  },
  "schemaVersion": "3.3.4",
  "updatedAt": "2021-06-15T19:29:55.235Z",
  "networkType": "ethereum",
  "devdoc": {
    "kind": "dev",
    "methods": {
      "approve(address,uint256)": {
        "details": "The zero address indicates there is no approved address.  Throws unless `msg.sender` is the current NFT owner, or an authorized  operator of the current owner.",
        "params": {
          "_approved": "The new approved NFT controller",
          "_tokenId": "The NFT to approve"
        }
      },
      "balanceOf(address)": {
        "details": "Returns the number of tokens in ``owner``'s account."
      },
      "getApproved(uint256)": {
        "details": "Throws if `_tokenId` is not a valid NFT.",
        "params": {
          "_tokenId": "The NFT to find the approved address for"
        },
        "returns": {
          "_0": "The approved address for this NFT, or the zero address if there is none"
        }
      },
      "isApprovedForAll(address,address)": {
        "params": {
          "_operator": "The address that acts on behalf of the owner",
          "_owner": "The address that owns the NFTs"
        },
        "returns": {
          "_0": "True if `_operator` is an approved operator for `_owner`, false otherwise"
        }
      },
      "ownerOf(uint256)": {
        "details": "Returns the owner of the `tokenId` token. Requirements: - `tokenId` must exist."
      },
      "safeTransferFrom(address,address,uint256)": {
        "details": "This works identically to the other function with an extra data parameter,  except this function just sets data to \"\".",
        "params": {
          "_from": "The current owner of the NFT",
          "_to": "The new owner",
          "_tokenId": "The NFT to transfer"
        }
      },
      "safeTransferFrom(address,address,uint256,bytes)": {
        "details": "Throws unless `msg.sender` is the current owner, an authorized  operator, or the approved address for this NFT. Throws if `_from` is  not the current owner. Throws if `_to` is the zero address. Throws if  `_tokenId` is not a valid NFT. When transfer is complete, this function  checks if `_to` is a smart contract (code size > 0). If so, it calls  `onERC721Received` on `_to` and throws if the return value is not  `bytes4(keccak256(\"onERC721Received(address,address,uint256,bytes)\"))`.",
        "params": {
          "_from": "The current owner of the NFT",
          "_to": "The new owner",
          "_tokenId": "The NFT to transfer",
          "data": "Additional data with no specified format, sent in call to `_to`"
        }
      },
      "setApprovalForAll(address,bool)": {
        "details": "Emits the ApprovalForAll event. The contract MUST allow  multiple operators per owner.",
        "params": {
          "_approved": "True if the operator is approved, false to revoke approval",
          "_operator": "Address to add to the set of authorized operators"
        }
      },
      "transferFrom(address,address,uint256)": {
        "details": "Throws unless `msg.sender` is the current owner, an authorized  operator, or the approved address for this NFT. Throws if `_from` is  not the current owner. Throws if `_to` is the zero address. Throws if  `_tokenId` is not a valid NFT.",
        "params": {
          "_from": "The current owner of the NFT",
          "_to": "The new owner",
          "_tokenId": "The NFT to transfer"
        }
      }
    },
    "version": 1
  },
  "userdoc": {
    "kind": "user",
    "methods": {
      "approve(address,uint256)": {
        "notice": "Change or reaffirm the approved address for an NFT"
      },
      "getApproved(uint256)": {
        "notice": "Get the approved address for a single NFT"
      },
      "isApprovedForAll(address,address)": {
        "notice": "Query if an address is an authorized operator for another address"
      },
      "safeTransferFrom(address,address,uint256)": {
        "notice": "Transfers the ownership of an NFT from one address to another address"
      },
      "safeTransferFrom(address,address,uint256,bytes)": {
        "notice": "Transfers the ownership of an NFT from one address to another address"
      },
      "setApprovalForAll(address,bool)": {
        "notice": "Enable or disable approval for a third party (\"operator\") to manage  all of `msg.sender`'s assets"
      },
      "transferFrom(address,address,uint256)": {
        "notice": "Transfer ownership of an NFT -- THE CALLER IS RESPONSIBLE  TO CONFIRM THAT `_to` IS CAPABLE OF RECEIVING NFTS OR ELSE  THEY MAY BE PERMANENTLY LOST"
      }
    },
    "version": 1
  }
}