{
  "contractName": "KittyContract",
  "abi": [
    {
      "anonymous": false,
      "inputs": [
        {
          "indexed": true,
          "internalType": "address",
          "name": "owner",
          "type": "address"
        },
        {
          "indexed": true,
          "internalType": "address",
          "name": "approved",
          "type": "address"
        },
        {
          "indexed": true,
          "internalType": "uint256",
          "name": "tokenId",
          "type": "uint256"
        }
      ],
      "name": "Approval",
      "type": "event"
    },
    {
      "anonymous": false,
      "inputs": [
        {
          "indexed": true,
          "internalType": "address",
          "name": "owner",
          "type": "address"
        },
        {
          "indexed": true,
          "internalType": "address",
          "name": "operator",
          "type": "address"
        },
        {
          "indexed": false,
          "internalType": "bool",
          "name": "approved",
          "type": "bool"
        }
      ],
      "name": "ApprovalForAll",
      "type": "event"
    },
    {
      "anonymous": false,
      "inputs": [
        {
          "indexed": false,
          "internalType": "address",
          "name": "owner",
          "type": "address"
        },
        {
          "indexed": false,
          "internalType": "uint256",
          "name": "kittenId",
          "type": "uint256"
        },
        {
          "indexed": false,
          "internalType": "uint256",
          "name": "mumId",
          "type": "uint256"
        },
        {
          "indexed": false,
          "internalType": "uint256",
          "name": "dadId",
          "type": "uint256"
        },
        {
          "indexed": false,
          "internalType": "uint256",
          "name": "genes",
          "type": "uint256"
        }
      ],
      "name": "Birth",
      "type": "event"
    },
    {
      "anonymous": false,
      "inputs": [
        {
          "indexed": true,
          "internalType": "address",
          "name": "from",
          "type": "address"
        },
        {
          "indexed": true,
          "internalType": "address",
          "name": "to",
          "type": "address"
        },
        {
          "indexed": true,
          "internalType": "uint256",
          "name": "tokenId",
          "type": "uint256"
        }
      ],
      "name": "Transfer",
      "type": "event"
    },
    {
      "inputs": [],
      "name": "close",
      "outputs": [],
      "stateMutability": "nonpayable",
      "type": "function"
    },
    {
      "inputs": [
        {
          "internalType": "uint256",
          "name": "_dadId",
          "type": "uint256"
        },
        {
          "internalType": "uint256",
          "name": "_mumId",
          "type": "uint256"
        }
      ],
      "name": "breed",
      "outputs": [],
      "stateMutability": "nonpayable",
      "type": "function"
    },
    {
      "inputs": [
        {
          "internalType": "address",
          "name": "owner",
          "type": "address"
        }
      ],
      "name": "balanceOf",
      "outputs": [
        {
          "internalType": "uint256",
          "name": "balance",
          "type": "uint256"
        }
      ],
      "stateMutability": "view",
      "type": "function",
      "constant": true
    },
    {
      "inputs": [],
      "name": "totalSupply",
      "outputs": [
        {
          "internalType": "uint256",
          "name": "total",
          "type": "uint256"
        }
      ],
      "stateMutability": "view",
      "type": "function",
      "constant": true
    },
    {
      "inputs": [],
      "name": "name",
      "outputs": [
        {
          "internalType": "string",
          "name": "tokenName",
          "type": "string"
        }
      ],
      "stateMutability": "view",
      "type": "function",
      "constant": true
    },
    {
      "inputs": [],
      "name": "symbol",
      "outputs": [
        {
          "internalType": "string",
          "name": "tokenSymbol",
          "type": "string"
        }
      ],
      "stateMutability": "view",
      "type": "function",
      "constant": true
    },
    {
      "inputs": [
        {
          "internalType": "uint256",
          "name": "tokenId",
          "type": "uint256"
        }
      ],
      "name": "ownerOf",
      "outputs": [
        {
          "internalType": "address",
          "name": "owner",
          "type": "address"
        }
      ],
      "stateMutability": "view",
      "type": "function",
      "constant": true
    },
    {
      "inputs": [
        {
          "internalType": "address",
          "name": "to",
          "type": "address"
        },
        {
          "internalType": "uint256",
          "name": "tokenId",
          "type": "uint256"
        }
      ],
      "name": "transfer",
      "outputs": [],
      "stateMutability": "payable",
      "type": "function",
      "payable": true
    },
    {
      "inputs": [
        {
          "internalType": "uint256",
          "name": "genes",
          "type": "uint256"
        }
      ],
      "name": "createKittyGen0",
      "outputs": [
        {
          "internalType": "uint256",
          "name": "",
          "type": "uint256"
        }
      ],
      "stateMutability": "payable",
      "type": "function",
      "payable": true
    },
    {
      "inputs": [
        {
          "internalType": "uint256",
          "name": "kittyId",
          "type": "uint256"
        }
      ],
      "name": "getKitty",
      "outputs": [
        {
          "internalType": "uint256",
          "name": "",
          "type": "uint256"
        },
        {
          "internalType": "uint64",
          "name": "",
          "type": "uint64"
        },
        {
          "internalType": "uint32",
          "name": "",
          "type": "uint32"
        },
        {
          "internalType": "uint32",
          "name": "",
          "type": "uint32"
        },
        {
          "internalType": "uint16",
          "name": "",
          "type": "uint16"
        }
      ],
      "stateMutability": "view",
      "type": "function",
      "constant": true
    },
    {
      "inputs": [
        {
          "internalType": "address",
          "name": "_approved",
          "type": "address"
        },
        {
          "internalType": "uint256",
          "name": "_tokenId",
          "type": "uint256"
        }
      ],
      "name": "approve",
      "outputs": [],
      "stateMutability": "nonpayable",
      "type": "function"
    },
    {
      "inputs": [
        {
          "internalType": "uint256",
          "name": "_tokenId",
          "type": "uint256"
        }
      ],
      "name": "getApproved",
      "outputs": [
        {
          "internalType": "address",
          "name": "",
          "type": "address"
        }
      ],
      "stateMutability": "view",
      "type": "function",
      "constant": true
    },
    {
      "inputs": [
        {
          "internalType": "address",
          "name": "_operator",
          "type": "address"
        },
        {
          "internalType": "bool",
          "name": "_approved",
          "type": "bool"
        }
      ],
      "name": "setApprovalForAll",
      "outputs": [],
      "stateMutability": "nonpayable",
      "type": "function"
    },
    {
      "inputs": [
        {
          "internalType": "address",
          "name": "_owner",
          "type": "address"
        },
        {
          "internalType": "address",
          "name": "_operator",
          "type": "address"
        }
      ],
      "name": "isApprovedForAll",
      "outputs": [
        {
          "internalType": "bool",
          "name": "",
          "type": "bool"
        }
      ],
      "stateMutability": "view",
      "type": "function",
      "constant": true
    },
    {
      "inputs": [
        {
          "internalType": "address",
          "name": "_from",
          "type": "address"
        },
        {
          "internalType": "address",
          "name": "_to",
          "type": "address"
        },
        {
          "internalType": "uint256",
          "name": "_tokenId",
          "type": "uint256"
        }
      ],
      "name": "transferFrom",
      "outputs": [],
      "stateMutability": "payable",
      "type": "function",
      "payable": true
    },
    {
      "inputs": [
        {
          "internalType": "address",
          "name": "_from",
          "type": "address"
        },
        {
          "internalType": "address",
          "name": "_to",
          "type": "address"
        },
        {
          "internalType": "uint256",
          "name": "_tokenId",
          "type": "uint256"
        }
      ],
      "name": "safeTransferFrom",
      "outputs": [],
      "stateMutability": "nonpayable",
      "type": "function"
    },
    {
      "inputs": [
        {
          "internalType": "address",
          "name": "_from",
          "type": "address"
        },
        {
          "internalType": "address",
          "name": "_to",
          "type": "address"
        },
        {
          "internalType": "uint256",
          "name": "_tokenId",
          "type": "uint256"
        },
        {
          "internalType": "bytes",
          "name": "data",
          "type": "bytes"
        }
      ],
      "name": "safeTransferFrom",
      "outputs": [],
      "stateMutability": "nonpayable",
      "type": "function"
    }
  ],
  "bytecode": "0x608060405234801561001057600080fd5b50336000806101000a81548173ffffffffffffffffffffffffffffffffffffffff021916908373ffffffffffffffffffffffffffffffffffffffff160217905550612517806100606000396000f3fe6080604052600436106100fe5760003560e01c806370a0823111610095578063b88d4fde11610064578063b88d4fde14610305578063d5a776ca1461032e578063d9ecad7b1461035e578063e985e9c514610387578063e98b7f4d146103c4576100fe565b806370a082311461025857806395d89b4114610295578063a22cb465146102c0578063a9059cbb146102e9576100fe565b806323b872dd116100d157806323b872dd146101bf57806342842e0e146101db57806343d726d6146102045780636352211e1461021b576100fe565b806306fdde0314610103578063081812fc1461012e578063095ea7b31461016b57806318160ddd14610194575b600080fd5b34801561010f57600080fd5b50610118610405565b6040516101259190611fcc565b60405180910390f35b34801561013a57600080fd5b5061015560048036038101906101509190611d80565b610442565b6040516101629190611ef7565b60405180910390f35b34801561017757600080fd5b50610192600480360381019061018d9190611d1b565b610567565b005b3480156101a057600080fd5b506101a961062b565b6040516101b6919061202e565b60405180910390f35b6101d960048036038101906101d49190611c10565b610638565b005b3480156101e757600080fd5b5061020260048036038101906101fd9190611c10565b6107f0565b005b34801561021057600080fd5b506102196109de565b005b34801561022757600080fd5b50610242600480360381019061023d9190611d80565b610a6f565b60405161024f9190611ef7565b60405180910390f35b34801561026457600080fd5b5061027f600480360381019061027a9190611bab565b610aac565b60405161028c919061202e565b60405180910390f35b3480156102a157600080fd5b506102aa610af5565b6040516102b79190611fcc565b60405180910390f35b3480156102cc57600080fd5b506102e760048036038101906102e29190611cdf565b610b32565b005b61030360048036038101906102fe9190611d1b565b610c68565b005b34801561031157600080fd5b5061032c60048036038101906103279190611c5f565b610d58565b005b61034860048036038101906103439190611d80565b610f57565b604051610355919061202e565b60405180910390f35b34801561036a57600080fd5b5061038560048036038101906103809190611da9565b610fc8565b005b34801561039357600080fd5b506103ae60048036038101906103a99190611bd4565b611330565b6040516103bb9190611fb1565b60405180910390f35b3480156103d057600080fd5b506103eb60048036038101906103e69190611d80565b6113c4565b6040516103fc959493929190612049565b60405180910390f35b60606040518060400160405280601281526020017f4361726c6f73204b6974747920546f6b656e0000000000000000000000000000815250905090565b60003373ffffffffffffffffffffffffffffffffffffffff166002600084815260200190815260200160002060009054906101000a900473ffffffffffffffffffffffffffffffffffffffff1673ffffffffffffffffffffffffffffffffffffffff16146104e5576040517f08c379a00000000000000000000000000000000000000000000000000000000081526004016104dc90611fee565b60405180910390fd5b600580549050821061052c576040517f08c379a00000000000000000000000000000000000000000000000000000000081526004016105239061200e565b60405180910390fd5b6003600083815260200190815260200160002060009054906101000a900473ffffffffffffffffffffffffffffffffffffffff169050919050565b610571338261159d565b61057a57600080fd5b816003600083815260200190815260200160002060006101000a81548173ffffffffffffffffffffffffffffffffffffffff021916908373ffffffffffffffffffffffffffffffffffffffff160217905550808273ffffffffffffffffffffffffffffffffffffffff163373ffffffffffffffffffffffffffffffffffffffff167f8c5be1e5ebec7d5bd14f71427d1e84f3dd0314c0f7b2291e5b200ac8c7c3b92560405160405180910390a45050565b6000600580549050905090565b600073ffffffffffffffffffffffffffffffffffffffff168273ffffffffffffffffffffffffffffffffffffffff16141561067257600080fd5b61067c338261159d565b806106e557503373ffffffffffffffffffffffffffffffffffffffff166003600083815260200190815260200160002060009054906101000a900473ffffffffffffffffffffffffffffffffffffffff1673ffffffffffffffffffffffffffffffffffffffff16145b8061077d575060011515600460008573ffffffffffffffffffffffffffffffffffffffff1673ffffffffffffffffffffffffffffffffffffffff16815260200190815260200160002060003373ffffffffffffffffffffffffffffffffffffffff1673ffffffffffffffffffffffffffffffffffffffff16815260200190815260200160002060009054906101000a900460ff161515145b61078657600080fd5b610790838261159d565b61079957600080fd5b60058054905081106107e0576040517f08c379a00000000000000000000000000000000000000000000000000000000081526004016107d79061200e565b60405180910390fd5b6107eb838383611609565b505050565b6107fa338261159d565b8061086357503373ffffffffffffffffffffffffffffffffffffffff166003600083815260200190815260200160002060009054906101000a900473ffffffffffffffffffffffffffffffffffffffff1673ffffffffffffffffffffffffffffffffffffffff16145b806108fb575060011515600460008573ffffffffffffffffffffffffffffffffffffffff1673ffffffffffffffffffffffffffffffffffffffff16815260200190815260200160002060003373ffffffffffffffffffffffffffffffffffffffff1673ffffffffffffffffffffffffffffffffffffffff16815260200190815260200160002060009054906101000a900460ff161515145b61090457600080fd5b61090e838261159d565b61091757600080fd5b600073ffffffffffffffffffffffffffffffffffffffff168273ffffffffffffffffffffffffffffffffffffffff16141561095157600080fd5b6005805490508110610998576040517f08c379a000000000000000000000000000000000000000000000000000000000815260040161098f9061200e565b60405180910390fd5b6109d98383836040518060400160405280600181526020017f30000000000000000000000000000000000000000000000000000000000000008152506117d0565b505050565b60008054906101000a900473ffffffffffffffffffffffffffffffffffffffff1673ffffffffffffffffffffffffffffffffffffffff163373ffffffffffffffffffffffffffffffffffffffff1614610a3657600080fd5b60008054906101000a900473ffffffffffffffffffffffffffffffffffffffff1673ffffffffffffffffffffffffffffffffffffffff16ff5b60006002600083815260200190815260200160002060009054906101000a900473ffffffffffffffffffffffffffffffffffffffff169050919050565b6000600160008373ffffffffffffffffffffffffffffffffffffffff1673ffffffffffffffffffffffffffffffffffffffff168152602001908152602001600020549050919050565b60606040518060400160405280600381526020017f434b540000000000000000000000000000000000000000000000000000000000815250905090565b3373ffffffffffffffffffffffffffffffffffffffff168273ffffffffffffffffffffffffffffffffffffffff161415610b6b57600080fd5b80600460003373ffffffffffffffffffffffffffffffffffffffff1673ffffffffffffffffffffffffffffffffffffffff16815260200190815260200160002060008473ffffffffffffffffffffffffffffffffffffffff1673ffffffffffffffffffffffffffffffffffffffff16815260200190815260200160002060006101000a81548160ff0219169083151502179055508173ffffffffffffffffffffffffffffffffffffffff163373ffffffffffffffffffffffffffffffffffffffff167f17307eab39ab6107e8899845ad3d59bd9653f200f220920489ca2b5937696c3183604051610c5c9190611fb1565b60405180910390a35050565b600073ffffffffffffffffffffffffffffffffffffffff168273ffffffffffffffffffffffffffffffffffffffff161415610ca257600080fd5b3073ffffffffffffffffffffffffffffffffffffffff168273ffffffffffffffffffffffffffffffffffffffff161415610cdb57600080fd5b610ce5338261159d565b610cee57600080fd5b610cf9338383611609565b808273ffffffffffffffffffffffffffffffffffffffff163373ffffffffffffffffffffffffffffffffffffffff167fddf252ad1be2c89b69c2b068fc378daa952ba7f163c4a11628f55a4df523b3ef60405160405180910390a45050565b610d62338461159d565b80610dcb57503373ffffffffffffffffffffffffffffffffffffffff166003600085815260200190815260200160002060009054906101000a900473ffffffffffffffffffffffffffffffffffffffff1673ffffffffffffffffffffffffffffffffffffffff16145b80610e63575060011515600460008773ffffffffffffffffffffffffffffffffffffffff1673ffffffffffffffffffffffffffffffffffffffff16815260200190815260200160002060003373ffffffffffffffffffffffffffffffffffffffff1673ffffffffffffffffffffffffffffffffffffffff16815260200190815260200160002060009054906101000a900460ff161515145b610e6c57600080fd5b610e76858461159d565b610e7f57600080fd5b600073ffffffffffffffffffffffffffffffffffffffff168473ffffffffffffffffffffffffffffffffffffffff161415610eb957600080fd5b6005805490508310610f00576040517f08c379a0000000000000000000000000000000000000000000000000000000008152600401610ef79061200e565b60405180910390fd5b610f5085858585858080601f016020809104026020016040519081016040528093929190818152602001838380828437600081840152601f19601f820116905080830192505050505050506117d0565b5050505050565b60008060009054906101000a900473ffffffffffffffffffffffffffffffffffffffff1673ffffffffffffffffffffffffffffffffffffffff163373ffffffffffffffffffffffffffffffffffffffff1614610fb257600080fd5b610fc1600080600085336117f6565b9050919050565b60058054905082108015610fe0575060058054905081105b610fe957600080fd5b3373ffffffffffffffffffffffffffffffffffffffff166002600084815260200190815260200160002060009054906101000a900473ffffffffffffffffffffffffffffffffffffffff1673ffffffffffffffffffffffffffffffffffffffff161480156110b557503373ffffffffffffffffffffffffffffffffffffffff166002600083815260200190815260200160002060009054906101000a900473ffffffffffffffffffffffffffffffffffffffff1673ffffffffffffffffffffffffffffffffffffffff16145b6110be57600080fd5b6000600583815481106110fa577f4e487b7100000000000000000000000000000000000000000000000000000000600052603260045260246000fd5b906000526020600020906002020160000154905060006005838154811061114a577f4e487b7100000000000000000000000000000000000000000000000000000000600052603260045260246000fd5b9060005260206000209060020201600001549050600060016005858154811061119c577f4e487b7100000000000000000000000000000000000000000000000000000000600052603260045260246000fd5b906000526020600020906002020160010160109054906101000a900461ffff16600587815481106111f6577f4e487b7100000000000000000000000000000000000000000000000000000000600052603260045260246000fd5b906000526020600020906002020160010160109054906101000a900461ffff1661122091906120d4565b61122a91906120d4565b61ffff1690506005858154811061126a577f4e487b7100000000000000000000000000000000000000000000000000000000600052603260045260246000fd5b906000526020600020906002020160010160109054906101000a900461ffff1661ffff168114806112f75750600584815481106112d0577f4e487b7100000000000000000000000000000000000000000000000000000000600052603260045260246000fd5b906000526020600020906002020160010160109054906101000a900461ffff1661ffff1681145b1561130c57600181611309919061210c565b90505b60006113188484611983565b905061132785878484336117f6565b50505050505050565b6000600460008473ffffffffffffffffffffffffffffffffffffffff1673ffffffffffffffffffffffffffffffffffffffff16815260200190815260200160002060008373ffffffffffffffffffffffffffffffffffffffff1673ffffffffffffffffffffffffffffffffffffffff16815260200190815260200160002060009054906101000a900460ff16905092915050565b600080600080600060058681548110611406577f4e487b7100000000000000000000000000000000000000000000000000000000600052603260045260246000fd5b90600052602060002090600202016000015460058781548110611452577f4e487b7100000000000000000000000000000000000000000000000000000000600052603260045260246000fd5b906000526020600020906002020160010160009054906101000a900467ffffffffffffffff16600588815481106114b2577f4e487b7100000000000000000000000000000000000000000000000000000000600052603260045260246000fd5b906000526020600020906002020160010160089054906101000a900463ffffffff166005898154811061150e577f4e487b7100000000000000000000000000000000000000000000000000000000600052603260045260246000fd5b9060005260206000209060020201600101600c9054906101000a900463ffffffff1660058a8154811061156a577f4e487b7100000000000000000000000000000000000000000000000000000000600052603260045260246000fd5b906000526020600020906002020160010160109054906101000a900461ffff169450945094509450945091939590929450565b60008273ffffffffffffffffffffffffffffffffffffffff166002600084815260200190815260200160002060009054906101000a900473ffffffffffffffffffffffffffffffffffffffff1673ffffffffffffffffffffffffffffffffffffffff1614905092915050565b600160008373ffffffffffffffffffffffffffffffffffffffff1673ffffffffffffffffffffffffffffffffffffffff168152602001908152602001600020600081548092919061165990612324565b9190505550816002600083815260200190815260200160002060006101000a81548173ffffffffffffffffffffffffffffffffffffffff021916908373ffffffffffffffffffffffffffffffffffffffff160217905550600073ffffffffffffffffffffffffffffffffffffffff168373ffffffffffffffffffffffffffffffffffffffff161461177057600160008473ffffffffffffffffffffffffffffffffffffffff1673ffffffffffffffffffffffffffffffffffffffff1681526020019081526020016000206000815480929190611734906122fa565b91905055506003600082815260200190815260200160002060006101000a81549073ffffffffffffffffffffffffffffffffffffffff02191690555b808273ffffffffffffffffffffffffffffffffffffffff168473ffffffffffffffffffffffffffffffffffffffff167fddf252ad1be2c89b69c2b068fc378daa952ba7f163c4a11628f55a4df523b3ef60405160405180910390a4505050565b6117db848484611609565b6117e7848484846119da565b6117f057600080fd5b50505050565b6000806040518060a001604052808581526020014267ffffffffffffffff1681526020018863ffffffff1681526020018763ffffffff1681526020018661ffff16815250905060058190806001815401808255809150506001900390600052602060002090600202016000909190919091506000820151816000015560208201518160010160006101000a81548167ffffffffffffffff021916908367ffffffffffffffff16021790555060408201518160010160086101000a81548163ffffffff021916908363ffffffff160217905550606082015181600101600c6101000a81548163ffffffff021916908363ffffffff16021790555060808201518160010160106101000a81548161ffff021916908361ffff16021790555050506000600160058054905061192891906121ed565b90507f0a5311bd2a6608f08a180df2ee7c5946819a649b204b554bb8e39825b2c50ad584828a8a89604051611961959493929190611f5e565b60405180910390a161197560008583611609565b809250505095945050505050565b6000806305f5e100846119969190612162565b905060006305f5e100846119aa919061236d565b905060006305f5e100836119be9190612193565b905081816119cc919061210c565b905080935050505092915050565b60006119e584611af4565b6119f25760019050611aec565b60008473ffffffffffffffffffffffffffffffffffffffff1663150b7a02338887876040518563ffffffff1660e01b8152600401611a339493929190611f12565b602060405180830381600087803b158015611a4d57600080fd5b505af1158015611a61573d6000803e3d6000fd5b505050506040513d601f19601f82011682018060405250810190611a859190611d57565b90507f150b7a023d4804d13e8c85fb27262cb750cf6ba9f9dd3bb30d90f482ceeb4b1f7bffffffffffffffffffffffffffffffffffffffffffffffffffffffff1916817bffffffffffffffffffffffffffffffffffffffffffffffffffffffff1916149150505b949350505050565b600080823b905060008163ffffffff1611915050919050565b600081359050611b1c81612485565b92915050565b600081359050611b318161249c565b92915050565b600081519050611b46816124b3565b92915050565b60008083601f840112611b5e57600080fd5b8235905067ffffffffffffffff811115611b7757600080fd5b602083019150836001820283011115611b8f57600080fd5b9250929050565b600081359050611ba5816124ca565b92915050565b600060208284031215611bbd57600080fd5b6000611bcb84828501611b0d565b91505092915050565b60008060408385031215611be757600080fd5b6000611bf585828601611b0d565b9250506020611c0685828601611b0d565b9150509250929050565b600080600060608486031215611c2557600080fd5b6000611c3386828701611b0d565b9350506020611c4486828701611b0d565b9250506040611c5586828701611b96565b9150509250925092565b600080600080600060808688031215611c7757600080fd5b6000611c8588828901611b0d565b9550506020611c9688828901611b0d565b9450506040611ca788828901611b96565b935050606086013567ffffffffffffffff811115611cc457600080fd5b611cd088828901611b4c565b92509250509295509295909350565b60008060408385031215611cf257600080fd5b6000611d0085828601611b0d565b9250506020611d1185828601611b22565b9150509250929050565b60008060408385031215611d2e57600080fd5b6000611d3c85828601611b0d565b9250506020611d4d85828601611b96565b9150509250929050565b600060208284031215611d6957600080fd5b6000611d7784828501611b37565b91505092915050565b600060208284031215611d9257600080fd5b6000611da084828501611b96565b91505092915050565b60008060408385031215611dbc57600080fd5b6000611dca85828601611b96565b9250506020611ddb85828601611b96565b9150509250929050565b611dee81612221565b82525050565b611dfd81612233565b82525050565b6000611e0e8261209c565b611e1881856120b2565b9350611e288185602086016122c7565b611e31816123fc565b840191505092915050565b6000611e47826120a7565b611e5181856120c3565b9350611e618185602086016122c7565b611e6a816123fc565b840191505092915050565b6000611e826024836120c3565b9150611e8d8261240d565b604082019050919050565b6000611ea5601a836120c3565b9150611eb08261245c565b602082019050919050565b611ec48161226b565b82525050565b611ed381612299565b82525050565b611ee2816122a3565b82525050565b611ef1816122b3565b82525050565b6000602082019050611f0c6000830184611de5565b92915050565b6000608082019050611f276000830187611de5565b611f346020830186611de5565b611f416040830185611eca565b8181036060830152611f538184611e03565b905095945050505050565b600060a082019050611f736000830188611de5565b611f806020830187611eca565b611f8d6040830186611eca565b611f9a6060830185611eca565b611fa76080830184611eca565b9695505050505050565b6000602082019050611fc66000830184611df4565b92915050565b60006020820190508181036000830152611fe68184611e3c565b905092915050565b6000602082019050818103600083015261200781611e75565b9050919050565b6000602082019050818103600083015261202781611e98565b9050919050565b60006020820190506120436000830184611eca565b92915050565b600060a08201905061205e6000830188611eca565b61206b6020830187611ee8565b6120786040830186611ed9565b6120856060830185611ed9565b6120926080830184611ebb565b9695505050505050565b600081519050919050565b600081519050919050565b600082825260208201905092915050565b600082825260208201905092915050565b60006120df8261226b565b91506120ea8361226b565b92508261ffff038211156121015761210061239e565b5b828201905092915050565b600061211782612299565b915061212283612299565b9250827fffffffffffffffffffffffffffffffffffffffffffffffffffffffffffffffff038211156121575761215661239e565b5b828201905092915050565b600061216d82612299565b915061217883612299565b925082612188576121876123cd565b5b828204905092915050565b600061219e82612299565b91506121a983612299565b9250817fffffffffffffffffffffffffffffffffffffffffffffffffffffffffffffffff04831182151516156121e2576121e161239e565b5b828202905092915050565b60006121f882612299565b915061220383612299565b9250828210156122165761221561239e565b5b828203905092915050565b600061222c82612279565b9050919050565b60008115159050919050565b60007fffffffff0000000000000000000000000000000000000000000000000000000082169050919050565b600061ffff82169050919050565b600073ffffffffffffffffffffffffffffffffffffffff82169050919050565b6000819050919050565b600063ffffffff82169050919050565b600067ffffffffffffffff82169050919050565b60005b838110156122e55780820151818401526020810190506122ca565b838111156122f4576000848401525b50505050565b600061230582612299565b915060008214156123195761231861239e565b5b600182039050919050565b600061232f82612299565b91507fffffffffffffffffffffffffffffffffffffffffffffffffffffffffffffffff8214156123625761236161239e565b5b600182019050919050565b600061237882612299565b915061238383612299565b925082612393576123926123cd565b5b828206905092915050565b7f4e487b7100000000000000000000000000000000000000000000000000000000600052601160045260246000fd5b7f4e487b7100000000000000000000000000000000000000000000000000000000600052601260045260246000fd5b6000601f19601f8301169050919050565b7f596f7520617265206e6f7420746865206f776e6572206f662074686520746f6b60008201527f656e496400000000000000000000000000000000000000000000000000000000602082015250565b7f74686520746f6b656e494420646f6573206e6f74206578697374000000000000600082015250565b61248e81612221565b811461249957600080fd5b50565b6124a581612233565b81146124b057600080fd5b50565b6124bc8161223f565b81146124c757600080fd5b50565b6124d381612299565b81146124de57600080fd5b5056fea26469706673582212207c28d2a5918b63da4400a1915b2d8bf1287f3ec47f9af69bcfa262c93619b18564736f6c63430008040033",
  "immutableReferences": {},
  "source": "//SPDX-License-Identifier: MIT\r\npragma solidity ^0.8.4;\r\nimport \"./IERC721.sol\";\r\nimport \"./Ownable.sol\";\r\nimport \"./IERC721Receiver.sol\";\r\n//import \"../node_modules/@openzeppelin/contracts/token/ERC721/IERC721.sol\";\r\nimport \"../node_modules/@openzeppelin/contracts/utils/math/SafeMath.sol\";\r\n\r\ncontract KittyContract is IERC721,Ownable {\r\n    using SafeMath for uint256;\r\n\r\n    event Birth(\r\n        address owner, \r\n        uint256 kittenId, \r\n        uint256 mumId, \r\n        uint256 dadId, \r\n        uint256 genes\r\n    );\r\n \r\n    mapping (address => uint256) private ownershipTokenCount;\r\n    mapping (uint256 => address) private ownershipTokenID;\r\n    mapping (uint256 => address) private kittyIndexToApproved;\r\n    mapping (address => mapping(address => bool)) private _operatorApprovals; \r\n\r\n    string  constant  private tName = 'Carlos Kitty Token';\r\n    string  constant private tSymbol = 'CKT';\r\n    bytes4 internal constant MAGIC_ERC721_RECEIVED = bytes4(keccak256(\"onERC721Received(address,address,uint256,bytes)\")); // from IERC721 interface\r\n\r\n    struct Kitty {\r\n        uint256 genes;\r\n        uint64 birthTime;\r\n        uint32 mumId;\r\n        uint32 dadId;\r\n        uint16 generation;\r\n    }\r\n    Kitty[] kitties;\r\n\r\n    function close() public onlyOwner { \r\n        selfdestruct(owner);  \r\n    }\r\n\r\n    /*function supportsInterface(bytes4 _interfaceId) external view returns(bool){ // FOR ERC765\r\n        return (_interfaceId == _INTERFACE_ID_ERC721 || _interfaceId == _INTERFACE_ID_ERC165);\r\n    }*/\r\n\r\n    function breed(uint256 _dadId, uint256 _mumId) public  {\r\n        require(_dadId < kitties.length &&_mumId < kitties.length);\r\n        require(ownershipTokenID[_dadId]==  msg.sender && ownershipTokenID[_mumId]== msg.sender); // check ownership \r\n        uint256 dadDna = kitties[_dadId].genes; // you got the DNA \r\n        uint256 mumDna = kitties[_mumId].genes;\r\n        uint256 newGen = kitties[_dadId].generation + kitties[_mumId].generation + 1;  // figure out the generation\r\n        if (newGen == kitties[_dadId].generation || newGen == kitties[_mumId].generation){\r\n            newGen += 1;\r\n        }\r\n        uint256 newDna= _mixDna(dadDna, mumDna);\r\n        _createKitty(_mumId, _dadId, newGen,newDna, msg.sender); // create a new cat with te new properties, give it to the msg.sender   \r\n    }\r\n\r\n    function balanceOf(address owner) external view override returns (uint256 balance){\r\n        return ownershipTokenCount[owner];\r\n    }\r\n\r\n    function totalSupply() external view override returns (uint256 total) {\r\n        return kitties.length;\r\n    }\r\n\r\n    function name() external view override returns (string memory tokenName) {\r\n        return tName;\r\n    }\r\n\r\n    function symbol() external view override returns (string memory tokenSymbol) {\r\n        return tSymbol;\r\n    }\r\n\r\n    function ownerOf(uint256 tokenId) external view override returns (address owner) {\r\n        return ownershipTokenID[tokenId];\r\n    }\r\n\r\n    function transfer(address to, uint256 tokenId) external override  payable {\r\n        require(to != address(0)); //`to` cannot be the zero address.\r\n        require(to != address(this)); // to` can not be the contract address.\r\n        require(_owns(msg.sender, tokenId));    // tokenId` token must be owned by `msg.sender`\r\n        _transfer(msg.sender, to, tokenId);\r\n        emit Transfer(msg.sender, to, tokenId); // Emits a {Transfer} event.\r\n    }\r\n\r\n    function _transfer(address _from, address _to, uint256 _tokenId) internal {\r\n        ownershipTokenCount[_to]++;\r\n        ownershipTokenID[_tokenId] = _to;       \r\n        if (_from != address(0)) {\r\n            ownershipTokenCount[_from]--;\r\n            delete kittyIndexToApproved[_tokenId];\r\n        }\r\n        emit Transfer(_from, _to, _tokenId);\r\n    }\r\n\r\n    function _owns(address _claimant, uint256 _tokenId) internal view returns (bool) {\r\n      return ownershipTokenID[_tokenId] == _claimant;\r\n    }\r\n\r\n    function _createKitty(\r\n        uint256 _mumId,\r\n        uint256 _dadId,\r\n        uint256 _generation,\r\n        uint256 _genes,\r\n        address _owner\r\n    ) private returns (uint256) {\r\n        Kitty memory _kitty = Kitty({\r\n            genes: _genes,\r\n            birthTime: uint64(block.timestamp),\r\n            mumId: uint32(_mumId),\r\n            dadId: uint32(_dadId),\r\n            generation: uint16(_generation)\r\n        });\r\n        kitties.push(_kitty);\r\n        uint256 newKittenId = kitties.length - 1;\r\n        emit Birth(_owner, newKittenId, _mumId, _dadId, _genes);\r\n        _transfer(address(0), _owner, newKittenId);\r\n        return newKittenId;\r\n    }\r\n\r\n    function createKittyGen0(uint256 genes) onlyOwner  public payable returns (uint256) { \r\n        return _createKitty(0, 0, 0, genes, msg.sender);\r\n    }\r\n\r\n    function getKitty(uint256 kittyId) public view returns(uint256, uint64, uint32, uint32, uint16){\r\n             return (kitties[kittyId].genes, kitties[kittyId].birthTime, kitties[kittyId].mumId,\r\n             kitties[kittyId].dadId, kitties[kittyId].generation); \r\n    }\r\n\r\n    function approve(address _approved, uint256 _tokenId) external override{\r\n        require(_owns(msg.sender, _tokenId));\r\n        kittyIndexToApproved[_tokenId] = _approved;\r\n        emit Approval(msg.sender, _approved, _tokenId);\r\n    }\r\n    \r\n    function getApproved(uint256 _tokenId) external view override  returns (address) {\r\n        require(ownershipTokenID[_tokenId]== msg.sender, \"You are not the owner of the tokenId\");\r\n        require(_tokenId < kitties.length, \"the tokenID does not exist\");    \r\n        return kittyIndexToApproved[_tokenId];\r\n    }\r\n    \r\n    function setApprovalForAll(address _operator, bool _approved) external override {\r\n        require(_operator != msg.sender);\r\n        _operatorApprovals[msg.sender][_operator] = _approved;\r\n        emit ApprovalForAll(msg.sender, _operator,_approved);\r\n    }\r\n    \r\n    function isApprovedForAll(address _owner, address _operator) external view override returns (bool) {\r\n         return _operatorApprovals[_owner][_operator];\r\n    }\r\n\r\n    function transferFrom(address _from, address _to, uint256 _tokenId) external payable override {\r\n        require(_to != address(0)); \r\n        //require(_to != address(this)); \r\n        require(_owns(msg.sender, _tokenId) || kittyIndexToApproved[_tokenId] == msg.sender || _operatorApprovals[_from][msg.sender] == true);\r\n        //Throws unless `msg.sender` is the current owner or is the approved address for this NFT or  is an authorized operator\r\n        require(_owns(_from, _tokenId)); //Throws if `_from` is not the current owner\r\n        require(_tokenId < kitties.length, \"the tokenID does not exist\"); \r\n        _transfer(_from,  _to,  _tokenId);\r\n    }\r\n\r\n    function safeTransferFrom(address _from, address _to, uint256 _tokenId, bytes calldata data) external override{\r\n        require(_owns(msg.sender, _tokenId) || kittyIndexToApproved[_tokenId] == msg.sender || _operatorApprovals[_from][msg.sender] == true);\r\n        require(_owns(_from, _tokenId));\r\n        require(_to != address(0));\r\n        require(_tokenId < kitties.length, \"the tokenID does not exist\");\r\n        _SafeTransferFrom(_from, _to, _tokenId, data);\r\n    }\r\n\r\n    function safeTransferFrom(address _from, address _to, uint256 _tokenId) external override{\r\n        require(_owns(msg.sender, _tokenId) || kittyIndexToApproved[_tokenId] == msg.sender || _operatorApprovals[_from][msg.sender] == true);\r\n        require(_owns(_from, _tokenId));\r\n        require(_to != address(0));\r\n        require(_tokenId < kitties.length, \"the tokenID does not exist\");\r\n        _SafeTransferFrom(_from, _to, _tokenId, '0');\r\n    }\r\n\r\n    function _SafeTransferFrom(address _from, address _to, uint256 _tokenId, bytes memory _data) internal {\r\n        _transfer(_from, _to, _tokenId);\r\n        require(_checkERC721Support(_from, _to, _tokenId, _data));\r\n    }\r\n\r\n    function _checkERC721Support(address _from, address _to, uint256 _tokenId, bytes memory _data) internal returns(bool){\r\n        if(!_isContract(_to)){ // if the address is not a contract is easy otherwise you need to know if this contract can manipulate ERC721 tokens\r\n            return true;    \r\n        }\r\n        bytes4 returnData = IERC721Receiver(_to).onERC721Received(msg.sender, _from, _tokenId, _data); // call onERC721Received() function(in ERC721 you must include this function) on IERC721Receiver contract\r\n        return returnData == MAGIC_ERC721_RECEIVED;\r\n    }\r\n\r\n    function _isContract(address _to) internal view returns (bool){\r\n        uint32 size; \r\n        assembly { // only to talk directly.  machine code \r\n            size := extcodesize(_to) // gets the size \r\n        }\r\n        return size > 0; // for a contract must be > 0 \r\n    }\r\n\r\n    function _mixDna(uint256 _dadDna, uint256 _mumDna) internal pure returns (uint256){\r\n        uint256 firstHalf = _dadDna / 100000000;\r\n        uint256 secondHalf = _mumDna % 100000000; \r\n        uint256 newDna = firstHalf * 100000000;\r\n        newDna = newDna + secondHalf; \r\n        return newDna; \r\n    }\r\n}   \r\n",
  "sourcePath": "E:/Importante/Programas creados imagenes iso etc/Programas blockchain/Ethereum Truffle/Kitties_project/contracts/KittyContract.sol",
  "compiler": {
    "name": "solc",
    "version": "0.8.4+commit.c7e474f2.Emscripten.clang"
  },
  "schemaVersion": "3.3.4",
  "updatedAt": "2021-06-03T01:39:27.886Z",
  "networkType": "ethereum",
  "devdoc": {
    "kind": "dev",
    "methods": {
      "approve(address,uint256)": {
        "details": "The zero address indicates there is no approved address.  Throws unless `msg.sender` is the current NFT owner, or an authorized  operator of the current owner.",
        "params": {
          "_approved": "The new approved NFT controller",
          "_tokenId": "The NFT to approve"
        }
      },
      "balanceOf(address)": {
        "details": "Returns the number of tokens in ``owner``'s account."
      },
      "getApproved(uint256)": {
        "details": "Throws if `_tokenId` is not a valid NFT.",
        "params": {
          "_tokenId": "The NFT to find the approved address for"
        },
        "returns": {
          "_0": "The approved address for this NFT, or the zero address if there is none"
        }
      },
      "isApprovedForAll(address,address)": {
        "params": {
          "_operator": "The address that acts on behalf of the owner",
          "_owner": "The address that owns the NFTs"
        },
        "returns": {
          "_0": "True if `_operator` is an approved operator for `_owner`, false otherwise"
        }
      },
      "ownerOf(uint256)": {
        "details": "Returns the owner of the `tokenId` token. Requirements: - `tokenId` must exist."
      },
      "safeTransferFrom(address,address,uint256)": {
        "details": "This works identically to the other function with an extra data parameter,  except this function just sets data to \"\".",
        "params": {
          "_from": "The current owner of the NFT",
          "_to": "The new owner",
          "_tokenId": "The NFT to transfer"
        }
      },
      "safeTransferFrom(address,address,uint256,bytes)": {
        "details": "Throws unless `msg.sender` is the current owner, an authorized  operator, or the approved address for this NFT. Throws if `_from` is  not the current owner. Throws if `_to` is the zero address. Throws if  `_tokenId` is not a valid NFT. When transfer is complete, this function  checks if `_to` is a smart contract (code size > 0). If so, it calls  `onERC721Received` on `_to` and throws if the return value is not  `bytes4(keccak256(\"onERC721Received(address,address,uint256,bytes)\"))`.",
        "params": {
          "_from": "The current owner of the NFT",
          "_to": "The new owner",
          "_tokenId": "The NFT to transfer",
          "data": "Additional data with no specified format, sent in call to `_to`"
        }
      },
      "setApprovalForAll(address,bool)": {
        "details": "Emits the ApprovalForAll event. The contract MUST allow  multiple operators per owner.",
        "params": {
          "_approved": "True if the operator is approved, false to revoke approval",
          "_operator": "Address to add to the set of authorized operators"
        }
      },
      "transferFrom(address,address,uint256)": {
        "details": "Throws unless `msg.sender` is the current owner, an authorized  operator, or the approved address for this NFT. Throws if `_from` is  not the current owner. Throws if `_to` is the zero address. Throws if  `_tokenId` is not a valid NFT.",
        "params": {
          "_from": "The current owner of the NFT",
          "_to": "The new owner",
          "_tokenId": "The NFT to transfer"
        }
      }
    },
    "version": 1
  },
  "userdoc": {
    "kind": "user",
    "methods": {
      "approve(address,uint256)": {
        "notice": "Change or reaffirm the approved address for an NFT"
      },
      "getApproved(uint256)": {
        "notice": "Get the approved address for a single NFT"
      },
      "isApprovedForAll(address,address)": {
        "notice": "Query if an address is an authorized operator for another address"
      },
      "safeTransferFrom(address,address,uint256)": {
        "notice": "Transfers the ownership of an NFT from one address to another address"
      },
      "safeTransferFrom(address,address,uint256,bytes)": {
        "notice": "Transfers the ownership of an NFT from one address to another address"
      },
      "setApprovalForAll(address,bool)": {
        "notice": "Enable or disable approval for a third party (\"operator\") to manage  all of `msg.sender`'s assets"
      },
      "transferFrom(address,address,uint256)": {
        "notice": "Transfer ownership of an NFT -- THE CALLER IS RESPONSIBLE  TO CONFIRM THAT `_to` IS CAPABLE OF RECEIVING NFTS OR ELSE  THEY MAY BE PERMANENTLY LOST"
      }
    },
    "version": 1
  }
}