{
  "contractName": "KittyContract",
  "abi": [
    {
      "anonymous": false,
      "inputs": [
        {
          "indexed": true,
          "internalType": "address",
          "name": "owner",
          "type": "address"
        },
        {
          "indexed": true,
          "internalType": "address",
          "name": "approved",
          "type": "address"
        },
        {
          "indexed": true,
          "internalType": "uint256",
          "name": "tokenId",
          "type": "uint256"
        }
      ],
      "name": "Approval",
      "type": "event"
    },
    {
      "anonymous": false,
      "inputs": [
        {
          "indexed": true,
          "internalType": "address",
          "name": "owner",
          "type": "address"
        },
        {
          "indexed": true,
          "internalType": "address",
          "name": "operator",
          "type": "address"
        },
        {
          "indexed": false,
          "internalType": "bool",
          "name": "approved",
          "type": "bool"
        }
      ],
      "name": "ApprovalForAll",
      "type": "event"
    },
    {
      "anonymous": false,
      "inputs": [
        {
          "indexed": false,
          "internalType": "address",
          "name": "owner",
          "type": "address"
        },
        {
          "indexed": false,
          "internalType": "uint256",
          "name": "kittenId",
          "type": "uint256"
        },
        {
          "indexed": false,
          "internalType": "uint256",
          "name": "mumId",
          "type": "uint256"
        },
        {
          "indexed": false,
          "internalType": "uint256",
          "name": "dadId",
          "type": "uint256"
        },
        {
          "indexed": false,
          "internalType": "uint256",
          "name": "genes",
          "type": "uint256"
        }
      ],
      "name": "Birth",
      "type": "event"
    },
    {
      "anonymous": false,
      "inputs": [
        {
          "indexed": true,
          "internalType": "address",
          "name": "previousOwner",
          "type": "address"
        },
        {
          "indexed": true,
          "internalType": "address",
          "name": "newOwner",
          "type": "address"
        }
      ],
      "name": "OwnershipTransferred",
      "type": "event"
    },
    {
      "anonymous": false,
      "inputs": [
        {
          "indexed": false,
          "internalType": "address",
          "name": "account",
          "type": "address"
        }
      ],
      "name": "Paused",
      "type": "event"
    },
    {
      "anonymous": false,
      "inputs": [
        {
          "indexed": true,
          "internalType": "address",
          "name": "from",
          "type": "address"
        },
        {
          "indexed": true,
          "internalType": "address",
          "name": "to",
          "type": "address"
        },
        {
          "indexed": true,
          "internalType": "uint256",
          "name": "tokenId",
          "type": "uint256"
        }
      ],
      "name": "Transfer",
      "type": "event"
    },
    {
      "anonymous": false,
      "inputs": [
        {
          "indexed": false,
          "internalType": "address",
          "name": "account",
          "type": "address"
        }
      ],
      "name": "Unpaused",
      "type": "event"
    },
    {
      "inputs": [],
      "name": "owner",
      "outputs": [
        {
          "internalType": "address",
          "name": "",
          "type": "address"
        }
      ],
      "stateMutability": "view",
      "type": "function",
      "constant": true
    },
    {
      "inputs": [],
      "name": "paused",
      "outputs": [
        {
          "internalType": "bool",
          "name": "",
          "type": "bool"
        }
      ],
      "stateMutability": "view",
      "type": "function",
      "constant": true
    },
    {
      "inputs": [],
      "name": "renounceOwnership",
      "outputs": [],
      "stateMutability": "nonpayable",
      "type": "function"
    },
    {
      "inputs": [
        {
          "internalType": "address",
          "name": "newOwner",
          "type": "address"
        }
      ],
      "name": "transferOwnership",
      "outputs": [],
      "stateMutability": "nonpayable",
      "type": "function"
    },
    {
      "inputs": [],
      "name": "close",
      "outputs": [],
      "stateMutability": "nonpayable",
      "type": "function"
    },
    {
      "inputs": [],
      "name": "pause",
      "outputs": [],
      "stateMutability": "nonpayable",
      "type": "function"
    },
    {
      "inputs": [],
      "name": "unpause",
      "outputs": [],
      "stateMutability": "nonpayable",
      "type": "function"
    },
    {
      "inputs": [
        {
          "internalType": "bytes4",
          "name": "interfaceId",
          "type": "bytes4"
        }
      ],
      "name": "supportsInterface",
      "outputs": [
        {
          "internalType": "bool",
          "name": "",
          "type": "bool"
        }
      ],
      "stateMutability": "pure",
      "type": "function",
      "constant": true
    },
    {
      "inputs": [
        {
          "internalType": "uint256",
          "name": "_dadId",
          "type": "uint256"
        },
        {
          "internalType": "uint256",
          "name": "_mumId",
          "type": "uint256"
        }
      ],
      "name": "breed",
      "outputs": [],
      "stateMutability": "nonpayable",
      "type": "function"
    },
    {
      "inputs": [
        {
          "internalType": "address",
          "name": "owner",
          "type": "address"
        }
      ],
      "name": "balanceOf",
      "outputs": [
        {
          "internalType": "uint256",
          "name": "balance",
          "type": "uint256"
        }
      ],
      "stateMutability": "view",
      "type": "function",
      "constant": true
    },
    {
      "inputs": [],
      "name": "totalSupply",
      "outputs": [
        {
          "internalType": "uint256",
          "name": "total",
          "type": "uint256"
        }
      ],
      "stateMutability": "view",
      "type": "function",
      "constant": true
    },
    {
      "inputs": [],
      "name": "name",
      "outputs": [
        {
          "internalType": "string",
          "name": "tokenName",
          "type": "string"
        }
      ],
      "stateMutability": "pure",
      "type": "function",
      "constant": true
    },
    {
      "inputs": [],
      "name": "symbol",
      "outputs": [
        {
          "internalType": "string",
          "name": "tokenSymbol",
          "type": "string"
        }
      ],
      "stateMutability": "pure",
      "type": "function",
      "constant": true
    },
    {
      "inputs": [
        {
          "internalType": "uint256",
          "name": "tokenId",
          "type": "uint256"
        }
      ],
      "name": "ownerOf",
      "outputs": [
        {
          "internalType": "address",
          "name": "owner",
          "type": "address"
        }
      ],
      "stateMutability": "view",
      "type": "function",
      "constant": true
    },
    {
      "inputs": [
        {
          "internalType": "address",
          "name": "to",
          "type": "address"
        },
        {
          "internalType": "uint256",
          "name": "tokenId",
          "type": "uint256"
        }
      ],
      "name": "transfer",
      "outputs": [],
      "stateMutability": "payable",
      "type": "function",
      "payable": true
    },
    {
      "inputs": [
        {
          "internalType": "uint256",
          "name": "genes",
          "type": "uint256"
        }
      ],
      "name": "createKittyGen0",
      "outputs": [
        {
          "internalType": "uint256",
          "name": "",
          "type": "uint256"
        }
      ],
      "stateMutability": "payable",
      "type": "function",
      "payable": true
    },
    {
      "inputs": [
        {
          "internalType": "uint256",
          "name": "kittyId",
          "type": "uint256"
        }
      ],
      "name": "getKitty",
      "outputs": [
        {
          "internalType": "uint256",
          "name": "",
          "type": "uint256"
        },
        {
          "internalType": "uint64",
          "name": "",
          "type": "uint64"
        },
        {
          "internalType": "uint32",
          "name": "",
          "type": "uint32"
        },
        {
          "internalType": "uint32",
          "name": "",
          "type": "uint32"
        },
        {
          "internalType": "uint16",
          "name": "",
          "type": "uint16"
        }
      ],
      "stateMutability": "view",
      "type": "function",
      "constant": true
    },
    {
      "inputs": [
        {
          "internalType": "address",
          "name": "_approved",
          "type": "address"
        },
        {
          "internalType": "uint256",
          "name": "_tokenId",
          "type": "uint256"
        }
      ],
      "name": "approve",
      "outputs": [],
      "stateMutability": "nonpayable",
      "type": "function"
    },
    {
      "inputs": [
        {
          "internalType": "address",
          "name": "_approved",
          "type": "address"
        },
        {
          "internalType": "uint256",
          "name": "_tokenId",
          "type": "uint256"
        },
        {
          "internalType": "address",
          "name": "from",
          "type": "address"
        }
      ],
      "name": "approve",
      "outputs": [],
      "stateMutability": "nonpayable",
      "type": "function"
    },
    {
      "inputs": [
        {
          "internalType": "uint256",
          "name": "_tokenId",
          "type": "uint256"
        }
      ],
      "name": "getApproved",
      "outputs": [
        {
          "internalType": "address",
          "name": "",
          "type": "address"
        }
      ],
      "stateMutability": "view",
      "type": "function",
      "constant": true
    },
    {
      "inputs": [
        {
          "internalType": "address",
          "name": "_operator",
          "type": "address"
        },
        {
          "internalType": "bool",
          "name": "_approved",
          "type": "bool"
        }
      ],
      "name": "setApprovalForAll",
      "outputs": [],
      "stateMutability": "nonpayable",
      "type": "function"
    },
    {
      "inputs": [
        {
          "internalType": "address",
          "name": "_owner",
          "type": "address"
        },
        {
          "internalType": "address",
          "name": "_operator",
          "type": "address"
        }
      ],
      "name": "isApprovedForAll",
      "outputs": [
        {
          "internalType": "bool",
          "name": "",
          "type": "bool"
        }
      ],
      "stateMutability": "view",
      "type": "function",
      "constant": true
    },
    {
      "inputs": [
        {
          "internalType": "address",
          "name": "_from",
          "type": "address"
        },
        {
          "internalType": "address",
          "name": "_to",
          "type": "address"
        },
        {
          "internalType": "uint256",
          "name": "_tokenId",
          "type": "uint256"
        }
      ],
      "name": "transferFrom",
      "outputs": [],
      "stateMutability": "nonpayable",
      "type": "function"
    },
    {
      "inputs": [
        {
          "internalType": "address",
          "name": "_from",
          "type": "address"
        },
        {
          "internalType": "address",
          "name": "_to",
          "type": "address"
        },
        {
          "internalType": "uint256",
          "name": "_tokenId",
          "type": "uint256"
        }
      ],
      "name": "safeTransferFrom",
      "outputs": [],
      "stateMutability": "nonpayable",
      "type": "function"
    },
    {
      "inputs": [
        {
          "internalType": "address",
          "name": "_from",
          "type": "address"
        },
        {
          "internalType": "address",
          "name": "_to",
          "type": "address"
        },
        {
          "internalType": "uint256",
          "name": "_tokenId",
          "type": "uint256"
        },
        {
          "internalType": "bytes",
          "name": "data",
          "type": "bytes"
        }
      ],
      "name": "safeTransferFrom",
      "outputs": [],
      "stateMutability": "nonpayable",
      "type": "function"
    }
  ],
  "bytecode": "0x60806040523480156200001157600080fd5b5062000032620000266200005260201b60201c565b6200005a60201b60201c565b60008060146101000a81548160ff0219169083151502179055506200011e565b600033905090565b60008060009054906101000a900473ffffffffffffffffffffffffffffffffffffffff169050816000806101000a81548173ffffffffffffffffffffffffffffffffffffffff021916908373ffffffffffffffffffffffffffffffffffffffff1602179055508173ffffffffffffffffffffffffffffffffffffffff168173ffffffffffffffffffffffffffffffffffffffff167f8be0079c531659141344cd1fd0a4f28419497f9722a3daafe3b4186f6b6457e060405160405180910390a35050565b6134f6806200012e6000396000f3fe6080604052600436106101665760003560e01c806370a08231116100d1578063a9059cbb1161008a578063d9ecad7b11610064578063d9ecad7b146104d4578063e985e9c5146104fd578063e98b7f4d1461053a578063f2fde38b1461057b57610166565b8063a9059cbb1461045f578063b88d4fde1461047b578063d5a776ca146104a457610166565b806370a0823114610375578063715018a6146103b25780638456cb59146103c95780638da5cb5b146103e057806395d89b411461040b578063a22cb4651461043657610166565b806323b872dd1161012357806323b872dd1461028d5780633f4ba83a146102b657806342842e0e146102cd57806343d726d6146102f65780635c975abb1461030d5780636352211e1461033857610166565b806301ffc9a71461016b57806306fdde03146101a8578063081812fc146101d3578063095ea7b3146102105780631271f09a1461023957806318160ddd14610262575b600080fd5b34801561017757600080fd5b50610192600480360381019061018d9190612acb565b6105a4565b60405161019f9190612dfd565b60405180910390f35b3480156101b457600080fd5b506101bd61060e565b6040516101ca9190612e18565b60405180910390f35b3480156101df57600080fd5b506101fa60048036038101906101f59190612b1d565b61064b565b6040516102079190612d43565b60405180910390f35b34801561021c57600080fd5b5061023760048036038101906102329190612a40565b6107b8565b005b34801561024557600080fd5b50610260600480360381019061025b9190612a7c565b6108fa565b005b34801561026e57600080fd5b50610277610a3d565b6040516102849190612f1a565b60405180910390f35b34801561029957600080fd5b506102b460048036038101906102af9190612935565b610a92565b005b3480156102c257600080fd5b506102cb610c92565b005b3480156102d957600080fd5b506102f460048036038101906102ef9190612935565b610d5f565b005b34801561030257600080fd5b5061030b610f95565b005b34801561031957600080fd5b50610322611036565b60405161032f9190612dfd565b60405180910390f35b34801561034457600080fd5b5061035f600480360381019061035a9190612b1d565b61104c565b60405161036c9190612d43565b60405180910390f35b34801561038157600080fd5b5061039c600480360381019061039791906128d0565b6110d1565b6040516103a99190612f1a565b60405180910390f35b3480156103be57600080fd5b506103c7611162565b005b3480156103d557600080fd5b506103de6111ea565b005b3480156103ec57600080fd5b506103f56112b8565b6040516104029190612d43565b60405180910390f35b34801561041757600080fd5b506104206112e1565b60405161042d9190612e18565b60405180910390f35b34801561044257600080fd5b5061045d60048036038101906104589190612a04565b61131e565b005b61047960048036038101906104749190612a40565b61149c565b005b34801561048757600080fd5b506104a2600480360381019061049d9190612984565b6115d4565b005b6104be60048036038101906104b99190612b1d565b61181b565b6040516104cb9190612f1a565b60405180910390f35b3480156104e057600080fd5b506104fb60048036038101906104f69190612b46565b61187b565b005b34801561050957600080fd5b50610524600480360381019061051f91906128f9565b611c1e565b6040516105319190612dfd565b60405180910390f35b34801561054657600080fd5b50610561600480360381019061055c9190612b1d565b611cfa565b604051610572959493929190612f35565b60405180910390f35b34801561058757600080fd5b506105a2600480360381019061059d91906128d0565b611f1b565b005b60007f01ffc9a7000000000000000000000000000000000000000000000000000000007bffffffffffffffffffffffffffffffffffffffffffffffffffffffff1916827bffffffffffffffffffffffffffffffffffffffffffffffffffffffff1916149050919050565b60606040518060400160405280601281526020017f4361726c6f73204b6974747920546f6b656e0000000000000000000000000000815250905090565b6000610655611036565b15610695576040517f08c379a000000000000000000000000000000000000000000000000000000000815260040161068c90612e7a565b60405180910390fd5b3373ffffffffffffffffffffffffffffffffffffffff166002600084815260200190815260200160002060009054906101000a900473ffffffffffffffffffffffffffffffffffffffff1673ffffffffffffffffffffffffffffffffffffffff1614610736576040517f08c379a000000000000000000000000000000000000000000000000000000000815260040161072d90612e9a565b60405180910390fd5b600580549050821061077d576040517f08c379a000000000000000000000000000000000000000000000000000000000815260040161077490612eda565b60405180910390fd5b6003600083815260200190815260200160002060009054906101000a900473ffffffffffffffffffffffffffffffffffffffff169050919050565b6107c0611036565b15610800576040517f08c379a00000000000000000000000000000000000000000000000000000000081526004016107f790612e7a565b60405180910390fd5b61080a3382612013565b610849576040517f08c379a000000000000000000000000000000000000000000000000000000000815260040161084090612efa565b60405180910390fd5b816003600083815260200190815260200160002060006101000a81548173ffffffffffffffffffffffffffffffffffffffff021916908373ffffffffffffffffffffffffffffffffffffffff160217905550808273ffffffffffffffffffffffffffffffffffffffff163373ffffffffffffffffffffffffffffffffffffffff167f8c5be1e5ebec7d5bd14f71427d1e84f3dd0314c0f7b2291e5b200ac8c7c3b92560405160405180910390a45050565b610902611036565b15610942576040517f08c379a000000000000000000000000000000000000000000000000000000000815260040161093990612e7a565b60405180910390fd5b61094c8183612013565b61098b576040517f08c379a000000000000000000000000000000000000000000000000000000000815260040161098290612efa565b60405180910390fd5b826003600084815260200190815260200160002060006101000a81548173ffffffffffffffffffffffffffffffffffffffff021916908373ffffffffffffffffffffffffffffffffffffffff160217905550818373ffffffffffffffffffffffffffffffffffffffff163373ffffffffffffffffffffffffffffffffffffffff167f8c5be1e5ebec7d5bd14f71427d1e84f3dd0314c0f7b2291e5b200ac8c7c3b92560405160405180910390a4505050565b6000610a47611036565b15610a87576040517f08c379a0000000000000000000000000000000000000000000000000000000008152600401610a7e90612e7a565b60405180910390fd5b600580549050905090565b610a9a611036565b15610ada576040517f08c379a0000000000000000000000000000000000000000000000000000000008152600401610ad190612e7a565b60405180910390fd5b600073ffffffffffffffffffffffffffffffffffffffff168273ffffffffffffffffffffffffffffffffffffffff161415610b1457600080fd5b610b1e3382612013565b80610b8757503373ffffffffffffffffffffffffffffffffffffffff166003600083815260200190815260200160002060009054906101000a900473ffffffffffffffffffffffffffffffffffffffff1673ffffffffffffffffffffffffffffffffffffffff16145b80610c1f575060011515600460008573ffffffffffffffffffffffffffffffffffffffff1673ffffffffffffffffffffffffffffffffffffffff16815260200190815260200160002060003373ffffffffffffffffffffffffffffffffffffffff1673ffffffffffffffffffffffffffffffffffffffff16815260200190815260200160002060009054906101000a900460ff161515145b610c2857600080fd5b610c328382612013565b610c3b57600080fd5b6005805490508110610c82576040517f08c379a0000000000000000000000000000000000000000000000000000000008152600401610c7990612eda565b60405180910390fd5b610c8d83838361207f565b505050565b610c9a612246565b73ffffffffffffffffffffffffffffffffffffffff16610cb86112b8565b73ffffffffffffffffffffffffffffffffffffffff1614610d0e576040517f08c379a0000000000000000000000000000000000000000000000000000000008152600401610d0590612eba565b60405180910390fd5b610d16611036565b610d55576040517f08c379a0000000000000000000000000000000000000000000000000000000008152600401610d4c90612e3a565b60405180910390fd5b610d5d61224e565b565b610d67611036565b15610da7576040517f08c379a0000000000000000000000000000000000000000000000000000000008152600401610d9e90612e7a565b60405180910390fd5b610db13382612013565b80610e1a57503373ffffffffffffffffffffffffffffffffffffffff166003600083815260200190815260200160002060009054906101000a900473ffffffffffffffffffffffffffffffffffffffff1673ffffffffffffffffffffffffffffffffffffffff16145b80610eb2575060011515600460008573ffffffffffffffffffffffffffffffffffffffff1673ffffffffffffffffffffffffffffffffffffffff16815260200190815260200160002060003373ffffffffffffffffffffffffffffffffffffffff1673ffffffffffffffffffffffffffffffffffffffff16815260200190815260200160002060009054906101000a900460ff161515145b610ebb57600080fd5b610ec58382612013565b610ece57600080fd5b600073ffffffffffffffffffffffffffffffffffffffff168273ffffffffffffffffffffffffffffffffffffffff161415610f0857600080fd5b6005805490508110610f4f576040517f08c379a0000000000000000000000000000000000000000000000000000000008152600401610f4690612eda565b60405180910390fd5b610f908383836040518060400160405280600181526020017f30000000000000000000000000000000000000000000000000000000000000008152506122ef565b505050565b610f9d612246565b73ffffffffffffffffffffffffffffffffffffffff16610fbb6112b8565b73ffffffffffffffffffffffffffffffffffffffff1614611011576040517f08c379a000000000000000000000000000000000000000000000000000000000815260040161100890612eba565b60405180910390fd5b600061101b6112b8565b90508073ffffffffffffffffffffffffffffffffffffffff16ff5b60008060149054906101000a900460ff16905090565b6000611056611036565b15611096576040517f08c379a000000000000000000000000000000000000000000000000000000000815260040161108d90612e7a565b60405180910390fd5b6002600083815260200190815260200160002060009054906101000a900473ffffffffffffffffffffffffffffffffffffffff169050919050565b60006110db611036565b1561111b576040517f08c379a000000000000000000000000000000000000000000000000000000000815260040161111290612e7a565b60405180910390fd5b600160008373ffffffffffffffffffffffffffffffffffffffff1673ffffffffffffffffffffffffffffffffffffffff168152602001908152602001600020549050919050565b61116a612246565b73ffffffffffffffffffffffffffffffffffffffff166111886112b8565b73ffffffffffffffffffffffffffffffffffffffff16146111de576040517f08c379a00000000000000000000000000000000000000000000000000000000081526004016111d590612eba565b60405180910390fd5b6111e86000612315565b565b6111f2612246565b73ffffffffffffffffffffffffffffffffffffffff166112106112b8565b73ffffffffffffffffffffffffffffffffffffffff1614611266576040517f08c379a000000000000000000000000000000000000000000000000000000000815260040161125d90612eba565b60405180910390fd5b61126e611036565b156112ae576040517f08c379a00000000000000000000000000000000000000000000000000000000081526004016112a590612e7a565b60405180910390fd5b6112b66123d9565b565b60008060009054906101000a900473ffffffffffffffffffffffffffffffffffffffff16905090565b60606040518060400160405280600381526020017f434b540000000000000000000000000000000000000000000000000000000000815250905090565b611326611036565b15611366576040517f08c379a000000000000000000000000000000000000000000000000000000000815260040161135d90612e7a565b60405180910390fd5b3373ffffffffffffffffffffffffffffffffffffffff168273ffffffffffffffffffffffffffffffffffffffff16141561139f57600080fd5b80600460003373ffffffffffffffffffffffffffffffffffffffff1673ffffffffffffffffffffffffffffffffffffffff16815260200190815260200160002060008473ffffffffffffffffffffffffffffffffffffffff1673ffffffffffffffffffffffffffffffffffffffff16815260200190815260200160002060006101000a81548160ff0219169083151502179055508173ffffffffffffffffffffffffffffffffffffffff163373ffffffffffffffffffffffffffffffffffffffff167f17307eab39ab6107e8899845ad3d59bd9653f200f220920489ca2b5937696c31836040516114909190612dfd565b60405180910390a35050565b6114a4611036565b156114e4576040517f08c379a00000000000000000000000000000000000000000000000000000000081526004016114db90612e7a565b60405180910390fd5b600073ffffffffffffffffffffffffffffffffffffffff168273ffffffffffffffffffffffffffffffffffffffff16141561151e57600080fd5b3073ffffffffffffffffffffffffffffffffffffffff168273ffffffffffffffffffffffffffffffffffffffff16141561155757600080fd5b6115613382612013565b61156a57600080fd5b61157533838361207f565b808273ffffffffffffffffffffffffffffffffffffffff163373ffffffffffffffffffffffffffffffffffffffff167fddf252ad1be2c89b69c2b068fc378daa952ba7f163c4a11628f55a4df523b3ef60405160405180910390a45050565b6115dc611036565b1561161c576040517f08c379a000000000000000000000000000000000000000000000000000000000815260040161161390612e7a565b60405180910390fd5b6116263384612013565b8061168f57503373ffffffffffffffffffffffffffffffffffffffff166003600085815260200190815260200160002060009054906101000a900473ffffffffffffffffffffffffffffffffffffffff1673ffffffffffffffffffffffffffffffffffffffff16145b80611727575060011515600460008773ffffffffffffffffffffffffffffffffffffffff1673ffffffffffffffffffffffffffffffffffffffff16815260200190815260200160002060003373ffffffffffffffffffffffffffffffffffffffff1673ffffffffffffffffffffffffffffffffffffffff16815260200190815260200160002060009054906101000a900460ff161515145b61173057600080fd5b61173a8584612013565b61174357600080fd5b600073ffffffffffffffffffffffffffffffffffffffff168473ffffffffffffffffffffffffffffffffffffffff16141561177d57600080fd5b60058054905083106117c4576040517f08c379a00000000000000000000000000000000000000000000000000000000081526004016117bb90612eda565b60405180910390fd5b61181485858585858080601f016020809104026020016040519081016040528093929190818152602001838380828437600081840152601f19601f820116905080830192505050505050506122ef565b5050505050565b6000611825611036565b15611865576040517f08c379a000000000000000000000000000000000000000000000000000000000815260040161185c90612e7a565b60405180910390fd5b6118746000806000853361247c565b9050919050565b611883611036565b156118c3576040517f08c379a00000000000000000000000000000000000000000000000000000000081526004016118ba90612e7a565b60405180910390fd5b600580549050821080156118db575060058054905081105b6118e457600080fd5b3373ffffffffffffffffffffffffffffffffffffffff166002600084815260200190815260200160002060009054906101000a900473ffffffffffffffffffffffffffffffffffffffff1673ffffffffffffffffffffffffffffffffffffffff161480156119b057503373ffffffffffffffffffffffffffffffffffffffff166002600083815260200190815260200160002060009054906101000a900473ffffffffffffffffffffffffffffffffffffffff1673ffffffffffffffffffffffffffffffffffffffff16145b6119b957600080fd5b6000600583815481106119f5577f4e487b7100000000000000000000000000000000000000000000000000000000600052603260045260246000fd5b9060005260206000209060020201600001549050600060058381548110611a45577f4e487b7100000000000000000000000000000000000000000000000000000000600052603260045260246000fd5b9060005260206000209060020201600001549050600060058481548110611a95577f4e487b7100000000000000000000000000000000000000000000000000000000600052603260045260246000fd5b906000526020600020906002020160010160109054906101000a900461ffff1661ffff1660058681548110611af3577f4e487b7100000000000000000000000000000000000000000000000000000000600052603260045260246000fd5b906000526020600020906002020160010160109054906101000a900461ffff1661ffff1610611b8d57600160058681548110611b58577f4e487b7100000000000000000000000000000000000000000000000000000000600052603260045260246000fd5b906000526020600020906002020160010160109054906101000a900461ffff16611b829190612fc0565b61ffff169050611bfa565b600160058581548110611bc9577f4e487b7100000000000000000000000000000000000000000000000000000000600052603260045260246000fd5b906000526020600020906002020160010160109054906101000a900461ffff16611bf39190612fc0565b61ffff1690505b6000611c068484612609565b9050611c15858784843361247c565b50505050505050565b6000611c28611036565b15611c68576040517f08c379a0000000000000000000000000000000000000000000000000000000008152600401611c5f90612e7a565b60405180910390fd5b600460008473ffffffffffffffffffffffffffffffffffffffff1673ffffffffffffffffffffffffffffffffffffffff16815260200190815260200160002060008373ffffffffffffffffffffffffffffffffffffffff1673ffffffffffffffffffffffffffffffffffffffff16815260200190815260200160002060009054906101000a900460ff16905092915050565b6000806000806000611d0a611036565b15611d4a576040517f08c379a0000000000000000000000000000000000000000000000000000000008152600401611d4190612e7a565b60405180910390fd5b60058681548110611d84577f4e487b7100000000000000000000000000000000000000000000000000000000600052603260045260246000fd5b90600052602060002090600202016000015460058781548110611dd0577f4e487b7100000000000000000000000000000000000000000000000000000000600052603260045260246000fd5b906000526020600020906002020160010160009054906101000a900467ffffffffffffffff1660058881548110611e30577f4e487b7100000000000000000000000000000000000000000000000000000000600052603260045260246000fd5b906000526020600020906002020160010160089054906101000a900463ffffffff1660058981548110611e8c577f4e487b7100000000000000000000000000000000000000000000000000000000600052603260045260246000fd5b9060005260206000209060020201600101600c9054906101000a900463ffffffff1660058a81548110611ee8577f4e487b7100000000000000000000000000000000000000000000000000000000600052603260045260246000fd5b906000526020600020906002020160010160109054906101000a900461ffff169450945094509450945091939590929450565b611f23612246565b73ffffffffffffffffffffffffffffffffffffffff16611f416112b8565b73ffffffffffffffffffffffffffffffffffffffff1614611f97576040517f08c379a0000000000000000000000000000000000000000000000000000000008152600401611f8e90612eba565b60405180910390fd5b600073ffffffffffffffffffffffffffffffffffffffff168173ffffffffffffffffffffffffffffffffffffffff161415612007576040517f08c379a0000000000000000000000000000000000000000000000000000000008152600401611ffe90612e5a565b60405180910390fd5b61201081612315565b50565b60008273ffffffffffffffffffffffffffffffffffffffff166002600084815260200190815260200160002060009054906101000a900473ffffffffffffffffffffffffffffffffffffffff1673ffffffffffffffffffffffffffffffffffffffff1614905092915050565b600160008373ffffffffffffffffffffffffffffffffffffffff1673ffffffffffffffffffffffffffffffffffffffff16815260200190815260200160002060008154809291906120cf90613210565b9190505550816002600083815260200190815260200160002060006101000a81548173ffffffffffffffffffffffffffffffffffffffff021916908373ffffffffffffffffffffffffffffffffffffffff160217905550600073ffffffffffffffffffffffffffffffffffffffff168373ffffffffffffffffffffffffffffffffffffffff16146121e657600160008473ffffffffffffffffffffffffffffffffffffffff1673ffffffffffffffffffffffffffffffffffffffff16815260200190815260200160002060008154809291906121aa906131e6565b91905055506003600082815260200190815260200160002060006101000a81549073ffffffffffffffffffffffffffffffffffffffff02191690555b808273ffffffffffffffffffffffffffffffffffffffff168473ffffffffffffffffffffffffffffffffffffffff167fddf252ad1be2c89b69c2b068fc378daa952ba7f163c4a11628f55a4df523b3ef60405160405180910390a4505050565b600033905090565b612256611036565b612295576040517f08c379a000000000000000000000000000000000000000000000000000000000815260040161228c90612e3a565b60405180910390fd5b60008060146101000a81548160ff0219169083151502179055507f5db9ee0a495bf2e6ff9c91a7834c1ba4fdd244a5e8aa4e537bd38aeae4b073aa6122d8612246565b6040516122e59190612d43565b60405180910390a1565b6122fa84848461207f565b612306848484846126ea565b61230f57600080fd5b50505050565b60008060009054906101000a900473ffffffffffffffffffffffffffffffffffffffff169050816000806101000a81548173ffffffffffffffffffffffffffffffffffffffff021916908373ffffffffffffffffffffffffffffffffffffffff1602179055508173ffffffffffffffffffffffffffffffffffffffff168173ffffffffffffffffffffffffffffffffffffffff167f8be0079c531659141344cd1fd0a4f28419497f9722a3daafe3b4186f6b6457e060405160405180910390a35050565b6123e1611036565b15612421576040517f08c379a000000000000000000000000000000000000000000000000000000000815260040161241890612e7a565b60405180910390fd5b6001600060146101000a81548160ff0219169083151502179055507f62e78cea01bee320cd4e420270b5ea74000d11b0c9f74754ebdbfc544b05a258612465612246565b6040516124729190612d43565b60405180910390a1565b6000806040518060a001604052808581526020014267ffffffffffffffff1681526020018863ffffffff1681526020018763ffffffff1681526020018661ffff16815250905060058190806001815401808255809150506001900390600052602060002090600202016000909190919091506000820151816000015560208201518160010160006101000a81548167ffffffffffffffff021916908367ffffffffffffffff16021790555060408201518160010160086101000a81548163ffffffff021916908363ffffffff160217905550606082015181600101600c6101000a81548163ffffffff021916908363ffffffff16021790555060808201518160010160106101000a81548161ffff021916908361ffff1602179055505050600060016005805490506125ae91906130d9565b90507f0a5311bd2a6608f08a180df2ee7c5946819a649b204b554bb8e39825b2c50ad584828a8a896040516125e7959493929190612daa565b60405180910390a16125fb6000858361207f565b809250505095945050505050565b600080662386f26fc1000090506000655af3107a40009050600080600190505b600881116126dd5760006002826126409190613259565b141561267b578284886126539190613259565b61265d919061304e565b60648361266a919061307f565b6126749190612ff8565b91506126ac565b8284876126889190613259565b612692919061304e565b60648361269f919061307f565b6126a99190612ff8565b91505b6064846126b9919061304e565b93506064836126c8919061304e565b925080806126d590613210565b915050612629565b8194505050505092915050565b60006126f584612804565b61270257600190506127fc565b60008473ffffffffffffffffffffffffffffffffffffffff1663150b7a02338887876040518563ffffffff1660e01b81526004016127439493929190612d5e565b602060405180830381600087803b15801561275d57600080fd5b505af1158015612771573d6000803e3d6000fd5b505050506040513d601f19601f820116820180604052508101906127959190612af4565b90507f150b7a023d4804d13e8c85fb27262cb750cf6ba9f9dd3bb30d90f482ceeb4b1f7bffffffffffffffffffffffffffffffffffffffffffffffffffffffff1916817bffffffffffffffffffffffffffffffffffffffffffffffffffffffff1916149150505b949350505050565b600080823b905060008163ffffffff1611915050919050565b60008135905061282c81613464565b92915050565b6000813590506128418161347b565b92915050565b60008135905061285681613492565b92915050565b60008151905061286b81613492565b92915050565b60008083601f84011261288357600080fd5b8235905067ffffffffffffffff81111561289c57600080fd5b6020830191508360018202830111156128b457600080fd5b9250929050565b6000813590506128ca816134a9565b92915050565b6000602082840312156128e257600080fd5b60006128f08482850161281d565b91505092915050565b6000806040838503121561290c57600080fd5b600061291a8582860161281d565b925050602061292b8582860161281d565b9150509250929050565b60008060006060848603121561294a57600080fd5b60006129588682870161281d565b93505060206129698682870161281d565b925050604061297a868287016128bb565b9150509250925092565b60008060008060006080868803121561299c57600080fd5b60006129aa8882890161281d565b95505060206129bb8882890161281d565b94505060406129cc888289016128bb565b935050606086013567ffffffffffffffff8111156129e957600080fd5b6129f588828901612871565b92509250509295509295909350565b60008060408385031215612a1757600080fd5b6000612a258582860161281d565b9250506020612a3685828601612832565b9150509250929050565b60008060408385031215612a5357600080fd5b6000612a618582860161281d565b9250506020612a72858286016128bb565b9150509250929050565b600080600060608486031215612a9157600080fd5b6000612a9f8682870161281d565b9350506020612ab0868287016128bb565b9250506040612ac18682870161281d565b9150509250925092565b600060208284031215612add57600080fd5b6000612aeb84828501612847565b91505092915050565b600060208284031215612b0657600080fd5b6000612b148482850161285c565b91505092915050565b600060208284031215612b2f57600080fd5b6000612b3d848285016128bb565b91505092915050565b60008060408385031215612b5957600080fd5b6000612b67858286016128bb565b9250506020612b78858286016128bb565b9150509250929050565b612b8b8161310d565b82525050565b612b9a8161311f565b82525050565b6000612bab82612f88565b612bb58185612f9e565b9350612bc58185602086016131b3565b612bce816132e8565b840191505092915050565b6000612be482612f93565b612bee8185612faf565b9350612bfe8185602086016131b3565b612c07816132e8565b840191505092915050565b6000612c1f601483612faf565b9150612c2a826132f9565b602082019050919050565b6000612c42602683612faf565b9150612c4d82613322565b604082019050919050565b6000612c65601083612faf565b9150612c7082613371565b602082019050919050565b6000612c88602483612faf565b9150612c938261339a565b604082019050919050565b6000612cab602083612faf565b9150612cb6826133e9565b602082019050919050565b6000612cce601a83612faf565b9150612cd982613412565b602082019050919050565b6000612cf1601b83612faf565b9150612cfc8261343b565b602082019050919050565b612d1081613157565b82525050565b612d1f81613185565b82525050565b612d2e8161318f565b82525050565b612d3d8161319f565b82525050565b6000602082019050612d586000830184612b82565b92915050565b6000608082019050612d736000830187612b82565b612d806020830186612b82565b612d8d6040830185612d16565b8181036060830152612d9f8184612ba0565b905095945050505050565b600060a082019050612dbf6000830188612b82565b612dcc6020830187612d16565b612dd96040830186612d16565b612de66060830185612d16565b612df36080830184612d16565b9695505050505050565b6000602082019050612e126000830184612b91565b92915050565b60006020820190508181036000830152612e328184612bd9565b905092915050565b60006020820190508181036000830152612e5381612c12565b9050919050565b60006020820190508181036000830152612e7381612c35565b9050919050565b60006020820190508181036000830152612e9381612c58565b9050919050565b60006020820190508181036000830152612eb381612c7b565b9050919050565b60006020820190508181036000830152612ed381612c9e565b9050919050565b60006020820190508181036000830152612ef381612cc1565b9050919050565b60006020820190508181036000830152612f1381612ce4565b9050919050565b6000602082019050612f2f6000830184612d16565b92915050565b600060a082019050612f4a6000830188612d16565b612f576020830187612d34565b612f646040830186612d25565b612f716060830185612d25565b612f7e6080830184612d07565b9695505050505050565b600081519050919050565b600081519050919050565b600082825260208201905092915050565b600082825260208201905092915050565b6000612fcb82613157565b9150612fd683613157565b92508261ffff03821115612fed57612fec61328a565b5b828201905092915050565b600061300382613185565b915061300e83613185565b9250827fffffffffffffffffffffffffffffffffffffffffffffffffffffffffffffffff038211156130435761304261328a565b5b828201905092915050565b600061305982613185565b915061306483613185565b925082613074576130736132b9565b5b828204905092915050565b600061308a82613185565b915061309583613185565b9250817fffffffffffffffffffffffffffffffffffffffffffffffffffffffffffffffff04831182151516156130ce576130cd61328a565b5b828202905092915050565b60006130e482613185565b91506130ef83613185565b9250828210156131025761310161328a565b5b828203905092915050565b600061311882613165565b9050919050565b60008115159050919050565b60007fffffffff0000000000000000000000000000000000000000000000000000000082169050919050565b600061ffff82169050919050565b600073ffffffffffffffffffffffffffffffffffffffff82169050919050565b6000819050919050565b600063ffffffff82169050919050565b600067ffffffffffffffff82169050919050565b60005b838110156131d15780820151818401526020810190506131b6565b838111156131e0576000848401525b50505050565b60006131f182613185565b915060008214156132055761320461328a565b5b600182039050919050565b600061321b82613185565b91507fffffffffffffffffffffffffffffffffffffffffffffffffffffffffffffffff82141561324e5761324d61328a565b5b600182019050919050565b600061326482613185565b915061326f83613185565b92508261327f5761327e6132b9565b5b828206905092915050565b7f4e487b7100000000000000000000000000000000000000000000000000000000600052601160045260246000fd5b7f4e487b7100000000000000000000000000000000000000000000000000000000600052601260045260246000fd5b6000601f19601f8301169050919050565b7f5061757361626c653a206e6f7420706175736564000000000000000000000000600082015250565b7f4f776e61626c653a206e6577206f776e657220697320746865207a65726f206160008201527f6464726573730000000000000000000000000000000000000000000000000000602082015250565b7f5061757361626c653a2070617573656400000000000000000000000000000000600082015250565b7f596f7520617265206e6f7420746865206f776e6572206f662074686520746f6b60008201527f656e496400000000000000000000000000000000000000000000000000000000602082015250565b7f4f776e61626c653a2063616c6c6572206973206e6f7420746865206f776e6572600082015250565b7f74686520746f6b656e494420646f6573206e6f74206578697374000000000000600082015250565b7f6d73672e73656e646572206973206e6f7420746865206f776e65720000000000600082015250565b61346d8161310d565b811461347857600080fd5b50565b6134848161311f565b811461348f57600080fd5b50565b61349b8161312b565b81146134a657600080fd5b50565b6134b281613185565b81146134bd57600080fd5b5056fea26469706673582212204ee343daf986e17adb0947084e87ac09f5b8544921a1f2eac7ffdef4f4853cb464736f6c63430008040033",
  "immutableReferences": {},
  "source": "//SPDX-License-Identifier: MIT\r\npragma solidity ^0.8.4;\r\nimport \"../node_modules/@openzeppelin/contracts/token/ERC721/IERC721Receiver.sol\";\r\nimport \"../node_modules/@openzeppelin/contracts/token/ERC721/IERC721.sol\";\r\nimport \"../node_modules/@openzeppelin/contracts/utils/math/SafeMath.sol\";\r\nimport \"../node_modules/@openzeppelin/contracts/access/Ownable.sol\";\r\nimport \"../node_modules/@openzeppelin/contracts/security/Pausable.sol\";\r\n\r\n\r\ncontract KittyContract is IERC721,Ownable, Pausable {\r\n    using SafeMath for uint256;\r\n    \r\n    event Birth(\r\n        address owner, \r\n        uint256 kittenId, \r\n        uint256 mumId, \r\n        uint256 dadId, \r\n        uint256 genes\r\n    );\r\n \r\n    mapping (address => uint256) private ownershipTokenCount;\r\n    mapping (uint256 => address) private ownershipTokenID;\r\n    mapping (uint256 => address) private kittyIndexToApproved;\r\n    mapping (address => mapping(address => bool)) private _operatorApprovals; \r\n\r\n    \r\n    string  constant  private tName = 'Carlos Kitty Token';\r\n    string  constant private tSymbol = 'CKT';\r\n    bytes4 internal constant MAGIC_ERC721_RECEIVED = bytes4(keccak256(\"onERC721Received(address,address,uint256,bytes)\")); // from IERC721 interface\r\n\r\n    struct Kitty {\r\n        uint256 genes;\r\n        uint64 birthTime;\r\n        uint32 mumId;\r\n        uint32 dadId;\r\n        uint16 generation;\r\n    }\r\n    Kitty[] kitties;\r\n    \r\n    function close() onlyOwner public {\r\n        address closeOwner = owner();\r\n        selfdestruct(payable(closeOwner)); \r\n    }\r\n\r\n    function pause() external  onlyOwner whenNotPaused {\r\n        _pause();\r\n    }\r\n\r\n    function unpause() external   onlyOwner whenPaused {\r\n        _unpause();\r\n    }\r\n\r\n    function supportsInterface(bytes4 interfaceId) external pure override  returns(bool){ // FOR ERC765\r\n        return interfaceId == type(IERC165).interfaceId;\r\n    }\r\n\r\n    function breed(uint256 _dadId, uint256 _mumId) public whenNotPaused  {\r\n        require(_dadId < kitties.length &&_mumId < kitties.length);\r\n        require(ownershipTokenID[_dadId]==  msg.sender && ownershipTokenID[_mumId]== msg.sender); // check ownership \r\n        uint256 dadDna = kitties[_dadId].genes; // you got the DNA \r\n        uint256 mumDna = kitties[_mumId].genes;\r\n        uint256 newGen;  // figure out the generation\r\n        if(kitties[_dadId].generation >= kitties[_mumId].generation){\r\n            newGen = kitties[_dadId].generation + 1;\r\n        }\r\n        else \r\n        {\r\n            newGen = kitties[_mumId].generation + 1;\r\n        }\r\n        uint256 newDna= _mixDna(dadDna, mumDna);\r\n        _createKitty(_mumId, _dadId, newGen,newDna, msg.sender); // create a new cat with te new properties, give it to the msg.sender   \r\n    }\r\n\r\n    function balanceOf(address owner) external view override whenNotPaused returns (uint256 balance){\r\n        return ownershipTokenCount[owner];\r\n    }\r\n\r\n    function totalSupply() external view whenNotPaused returns (uint256 total) {\r\n        return kitties.length;\r\n    }\r\n\r\n    function name() external pure  returns (string memory tokenName) {\r\n        return tName;\r\n    }\r\n\r\n    function symbol() external pure  returns (string memory tokenSymbol) {\r\n        return tSymbol;\r\n    }\r\n\r\n    function ownerOf(uint256 tokenId) external view override whenNotPaused returns (address owner) {\r\n        return ownershipTokenID[tokenId];\r\n    }\r\n\r\n    function transfer(address to, uint256 tokenId) external  payable whenNotPaused {\r\n        require(to != address(0)); //`to` cannot be the zero address.\r\n        require(to != address(this)); // to` can not be the contract address.\r\n        require(_owns(msg.sender, tokenId));    // tokenId` token must be owned by `msg.sender`\r\n        _transfer(msg.sender, to, tokenId);\r\n        emit Transfer(msg.sender, to, tokenId); // Emits a {Transfer} event.\r\n    }\r\n\r\n    function _transfer(address _from, address _to, uint256 _tokenId) internal {\r\n        ownershipTokenCount[_to]++;\r\n        ownershipTokenID[_tokenId] = _to;       \r\n        if (_from != address(0)) {\r\n            ownershipTokenCount[_from]--;\r\n            delete kittyIndexToApproved[_tokenId];\r\n        }\r\n        emit Transfer(_from, _to, _tokenId);\r\n    }\r\n\r\n    function _owns(address _claimant, uint256 _tokenId) internal view returns (bool) {\r\n      return ownershipTokenID[_tokenId] == _claimant;\r\n    }\r\n\r\n    function _createKitty(\r\n        uint256 _mumId,\r\n        uint256 _dadId,\r\n        uint256 _generation,\r\n        uint256 _genes,\r\n        address _owner\r\n    ) private returns (uint256) {\r\n        Kitty memory _kitty = Kitty({\r\n            genes: _genes,\r\n            birthTime: uint64(block.timestamp),\r\n            mumId: uint32(_mumId),\r\n            dadId: uint32(_dadId),\r\n            generation: uint16(_generation)\r\n        });\r\n        kitties.push(_kitty);\r\n        uint256 newKittenId = kitties.length - 1;\r\n        emit Birth(_owner, newKittenId, _mumId, _dadId, _genes);\r\n        _transfer(address(0), _owner, newKittenId);\r\n        return newKittenId;\r\n    }\r\n\r\n    function createKittyGen0(uint256 genes)  public payable whenNotPaused returns (uint256) { // anyone can create generation 0 kitty \r\n        return _createKitty(0, 0, 0, genes, msg.sender);\r\n    }\r\n\r\n    function getKitty(uint256 kittyId) public view whenNotPaused returns(uint256, uint64, uint32, uint32, uint16){\r\n             return (kitties[kittyId].genes, kitties[kittyId].birthTime, kitties[kittyId].mumId,\r\n             kitties[kittyId].dadId, kitties[kittyId].generation); \r\n    }\r\n\r\n    function approve(address _approved, uint256 _tokenId) external override whenNotPaused{\r\n        require(_owns(msg.sender, _tokenId),\"msg.sender is not the owner\");\r\n        kittyIndexToApproved[_tokenId] = _approved;\r\n        emit Approval(msg.sender, _approved, _tokenId);\r\n    }\r\n\r\n    function approve(address _approved, uint256 _tokenId, address from) external whenNotPaused {\r\n        require(_owns(from, _tokenId),\"msg.sender is not the owner\");\r\n        kittyIndexToApproved[_tokenId] = _approved;\r\n        emit Approval(msg.sender, _approved, _tokenId);\r\n    }\r\n    \r\n    function getApproved(uint256 _tokenId) external view override whenNotPaused  returns (address) {\r\n        require(ownershipTokenID[_tokenId]== msg.sender, \"You are not the owner of the tokenId\");\r\n        require(_tokenId < kitties.length, \"the tokenID does not exist\");    \r\n        return kittyIndexToApproved[_tokenId];\r\n    }\r\n    \r\n    function setApprovalForAll(address _operator, bool _approved) external override whenNotPaused {\r\n        require(_operator != msg.sender);\r\n        _operatorApprovals[msg.sender][_operator] = _approved;\r\n        emit ApprovalForAll(msg.sender, _operator,_approved);\r\n    }\r\n    \r\n    function isApprovedForAll(address _owner, address _operator) external view override whenNotPaused returns (bool) {\r\n         return _operatorApprovals[_owner][_operator];\r\n    }\r\n\r\n    function transferFrom(address _from, address _to, uint256 _tokenId) external override whenNotPaused {\r\n        require(_to != address(0)); \r\n        //require(_to != address(this)); \r\n        require(_owns(msg.sender, _tokenId) || kittyIndexToApproved[_tokenId] == msg.sender || _operatorApprovals[_from][msg.sender] == true);\r\n        //Throws unless `msg.sender` is the current owner or is the approved address for this NFT or  is an authorized operator\r\n        require(_owns(_from, _tokenId)); //Throws if `_from` is not the current owner\r\n        require(_tokenId < kitties.length, \"the tokenID does not exist\"); \r\n        _transfer(_from,  _to,  _tokenId);\r\n    }\r\n\r\n    function safeTransferFrom(address _from, address _to, uint256 _tokenId, bytes calldata data) external override whenNotPaused{\r\n        require(_owns(msg.sender, _tokenId) || kittyIndexToApproved[_tokenId] == msg.sender || _operatorApprovals[_from][msg.sender] == true);\r\n        require(_owns(_from, _tokenId));\r\n        require(_to != address(0));\r\n        require(_tokenId < kitties.length, \"the tokenID does not exist\");\r\n        _SafeTransferFrom(_from, _to, _tokenId, data);\r\n    }\r\n\r\n    function safeTransferFrom(address _from, address _to, uint256 _tokenId) external override whenNotPaused{\r\n        require(_owns(msg.sender, _tokenId) || kittyIndexToApproved[_tokenId] == msg.sender || _operatorApprovals[_from][msg.sender] == true);\r\n        require(_owns(_from, _tokenId));\r\n        require(_to != address(0));\r\n        require(_tokenId < kitties.length, \"the tokenID does not exist\");\r\n        _SafeTransferFrom(_from, _to, _tokenId, '0');\r\n    }\r\n\r\n    function _SafeTransferFrom(address _from, address _to, uint256 _tokenId, bytes memory _data) internal {\r\n        _transfer(_from, _to, _tokenId);\r\n        require(_checkERC721Support(_from, _to, _tokenId, _data));\r\n    }\r\n\r\n    function _checkERC721Support(address _from, address _to, uint256 _tokenId, bytes memory _data) internal returns(bool){\r\n        if(!_isContract(_to)){ // if the address is not a contract is easy otherwise you need to know if this contract can manipulate ERC721 tokens\r\n            return true;    \r\n        }\r\n        bytes4 returnData = IERC721Receiver(_to).onERC721Received(msg.sender, _from, _tokenId, _data); // call onERC721Received() function(in ERC721 you must include this function) on IERC721Receiver contract\r\n        return returnData == MAGIC_ERC721_RECEIVED;\r\n    }\r\n\r\n    function _isContract(address _to) internal view returns (bool){\r\n        uint32 size; \r\n        assembly { // only to talk directly.  machine code \r\n            size := extcodesize(_to) // gets the size \r\n        }\r\n        return size > 0; // for a contract must be > 0 \r\n    }\r\n\r\n    function _mixDna(uint256 _dadDna, uint256 _mumDna) internal pure returns (uint256){\r\n        uint256 mod= 10000000000000000;\r\n        uint256 div= 100000000000000;\r\n        uint256 newDna= 0;\r\n        uint i;\r\n\r\n        for (i=1; i<=8; i++){\r\n            if(i%2==0) {// _dadDna wins \r\n            newDna = (newDna*100)+((_dadDna%mod)/div);\r\n            }\r\n            else { // _mumDna wins\r\n            newDna = (newDna*100)+((_mumDna%mod)/div);\r\n            }\r\n            mod = mod/100;\r\n            div = div/100;\r\n        }\r\n        return newDna;\r\n    }\r\n        \r\n}   \r\n",
  "sourcePath": "E:/Importante/Programas creados imagenes iso etc/Programas blockchain/Ethereum Truffle/Kitties_project/contracts/KittyContract.sol",
  "compiler": {
    "name": "solc",
    "version": "0.8.4+commit.c7e474f2.Emscripten.clang"
  },
  "schemaVersion": "3.3.4",
  "updatedAt": "2021-09-16T23:45:27.949Z",
  "networkType": "ethereum",
  "devdoc": {
    "kind": "dev",
    "methods": {
      "balanceOf(address)": {
        "details": "Returns the number of tokens in ``owner``'s account."
      },
      "owner()": {
        "details": "Returns the address of the current owner."
      },
      "ownerOf(uint256)": {
        "details": "Returns the owner of the `tokenId` token. Requirements: - `tokenId` must exist."
      },
      "paused()": {
        "details": "Returns true if the contract is paused, and false otherwise."
      },
      "renounceOwnership()": {
        "details": "Leaves the contract without owner. It will not be possible to call `onlyOwner` functions anymore. Can only be called by the current owner. NOTE: Renouncing ownership will leave the contract without an owner, thereby removing any functionality that is only available to the owner."
      },
      "supportsInterface(bytes4)": {
        "details": "Returns true if this contract implements the interface defined by `interfaceId`. See the corresponding https://eips.ethereum.org/EIPS/eip-165#how-interfaces-are-identified[EIP section] to learn more about how these ids are created. This function call must use less than 30 000 gas."
      },
      "transferOwnership(address)": {
        "details": "Transfers ownership of the contract to a new account (`newOwner`). Can only be called by the current owner."
      }
    },
    "version": 1
  },
  "userdoc": {
    "kind": "user",
    "methods": {},
    "version": 1
  }
}