{
  "contractName": "Marketplace",
  "abi": [
    {
      "inputs": [],
      "stateMutability": "nonpayable",
      "type": "constructor"
    },
    {
      "anonymous": false,
      "inputs": [
        {
          "indexed": false,
          "internalType": "string",
          "name": "TxType",
          "type": "string"
        },
        {
          "indexed": false,
          "internalType": "address",
          "name": "owner",
          "type": "address"
        },
        {
          "indexed": false,
          "internalType": "uint256",
          "name": "tokenId",
          "type": "uint256"
        }
      ],
      "name": "MarketTransaction",
      "type": "event"
    },
    {
      "inputs": [
        {
          "internalType": "uint256",
          "name": "",
          "type": "uint256"
        }
      ],
      "name": "tokenIdToOffer",
      "outputs": [
        {
          "internalType": "address payable",
          "name": "seller",
          "type": "address"
        },
        {
          "internalType": "uint256",
          "name": "price",
          "type": "uint256"
        },
        {
          "internalType": "uint256",
          "name": "index",
          "type": "uint256"
        },
        {
          "internalType": "uint256",
          "name": "tokenId",
          "type": "uint256"
        },
        {
          "internalType": "bool",
          "name": "active",
          "type": "bool"
        }
      ],
      "stateMutability": "view",
      "type": "function",
      "constant": true
    },
    {
      "inputs": [
        {
          "internalType": "address",
          "name": "_kittyContractAddress",
          "type": "address"
        }
      ],
      "name": "setKittyContract",
      "outputs": [],
      "stateMutability": "nonpayable",
      "type": "function"
    },
    {
      "inputs": [],
      "name": "balanceFromMarket",
      "outputs": [
        {
          "internalType": "uint256",
          "name": "",
          "type": "uint256"
        }
      ],
      "stateMutability": "view",
      "type": "function",
      "constant": true
    },
    {
      "inputs": [],
      "name": "totalSupplyFromMarket",
      "outputs": [
        {
          "internalType": "uint256",
          "name": "",
          "type": "uint256"
        }
      ],
      "stateMutability": "view",
      "type": "function",
      "constant": true
    },
    {
      "inputs": [
        {
          "internalType": "uint256",
          "name": "_price",
          "type": "uint256"
        },
        {
          "internalType": "uint256",
          "name": "_tokenId",
          "type": "uint256"
        }
      ],
      "name": "setOffer",
      "outputs": [],
      "stateMutability": "nonpayable",
      "type": "function"
    },
    {
      "inputs": [
        {
          "internalType": "uint256",
          "name": "_tokenId",
          "type": "uint256"
        }
      ],
      "name": "removeOffer",
      "outputs": [],
      "stateMutability": "nonpayable",
      "type": "function"
    },
    {
      "inputs": [
        {
          "internalType": "uint256",
          "name": "_tokenId",
          "type": "uint256"
        }
      ],
      "name": "getOffer",
      "outputs": [
        {
          "internalType": "address",
          "name": "seller",
          "type": "address"
        },
        {
          "internalType": "uint256",
          "name": "price",
          "type": "uint256"
        },
        {
          "internalType": "uint256",
          "name": "index",
          "type": "uint256"
        },
        {
          "internalType": "uint256",
          "name": "tokenId",
          "type": "uint256"
        },
        {
          "internalType": "bool",
          "name": "active",
          "type": "bool"
        }
      ],
      "stateMutability": "view",
      "type": "function",
      "constant": true
    },
    {
      "inputs": [],
      "name": "getAllTokenOnSale",
      "outputs": [
        {
          "internalType": "uint256[]",
          "name": "listOfOffers",
          "type": "uint256[]"
        }
      ],
      "stateMutability": "view",
      "type": "function",
      "constant": true
    },
    {
      "inputs": [
        {
          "internalType": "uint256",
          "name": "_tokenId",
          "type": "uint256"
        }
      ],
      "name": "buyKitty",
      "outputs": [],
      "stateMutability": "payable",
      "type": "function",
      "payable": true
    }
  ],
  "bytecode": "0x608060405234801561001057600080fd5b5073c7e8420a2715fb2474963279ad91e57fce2998e3600460006101000a81548173ffffffffffffffffffffffffffffffffffffffff021916908373ffffffffffffffffffffffffffffffffffffffff160217905550611fa5806100756000396000f3fe6080604052600436106100865760003560e01c806362b7f94e1161005957806362b7f94e1461014d578063941b055b1461017657806395a0f9c71461019f578063ae5310f6146101c8578063d531fe2b146101e457610086565b8063267c1fa91461008b5780634579268a146100b657806349b3709f146100f757806353f514fa14610122575b600080fd5b34801561009757600080fd5b506100a0610225565b6040516100ad9190611af5565b60405180910390f35b3480156100c257600080fd5b506100dd60048036038101906100d89190611597565b6102d7565b6040516100ee95949392919061190c565b60405180910390f35b34801561010357600080fd5b5061010c6103fc565b604051610119919061195f565b60405180910390f35b34801561012e57600080fd5b50610137610454565b6040516101449190611af5565b60405180910390f35b34801561015957600080fd5b50610174600480360381019061016f9190611545565b6104fb565b005b34801561018257600080fd5b5061019d600480360381019061019891906115e9565b61053f565b005b3480156101ab57600080fd5b506101c660048036038101906101c19190611597565b610965565b005b6101e260048036038101906101dd9190611597565b610acc565b005b3480156101f057600080fd5b5061020b60048036038101906102069190611597565b610d28565b60405161021c959493929190611882565b60405180910390f35b6000600460009054906101000a900473ffffffffffffffffffffffffffffffffffffffff1673ffffffffffffffffffffffffffffffffffffffff166370a08231336040518263ffffffff1660e01b81526004016102829190611830565b60206040518083038186803b15801561029a57600080fd5b505afa1580156102ae573d6000803e3d6000fd5b505050506040513d601f19601f820116820180604052508101906102d291906115c0565b905090565b6000806000806000600115156003600088815260200190815260200160002060040160009054906101000a900460ff16151514610349576040517f08c379a000000000000000000000000000000000000000000000000000000000815260040161034090611ad5565b60405180910390fd5b6003600087815260200190815260200160002060000160009054906101000a900473ffffffffffffffffffffffffffffffffffffffff1660036000888152602001908152602001600020600101546003600089815260200190815260200160002060020154600360008a815260200190815260200160002060030154600360008b815260200190815260200160002060040160009054906101000a900460ff169450945094509450945091939590929450565b6060600180548060200260200160405190810160405280929190818152602001828054801561044a57602002820191906000526020600020905b815481526020019060010190808311610436575b5050505050905090565b6000600460009054906101000a900473ffffffffffffffffffffffffffffffffffffffff1673ffffffffffffffffffffffffffffffffffffffff166318160ddd6040518163ffffffff1660e01b815260040160206040518083038186803b1580156104be57600080fd5b505afa1580156104d2573d6000803e3d6000fd5b505050506040513d601f19601f820116820180604052508101906104f691906115c0565b905090565b80600460006101000a81548173ffffffffffffffffffffffffffffffffffffffff021916908373ffffffffffffffffffffffffffffffffffffffff16021790555050565b3373ffffffffffffffffffffffffffffffffffffffff16600460009054906101000a900473ffffffffffffffffffffffffffffffffffffffff1673ffffffffffffffffffffffffffffffffffffffff16636352211e836040518263ffffffff1660e01b81526004016105b19190611af5565b60206040518083038186803b1580156105c957600080fd5b505afa1580156105dd573d6000803e3d6000fd5b505050506040513d601f19601f82011682018060405250810190610601919061156e565b73ffffffffffffffffffffffffffffffffffffffff1614610657576040517f08c379a000000000000000000000000000000000000000000000000000000000815260040161064e90611a1d565b60405180910390fd5b600015156003600083815260200190815260200160002060040160009054906101000a900460ff161515146106c1576040517f08c379a00000000000000000000000000000000000000000000000000000000081526004016106b890611981565b60405180910390fd5b60006040518060a001604052803373ffffffffffffffffffffffffffffffffffffffff16815260200184815260200160008081548092919061070290611c74565b919050558152602001838152602001600115158152509050806003600084815260200190815260200160002060008201518160000160006101000a81548173ffffffffffffffffffffffffffffffffffffffff021916908373ffffffffffffffffffffffffffffffffffffffff16021790555060208201518160010155604082015181600201556060820151816003015560808201518160040160006101000a81548160ff021916908315150217905550905050600281908060018154018082558091505060019003906000526020600020906005020160009091909190915060008201518160000160006101000a81548173ffffffffffffffffffffffffffffffffffffffff021916908373ffffffffffffffffffffffffffffffffffffffff16021790555060208201518160010155604082015181600201556060820151816003015560808201518160040160006101000a81548160ff0219169083151502179055505050600181606001519080600181540180825580915050600190039060005260206000200160009091909190915055600460009054906101000a900473ffffffffffffffffffffffffffffffffffffffff1673ffffffffffffffffffffffffffffffffffffffff16631271f09a3084336040518463ffffffff1660e01b81526004016108f5939291906118d5565b600060405180830381600087803b15801561090f57600080fd5b505af1158015610923573d6000803e3d6000fd5b505050507fd99e4fad9ad6313b1feb588fa8e605e3a9873172f2024330c35dd2b4041a438633836040516109589291906119e1565b60405180910390a1505050565b3373ffffffffffffffffffffffffffffffffffffffff16600460009054906101000a900473ffffffffffffffffffffffffffffffffffffffff1673ffffffffffffffffffffffffffffffffffffffff16636352211e836040518263ffffffff1660e01b81526004016109d79190611af5565b60206040518083038186803b1580156109ef57600080fd5b505afa158015610a03573d6000803e3d6000fd5b505050506040513d601f19601f82011682018060405250810190610a27919061156e565b73ffffffffffffffffffffffffffffffffffffffff1614610a7d576040517f08c379a0000000000000000000000000000000000000000000000000000000008152600401610a74906119c1565b60405180910390fd5b610a8681610d8b565b50610a9081611409565b7fd99e4fad9ad6313b1feb588fa8e605e3a9873172f2024330c35dd2b4041a43863382604051610ac1929190611a79565b60405180910390a150565b600115156003600083815260200190815260200160002060040160009054906101000a900460ff16151514610b36576040517f08c379a0000000000000000000000000000000000000000000000000000000008152600401610b2d906119a1565b60405180910390fd5b3460036000838152602001908152602001600020600101541015610b8f576040517f08c379a0000000000000000000000000000000000000000000000000000000008152600401610b8690611ab5565b60405180910390fd5b60003490506003600083815260200190815260200160002060000160009054906101000a900473ffffffffffffffffffffffffffffffffffffffff1673ffffffffffffffffffffffffffffffffffffffff166108fc829081150290604051600060405180830381858888f19350505050158015610c10573d6000803e3d6000fd5b50600460009054906101000a900473ffffffffffffffffffffffffffffffffffffffff1673ffffffffffffffffffffffffffffffffffffffff166323b872dd6003600085815260200190815260200160002060000160009054906101000a900473ffffffffffffffffffffffffffffffffffffffff1633856040518463ffffffff1660e01b8152600401610ca69392919061184b565b600060405180830381600087803b158015610cc057600080fd5b505af1158015610cd4573d6000803e3d6000fd5b50505050610ce182610d8b565b50610ceb82611409565b7fd99e4fad9ad6313b1feb588fa8e605e3a9873172f2024330c35dd2b4041a43863383604051610d1c929190611a3d565b60405180910390a15050565b60036020528060005260406000206000915090508060000160009054906101000a900473ffffffffffffffffffffffffffffffffffffffff16908060010154908060020154908060030154908060040160009054906101000a900460ff16905085565b60008060008360018080549050610da29190611bb0565b1415610ea5576001805480610de0577f4e487b7100000000000000000000000000000000000000000000000000000000600052603160045260246000fd5b600190038181906000526020600020016000905590556002805480610e2e577f4e487b7100000000000000000000000000000000000000000000000000000000600052603160045260246000fd5b6001900381819060005260206000209060050201600080820160006101000a81549073ffffffffffffffffffffffffffffffffffffffff02191690556001820160009055600282016000905560038201600090556004820160006101000a81549060ff021916905550509055600092505050611404565b5b6001805490508211611401578360018381548110610eed577f4e487b7100000000000000000000000000000000000000000000000000000000600052603260045260246000fd5b906000526020600020015414156110f05760018083610f0c9190611b5a565b81548110610f43577f4e487b7100000000000000000000000000000000000000000000000000000000600052603260045260246000fd5b906000526020600020015460018381548110610f88577f4e487b7100000000000000000000000000000000000000000000000000000000600052603260045260246000fd5b90600052602060002001819055506002600183610fa59190611b5a565b81548110610fdc577f4e487b7100000000000000000000000000000000000000000000000000000000600052603260045260246000fd5b906000526020600020906005020160028381548110611024577f4e487b7100000000000000000000000000000000000000000000000000000000600052603260045260246000fd5b90600052602060002090600502016000820160009054906101000a900473ffffffffffffffffffffffffffffffffffffffff168160000160006101000a81548173ffffffffffffffffffffffffffffffffffffffff021916908373ffffffffffffffffffffffffffffffffffffffff1602179055506001820154816001015560028201548160020155600382015481600301556004820160009054906101000a900460ff168160040160006101000a81548160ff021916908315150217905550905050600190506113ee565b600180805490506111019190611bb0565b821415611205576001805480611140577f4e487b7100000000000000000000000000000000000000000000000000000000600052603160045260246000fd5b60019003818190600052602060002001600090559055600280548061118e577f4e487b7100000000000000000000000000000000000000000000000000000000600052603160045260246000fd5b6001900381819060005260206000209060050201600080820160006101000a81549073ffffffffffffffffffffffffffffffffffffffff02191690556001820160009055600282016000905560038201600090556004820160006101000a81549060ff021916905550509055600092505050611404565b600181836112139190611b5a565b8154811061124a577f4e487b7100000000000000000000000000000000000000000000000000000000600052603260045260246000fd5b90600052602060002001546001838154811061128f577f4e487b7100000000000000000000000000000000000000000000000000000000600052603260045260246000fd5b9060005260206000200181905550600281836112ab9190611b5a565b815481106112e2577f4e487b7100000000000000000000000000000000000000000000000000000000600052603260045260246000fd5b90600052602060002090600502016002838154811061132a577f4e487b7100000000000000000000000000000000000000000000000000000000600052603260045260246000fd5b90600052602060002090600502016000820160009054906101000a900473ffffffffffffffffffffffffffffffffffffffff168160000160006101000a81548173ffffffffffffffffffffffffffffffffffffffff021916908373ffffffffffffffffffffffffffffffffffffffff1602179055506001820154816001015560028201548160020155600382015481600301556004820160009054906101000a900460ff168160040160006101000a81548160ff0219169083151502179055509050505b81806113f990611c74565b925050610ea6565b50505b919050565b60006040518060a00160405280600073ffffffffffffffffffffffffffffffffffffffff168152602001600081526020016000815260200160008152602001600015158152509050806003600084815260200190815260200160002060008201518160000160006101000a81548173ffffffffffffffffffffffffffffffffffffffff021916908373ffffffffffffffffffffffffffffffffffffffff16021790555060208201518160010155604082015181600201556060820151816003015560808201518160040160006101000a81548160ff0219169083151502179055509050505050565b60008135905061150081611f41565b92915050565b60008151905061151581611f41565b92915050565b60008135905061152a81611f58565b92915050565b60008151905061153f81611f58565b92915050565b60006020828403121561155757600080fd5b6000611565848285016114f1565b91505092915050565b60006020828403121561158057600080fd5b600061158e84828501611506565b91505092915050565b6000602082840312156115a957600080fd5b60006115b78482850161151b565b91505092915050565b6000602082840312156115d257600080fd5b60006115e084828501611530565b91505092915050565b600080604083850312156115fc57600080fd5b600061160a8582860161151b565b925050602061161b8582860161151b565b9150509250929050565b60006116318383611812565b60208301905092915050565b61164681611c3e565b82525050565b61165581611bf6565b82525050565b61166481611be4565b82525050565b600061167582611b20565b61167f8185611b38565b935061168a83611b10565b8060005b838110156116bb5781516116a28882611625565b97506116ad83611b2b565b92505060018101905061168e565b5085935050505092915050565b6116d181611c08565b82525050565b60006116e4603883611b49565b91506116ef82611cec565b604082019050919050565b6000611707602a83611b49565b915061171282611d3b565b604082019050919050565b600061172a602f83611b49565b915061173582611d8a565b604082019050919050565b600061174d600c83611b49565b915061175882611dd9565b602082019050919050565b6000611770602e83611b49565b915061177b82611e02565b604082019050919050565b6000611793600383611b49565b915061179e82611e51565b602082019050919050565b60006117b6600c83611b49565b91506117c182611e7a565b602082019050919050565b60006117d9603283611b49565b91506117e482611ea3565b604082019050919050565b60006117fc602583611b49565b915061180782611ef2565b604082019050919050565b61181b81611c34565b82525050565b61182a81611c34565b82525050565b6000602082019050611845600083018461165b565b92915050565b6000606082019050611860600083018661163d565b61186d602083018561165b565b61187a6040830184611821565b949350505050565b600060a082019050611897600083018861164c565b6118a46020830187611821565b6118b16040830186611821565b6118be6060830185611821565b6118cb60808301846116c8565b9695505050505050565b60006060820190506118ea600083018661165b565b6118f76020830185611821565b611904604083018461165b565b949350505050565b600060a082019050611921600083018861165b565b61192e6020830187611821565b61193b6040830186611821565b6119486060830185611821565b61195560808301846116c8565b9695505050505050565b60006020820190508181036000830152611979818461166a565b905092915050565b6000602082019050818103600083015261199a816116d7565b9050919050565b600060208201905081810360008301526119ba816116fa565b9050919050565b600060208201905081810360008301526119da8161171d565b9050919050565b600060608201905081810360008301526119fa81611740565b9050611a09602083018561165b565b611a166040830184611821565b9392505050565b60006020820190508181036000830152611a3681611763565b9050919050565b60006060820190508181036000830152611a5681611786565b9050611a65602083018561165b565b611a726040830184611821565b9392505050565b60006060820190508181036000830152611a92816117a9565b9050611aa1602083018561165b565b611aae6040830184611821565b9392505050565b60006020820190508181036000830152611ace816117cc565b9050919050565b60006020820190508181036000830152611aee816117ef565b9050919050565b6000602082019050611b0a6000830184611821565b92915050565b6000819050602082019050919050565b600081519050919050565b6000602082019050919050565b600082825260208201905092915050565b600082825260208201905092915050565b6000611b6582611c34565b9150611b7083611c34565b9250827fffffffffffffffffffffffffffffffffffffffffffffffffffffffffffffffff03821115611ba557611ba4611cbd565b5b828201905092915050565b6000611bbb82611c34565b9150611bc683611c34565b925082821015611bd957611bd8611cbd565b5b828203905092915050565b6000611bef82611c14565b9050919050565b6000611c0182611c14565b9050919050565b60008115159050919050565b600073ffffffffffffffffffffffffffffffffffffffff82169050919050565b6000819050919050565b6000611c4982611c50565b9050919050565b6000611c5b82611c62565b9050919050565b6000611c6d82611c14565b9050919050565b6000611c7f82611c34565b91507fffffffffffffffffffffffffffffffffffffffffffffffffffffffffffffffff821415611cb257611cb1611cbd565b5b600182019050919050565b7f4e487b7100000000000000000000000000000000000000000000000000000000600052601160045260246000fd5b7f54686572652063616e206f6e6c79206265206f6e6520616374697665206f666660008201527f657220666f72206120746f6b656e20617420612074696d650000000000000000602082015250565b7f5468657265206d75737420626520616e20616374697665206f6666657220666f60008201527f72205f746f6b656e496400000000000000000000000000000000000000000000602082015250565b7f4f6e6c79207468652073656c6c6572206f66205f746f6b656e49642063616e2060008201527f72656d6f766520616e206f666665720000000000000000000000000000000000602082015250565b7f437265617465206f666665720000000000000000000000000000000000000000600082015250565b7f4f6e6c7920746865206f776e6572206f66205f746f6b656e49642063616e206360008201527f726561746520616e206f66666572000000000000000000000000000000000000602082015250565b7f4275790000000000000000000000000000000000000000000000000000000000600082015250565b7f52656d6f7665206f666665720000000000000000000000000000000000000000600082015250565b7f546865206d73672e76616c7565206e6565647320746f20657175616c2074686560008201527f207072696365206f66205f746f6b656e49640000000000000000000000000000602082015250565b7f7468657265206973206e6f20616374697665206f6666657220666f72205f746f60008201527f6b656e4964000000000000000000000000000000000000000000000000000000602082015250565b611f4a81611be4565b8114611f5557600080fd5b50565b611f6181611c34565b8114611f6c57600080fd5b5056fea2646970667358221220fe0e26fed97447eaadb911faeea6dc11446c5f07a560eaa0772b2fb22ae600ec64736f6c63430008040033",
  "immutableReferences": {},
  "source": "//SPDX-License-Identifier: MIT\r\npragma solidity ^0.8.4;\r\nimport \"./IKittyMarketplace.sol\";\r\n\r\ncontract Marketplace is IKittyMarketPlace {\r\n    \r\n    \r\n    struct Offer {\r\n        address payable seller; \r\n        uint256 price; \r\n        uint256 index; \r\n        uint256 tokenId;\r\n        bool active;\r\n    }\r\n    \r\n    uint indexCount;\r\n    uint256[] tokensOnSale;\r\n    Offer[] Offers;\r\n    mapping (uint256 => Offer) public  tokenIdToOffer;\r\n        \r\n    KittyContract addr;\r\n    function setKittyContract(address _kittyContractAddress) override external{\r\n         addr =  KittyContract(_kittyContractAddress);\r\n    }\r\n\r\n    constructor() {\r\n        addr = KittyContract(0xc7E8420a2715fB2474963279AD91e57fcE2998e3);\r\n    }\r\n    \r\n    function balanceFromMarket() public view returns(uint256) {\r\n        return addr.balanceOf(msg.sender);\r\n    }\r\n    \r\n    function totalSupplyFromMarket() public view returns(uint256){\r\n        return addr.totalSupply();\r\n    }\r\n    \r\n    function setOffer(uint256 _price, uint256 _tokenId) override external {\r\n         require(addr.ownerOf(_tokenId)== msg.sender,'Only the owner of _tokenId can create an offer' );\r\n         require(tokenIdToOffer[_tokenId].active ==false, 'There can only be one active offer for a token at a time');\r\n        Offer memory _Offer = Offer ({ // Creates a new offer for _tokenId for the price _price\r\n            seller: payable(msg.sender),\r\n            price: _price,\r\n            index: indexCount++,\r\n            tokenId: _tokenId,\r\n            active: true\r\n        });\r\n        tokenIdToOffer[_tokenId] = _Offer;\r\n        Offers.push(_Offer);\r\n        tokensOnSale.push(_Offer.tokenId);\r\n        addr.approve(address(this), _tokenId, msg.sender); //Marketplace contract (this) needs to be an approved operator when the offer is created\r\n        emit MarketTransaction(\"Create offer\", msg.sender, _tokenId); //Emits the MarketTransaction event with txType \"Create offer\"\r\n    }\r\n    \r\n    function removeOffer(uint256 _tokenId) external override {\r\n        require(addr.ownerOf(_tokenId)== msg.sender, \"Only the seller of _tokenId can remove an offer\");//  Only the seller of _tokenId can remove an offer.\r\n        _removeOffer(_tokenId); // Removes an existing offer on the arrays\r\n        _removeOffer2(_tokenId);// Removes an existing offer on the map \r\n        emit MarketTransaction(\"Remove offer\", msg.sender, _tokenId); //Emits the MarketTransaction event with txType \"Remove offer\"\r\n    }\r\n\r\n    function _removeOffer(uint256 _tokenId) internal  returns(uint n) {\r\n        uint i;\r\n        uint j;\r\n        if (tokensOnSale.length-1 == _tokenId){\r\n            tokensOnSale.pop();\r\n            Offers.pop();\r\n            return 0;\r\n        }\r\n        while (i<= tokensOnSale.length){\r\n            if (tokensOnSale[i] == _tokenId){\r\n                tokensOnSale[i] = tokensOnSale[i+1];\r\n                Offers[i]= Offers[i+1];\r\n                j= 1;\r\n            }\r\n            else{\r\n                if (i== tokensOnSale.length-1){\r\n                     tokensOnSale.pop();\r\n                     Offers.pop();\r\n                    return 0;\r\n                }\r\n                tokensOnSale[i] = tokensOnSale[i+j];\r\n                Offers[i]= Offers[i+j];\r\n            }\r\n            i++;\r\n        }\r\n    }\r\n    \r\n    function _removeOffer2(uint256 _tokenId) internal {\r\n      Offer memory _Offer = Offer ({ \r\n            seller: payable(0x0000000000000000000000000000000000000000),\r\n            price: 0,\r\n            index: 0,\r\n            tokenId: 0,\r\n            active: false\r\n         });\r\n         tokenIdToOffer[_tokenId] = _Offer;  \r\n    }\r\n\r\n    function getOffer(uint256 _tokenId) external override view returns ( address seller, uint256 price, uint256 index, uint256 tokenId, bool active){\r\n        //Get the details about a offer for _tokenId. Throws an error if there is no active offer for _tokenId.\r\n        require (tokenIdToOffer[_tokenId].active == true, \"there is no active offer for _tokenId\");\r\n        return (tokenIdToOffer[_tokenId].seller, tokenIdToOffer[_tokenId].price, tokenIdToOffer[_tokenId].index,\r\n                tokenIdToOffer[_tokenId].tokenId, tokenIdToOffer[_tokenId].active);\r\n    }\r\n    \r\n    function getAllTokenOnSale() external override  view  returns(uint256[] memory listOfOffers){\r\n        // Get all tokenId's that are currently for sale. Returns an empty arror if none exist.\r\n            return tokensOnSale;\r\n    }\r\n    \r\n    function buyKitty(uint256 _tokenId) external override payable {\r\n        require(tokenIdToOffer[_tokenId].active ==true, \"There must be an active offer for _tokenId\");  \r\n        require (tokenIdToOffer[_tokenId].price >= msg.value, \"The msg.value needs to equal the price of _tokenId\"); \r\n        uint transferValue = msg.value;\r\n        tokenIdToOffer[_tokenId].seller.transfer(transferValue);//Sends the funds to the seller\r\n        addr.transferFrom(tokenIdToOffer[_tokenId].seller, msg.sender, _tokenId); //transfers the token using transferFrom in Kittycontract.\r\n        _removeOffer(_tokenId); // Removes offer on the arrays\r\n        _removeOffer2(_tokenId);// Removes  offer on the map\r\n        emit MarketTransaction(\"Buy\", msg.sender, _tokenId); //Emits the MarketTransaction event with txType \"Buy\".\r\n    }\r\n    \r\n}    \r\n\r\n",
  "sourcePath": "E:/Importante/Programas creados imagenes iso etc/Programas blockchain/Ethereum Truffle/Kitties_project/contracts/Marketplace.sol",
  "compiler": {
    "name": "solc",
    "version": "0.8.4+commit.c7e474f2.Emscripten.clang"
  },
  "schemaVersion": "3.3.4",
  "updatedAt": "2021-06-15T19:29:59.870Z",
  "networkType": "ethereum",
  "devdoc": {
    "kind": "dev",
    "methods": {},
    "version": 1
  },
  "userdoc": {
    "kind": "user",
    "methods": {
      "buyKitty(uint256)": {
        "notice": "Executes the purchase of _tokenId. Sends the funds to the seller and transfers the token using transferFrom in Kittycontract. Emits the MarketTransaction event with txType \"Buy\". Requirement: The msg.value needs to equal the price of _tokenId Requirement: There must be an active offer for _tokenId"
      },
      "getAllTokenOnSale()": {
        "notice": "Get all tokenId's that are currently for sale. Returns an empty arror if none exist."
      },
      "getOffer(uint256)": {
        "notice": "Get the details about a offer for _tokenId. Throws an error if there is no active offer for _tokenId."
      },
      "removeOffer(uint256)": {
        "notice": "Removes an existing offer. Emits the MarketTransaction event with txType \"Remove offer\" Requirement: Only the seller of _tokenId can remove an offer."
      },
      "setKittyContract(address)": {
        "notice": "Set the current KittyContract address and initialize the instance of Kittycontract. Requirement: Only the contract owner can call."
      },
      "setOffer(uint256,uint256)": {
        "notice": "Creates a new offer for _tokenId for the price _price. Emits the MarketTransaction event with txType \"Create offer\" Requirement: Only the owner of _tokenId can create an offer. Requirement: There can only be one active offer for a token at a time. Requirement: Marketplace contract (this) needs to be an approved operator when the offer is created."
      }
    },
    "version": 1
  }
}